{
  "contractName": "GoodwillChain",
  "abi": [
    {
      "inputs": [],
      "stateMutability": "nonpayable",
      "type": "constructor"
    },
    {
      "anonymous": false,
      "inputs": [
        {
          "indexed": true,
          "internalType": "address",
          "name": "owner",
          "type": "address"
        },
        {
          "indexed": true,
          "internalType": "address",
          "name": "approved",
          "type": "address"
        },
        {
          "indexed": true,
          "internalType": "uint256",
          "name": "tokenId",
          "type": "uint256"
        }
      ],
      "name": "Approval",
      "type": "event"
    },
    {
      "anonymous": false,
      "inputs": [
        {
          "indexed": true,
          "internalType": "address",
          "name": "owner",
          "type": "address"
        },
        {
          "indexed": true,
          "internalType": "address",
          "name": "operator",
          "type": "address"
        },
        {
          "indexed": false,
          "internalType": "bool",
          "name": "approved",
          "type": "bool"
        }
      ],
      "name": "ApprovalForAll",
      "type": "event"
    },
    {
      "anonymous": false,
      "inputs": [
        {
          "indexed": true,
          "internalType": "address",
          "name": "previousOwner",
          "type": "address"
        },
        {
          "indexed": true,
          "internalType": "address",
          "name": "newOwner",
          "type": "address"
        }
      ],
      "name": "OwnershipTransferred",
      "type": "event"
    },
    {
      "anonymous": false,
      "inputs": [
        {
          "indexed": true,
          "internalType": "address",
          "name": "from",
          "type": "address"
        },
        {
          "indexed": true,
          "internalType": "address",
          "name": "to",
          "type": "address"
        },
        {
          "indexed": true,
          "internalType": "uint256",
          "name": "tokenId",
          "type": "uint256"
        }
      ],
      "name": "Transfer",
      "type": "event"
    },
    {
      "anonymous": false,
      "inputs": [
        {
          "indexed": false,
          "internalType": "uint256",
          "name": "id",
          "type": "uint256"
        },
        {
          "indexed": false,
          "internalType": "address",
          "name": "buyer",
          "type": "address"
        }
      ],
      "name": "boughtNFT",
      "type": "event"
    },
    {
      "anonymous": false,
      "inputs": [
        {
          "indexed": false,
          "internalType": "uint256",
          "name": "id",
          "type": "uint256"
        },
        {
          "indexed": false,
          "internalType": "string",
          "name": "name",
          "type": "string"
        },
        {
          "indexed": false,
          "internalType": "address",
          "name": "owner",
          "type": "address"
        }
      ],
      "name": "createdNFT",
      "type": "event"
    },
    {
      "anonymous": false,
      "inputs": [
        {
          "indexed": false,
          "internalType": "uint256",
          "name": "id",
          "type": "uint256"
        },
        {
          "indexed": false,
          "internalType": "uint256",
          "name": "nftID",
          "type": "uint256"
        },
        {
          "indexed": false,
          "internalType": "uint256",
          "name": "amount",
          "type": "uint256"
        },
        {
          "indexed": false,
          "internalType": "bool",
          "name": "approved",
          "type": "bool"
        }
      ],
      "name": "offerApproved",
      "type": "event"
    },
    {
      "anonymous": false,
      "inputs": [
        {
          "indexed": false,
          "internalType": "uint256",
          "name": "id",
          "type": "uint256"
        },
        {
          "indexed": false,
          "internalType": "uint256",
          "name": "newPrice",
          "type": "uint256"
        },
        {
          "indexed": false,
          "internalType": "bool",
          "name": "listed",
          "type": "bool"
        }
      ],
      "name": "setNFTPrice",
      "type": "event"
    },
    {
      "inputs": [
        {
          "internalType": "address",
          "name": "to",
          "type": "address"
        },
        {
          "internalType": "uint256",
          "name": "tokenId",
          "type": "uint256"
        }
      ],
      "name": "approve",
      "outputs": [],
      "stateMutability": "nonpayable",
      "type": "function"
    },
    {
      "inputs": [
        {
          "internalType": "address",
          "name": "owner",
          "type": "address"
        }
      ],
      "name": "balanceOf",
      "outputs": [
        {
          "internalType": "uint256",
          "name": "",
          "type": "uint256"
        }
      ],
      "stateMutability": "view",
      "type": "function"
    },
    {
      "inputs": [],
      "name": "funds",
      "outputs": [
        {
          "internalType": "uint256",
          "name": "",
          "type": "uint256"
        }
      ],
      "stateMutability": "view",
      "type": "function"
    },
    {
      "inputs": [
        {
          "internalType": "uint256",
          "name": "tokenId",
          "type": "uint256"
        }
      ],
      "name": "getApproved",
      "outputs": [
        {
          "internalType": "address",
          "name": "",
          "type": "address"
        }
      ],
      "stateMutability": "view",
      "type": "function"
    },
    {
      "inputs": [
        {
          "internalType": "address",
          "name": "owner",
          "type": "address"
        },
        {
          "internalType": "address",
          "name": "operator",
          "type": "address"
        }
      ],
      "name": "isApprovedForAll",
      "outputs": [
        {
          "internalType": "bool",
          "name": "",
          "type": "bool"
        }
      ],
      "stateMutability": "view",
      "type": "function"
    },
    {
      "inputs": [],
      "name": "name",
      "outputs": [
        {
          "internalType": "string",
          "name": "",
          "type": "string"
        }
      ],
      "stateMutability": "view",
      "type": "function"
    },
    {
      "inputs": [
        {
          "internalType": "uint256",
          "name": "",
          "type": "uint256"
        }
      ],
      "name": "nfts",
      "outputs": [
        {
          "internalType": "uint256",
          "name": "id",
          "type": "uint256"
        },
        {
          "internalType": "uint256",
          "name": "price",
          "type": "uint256"
        },
        {
          "internalType": "bool",
          "name": "isListed",
          "type": "bool"
        },
        {
          "internalType": "string",
          "name": "name",
          "type": "string"
        },
        {
          "internalType": "string",
          "name": "filecid",
          "type": "string"
        },
        {
          "internalType": "string",
          "name": "aName",
          "type": "string"
        },
        {
          "internalType": "address",
          "name": "artist",
          "type": "address"
        },
        {
          "internalType": "address",
          "name": "owner",
          "type": "address"
        }
      ],
      "stateMutability": "view",
      "type": "function"
    },
    {
      "inputs": [],
      "name": "org_address",
      "outputs": [
        {
          "internalType": "address payable",
          "name": "",
          "type": "address"
        }
      ],
      "stateMutability": "view",
      "type": "function"
    },
    {
      "inputs": [],
      "name": "owner",
      "outputs": [
        {
          "internalType": "address",
          "name": "",
          "type": "address"
        }
      ],
      "stateMutability": "view",
      "type": "function"
    },
    {
      "inputs": [
        {
          "internalType": "uint256",
          "name": "tokenId",
          "type": "uint256"
        }
      ],
      "name": "ownerOf",
      "outputs": [
        {
          "internalType": "address",
          "name": "",
          "type": "address"
        }
      ],
      "stateMutability": "view",
      "type": "function"
    },
    {
      "inputs": [],
      "name": "renounceOwnership",
      "outputs": [],
      "stateMutability": "nonpayable",
      "type": "function"
    },
    {
      "inputs": [
        {
          "internalType": "address",
          "name": "from",
          "type": "address"
        },
        {
          "internalType": "address",
          "name": "to",
          "type": "address"
        },
        {
          "internalType": "uint256",
          "name": "tokenId",
          "type": "uint256"
        }
      ],
      "name": "safeTransferFrom",
      "outputs": [],
      "stateMutability": "nonpayable",
      "type": "function"
    },
    {
      "inputs": [
        {
          "internalType": "address",
          "name": "from",
          "type": "address"
        },
        {
          "internalType": "address",
          "name": "to",
          "type": "address"
        },
        {
          "internalType": "uint256",
          "name": "tokenId",
          "type": "uint256"
        },
        {
          "internalType": "bytes",
          "name": "_data",
          "type": "bytes"
        }
      ],
      "name": "safeTransferFrom",
      "outputs": [],
      "stateMutability": "nonpayable",
      "type": "function"
    },
    {
      "inputs": [
        {
          "internalType": "address",
          "name": "operator",
          "type": "address"
        },
        {
          "internalType": "bool",
          "name": "approved",
          "type": "bool"
        }
      ],
      "name": "setApprovalForAll",
      "outputs": [],
      "stateMutability": "nonpayable",
      "type": "function"
    },
    {
      "inputs": [
        {
          "internalType": "bytes4",
          "name": "interfaceId",
          "type": "bytes4"
        }
      ],
      "name": "supportsInterface",
      "outputs": [
        {
          "internalType": "bool",
          "name": "",
          "type": "bool"
        }
      ],
      "stateMutability": "view",
      "type": "function"
    },
    {
      "inputs": [],
      "name": "symbol",
      "outputs": [
        {
          "internalType": "string",
          "name": "",
          "type": "string"
        }
      ],
      "stateMutability": "view",
      "type": "function"
    },
    {
      "inputs": [],
      "name": "tCount",
      "outputs": [
        {
          "internalType": "uint256",
          "name": "",
          "type": "uint256"
        }
      ],
      "stateMutability": "view",
      "type": "function"
    },
    {
      "inputs": [
        {
          "internalType": "address",
          "name": "from",
          "type": "address"
        },
        {
          "internalType": "address",
          "name": "to",
          "type": "address"
        },
        {
          "internalType": "uint256",
          "name": "tokenId",
          "type": "uint256"
        }
      ],
      "name": "transferFrom",
      "outputs": [],
      "stateMutability": "nonpayable",
      "type": "function"
    },
    {
      "inputs": [
        {
          "internalType": "address",
          "name": "newOwner",
          "type": "address"
        }
      ],
      "name": "transferOwnership",
      "outputs": [],
      "stateMutability": "nonpayable",
      "type": "function"
    },
    {
      "inputs": [
        {
          "internalType": "uint256",
          "name": "tokenId",
          "type": "uint256"
        }
      ],
      "name": "tokenURI",
      "outputs": [
        {
          "internalType": "string",
          "name": "",
          "type": "string"
        }
      ],
      "stateMutability": "view",
      "type": "function"
    },
    {
      "inputs": [
        {
          "internalType": "address",
          "name": "_gctAddress",
          "type": "address"
        }
      ],
      "name": "setGCTAddress",
      "outputs": [],
      "stateMutability": "nonpayable",
      "type": "function"
    },
    {
      "inputs": [
        {
          "internalType": "address",
          "name": "_org_address",
          "type": "address"
        }
      ],
      "name": "setOrgAddress",
      "outputs": [],
      "stateMutability": "nonpayable",
      "type": "function"
    },
    {
      "inputs": [
        {
          "internalType": "string",
          "name": "_name",
          "type": "string"
        }
      ],
      "name": "registerArtist",
      "outputs": [],
      "stateMutability": "nonpayable",
      "type": "function"
    },
    {
      "inputs": [
        {
          "internalType": "string",
          "name": "_name",
          "type": "string"
        },
        {
          "internalType": "string",
          "name": "_filecid",
          "type": "string"
        },
        {
          "internalType": "uint256",
          "name": "_price",
          "type": "uint256"
        }
      ],
      "name": "createNFT",
      "outputs": [],
      "stateMutability": "nonpayable",
      "type": "function"
    },
    {
      "inputs": [
        {
          "internalType": "uint256",
          "name": "_id",
          "type": "uint256"
        }
      ],
      "name": "buyNFT",
      "outputs": [],
      "stateMutability": "payable",
      "type": "function"
    }
  ],
  "bytecode": "0x60806040523480156200001157600080fd5b506040518060400160405280601181526020017f476f6f6477696c6c436861696e204e46540000000000000000000000000000008152506040518060400160405280600381526020017f4757430000000000000000000000000000000000000000000000000000000000815250816000908051906020019062000096929190620001a6565b508060019080519060200190620000af929190620001a6565b505050620000d2620000c6620000d860201b60201c565b620000e060201b60201c565b620002bb565b600033905090565b6000600760009054906101000a900473ffffffffffffffffffffffffffffffffffffffff16905081600760006101000a81548173ffffffffffffffffffffffffffffffffffffffff021916908373ffffffffffffffffffffffffffffffffffffffff1602179055508173ffffffffffffffffffffffffffffffffffffffff168173ffffffffffffffffffffffffffffffffffffffff167f8be0079c531659141344cd1fd0a4f28419497f9722a3daafe3b4186f6b6457e060405160405180910390a35050565b828054620001b49062000256565b90600052602060002090601f016020900481019282620001d8576000855562000224565b82601f10620001f357805160ff191683800117855562000224565b8280016001018555821562000224579182015b828111156200022357825182559160200191906001019062000206565b5b50905062000233919062000237565b5090565b5b808211156200025257600081600090555060010162000238565b5090565b600060028204905060018216806200026f57607f821691505b602082108114156200028657620002856200028c565b5b50919050565b7f4e487b7100000000000000000000000000000000000000000000000000000000600052602260045260246000fd5b61400e80620002cb6000396000f3fe6080604052600436106101665760003560e01c8063715018a6116100d1578063b21d01901161008a578063c87b56dd11610064578063c87b56dd1461051e578063c89f2ce41461055b578063e985e9c514610586578063f2fde38b146105c357610166565b8063b21d0190146104a1578063b88d4fde146104ca578063b98a2c69146104f357610166565b8063715018a6146103b95780638da5cb5b146103d05780639355d419146103fb57806395d89b41146104245780639add4b791461044f578063a22cb4651461047857610166565b80633241d34a116101235780633241d34a146102a657806342842e0e146102cf57806351ed8288146102f857806353f9a873146103145780636352211e1461033f57806370a082311461037c57610166565b806301ffc9a71461016b57806306fdde03146101a8578063081812fc146101d3578063095ea7b31461021057806323b872dd14610239578063265aa62114610262575b600080fd5b34801561017757600080fd5b50610192600480360381019061018d9190612c10565b6105ec565b60405161019f9190613244565b60405180910390f35b3480156101b457600080fd5b506101bd6106ce565b6040516101ca919061325f565b60405180910390f35b3480156101df57600080fd5b506101fa60048036038101906101f59190612d22565b610760565b6040516102079190613199565b60405180910390f35b34801561021c57600080fd5b5061023760048036038101906102329190612bd4565b6107e5565b005b34801561024557600080fd5b50610260600480360381019061025b9190612ace565b6108fd565b005b34801561026e57600080fd5b5061028960048036038101906102849190612d22565b61095d565b60405161029d989796959493929190613583565b60405180910390f35b3480156102b257600080fd5b506102cd60048036038101906102c89190612ca3565b610b8a565b005b3480156102db57600080fd5b506102f660048036038101906102f19190612ace565b610f7e565b005b610312600480360381019061030d9190612d22565b610f9e565b005b34801561032057600080fd5b50610329611239565b6040516103369190613501565b60405180910390f35b34801561034b57600080fd5b5061036660048036038101906103619190612d22565b61123f565b6040516103739190613199565b60405180910390f35b34801561038857600080fd5b506103a3600480360381019061039e9190612a69565b6112f1565b6040516103b09190613501565b60405180910390f35b3480156103c557600080fd5b506103ce6113a9565b005b3480156103dc57600080fd5b506103e5611431565b6040516103f29190613199565b60405180910390f35b34801561040757600080fd5b50610422600480360381019061041d9190612c62565b61145b565b005b34801561043057600080fd5b506104396114b2565b604051610446919061325f565b60405180910390f35b34801561045b57600080fd5b5061047660048036038101906104719190612a69565b611544565b005b34801561048457600080fd5b5061049f600480360381019061049a9190612b98565b611604565b005b3480156104ad57600080fd5b506104c860048036038101906104c39190612a69565b61161a565b005b3480156104d657600080fd5b506104f160048036038101906104ec9190612b1d565b6116da565b005b3480156104ff57600080fd5b5061050861173c565b60405161051591906131b4565b60405180910390f35b34801561052a57600080fd5b5061054560048036038101906105409190612d22565b611762565b604051610552919061325f565b60405180910390f35b34801561056757600080fd5b50610570611774565b60405161057d9190613501565b60405180910390f35b34801561059257600080fd5b506105ad60048036038101906105a89190612a92565b61177a565b6040516105ba9190613244565b60405180910390f35b3480156105cf57600080fd5b506105ea60048036038101906105e59190612a69565b61180e565b005b60007f80ac58cd000000000000000000000000000000000000000000000000000000007bffffffffffffffffffffffffffffffffffffffffffffffffffffffff1916827bffffffffffffffffffffffffffffffffffffffffffffffffffffffff191614806106b757507f5b5e139f000000000000000000000000000000000000000000000000000000007bffffffffffffffffffffffffffffffffffffffffffffffffffffffff1916827bffffffffffffffffffffffffffffffffffffffffffffffffffffffff1916145b806106c757506106c682611906565b5b9050919050565b6060600080546106dd9061388a565b80601f01602080910402602001604051908101604052809291908181526020018280546107099061388a565b80156107565780601f1061072b57610100808354040283529160200191610756565b820191906000526020600020905b81548152906001019060200180831161073957829003601f168201915b5050505050905090565b600061076b82611970565b6107aa576040517f08c379a00000000000000000000000000000000000000000000000000000000081526004016107a190613421565b60405180910390fd5b6004600083815260200190815260200160002060009054906101000a900473ffffffffffffffffffffffffffffffffffffffff169050919050565b60006107f08261123f565b90508073ffffffffffffffffffffffffffffffffffffffff168373ffffffffffffffffffffffffffffffffffffffff161415610861576040517f08c379a0000000000000000000000000000000000000000000000000000000008152600401610858906134a1565b60405180910390fd5b8073ffffffffffffffffffffffffffffffffffffffff166108806119dc565b73ffffffffffffffffffffffffffffffffffffffff1614806108af57506108ae816108a96119dc565b61177a565b5b6108ee576040517f08c379a00000000000000000000000000000000000000000000000000000000081526004016108e590613361565b60405180910390fd5b6108f883836119e4565b505050565b61090e6109086119dc565b82611a9d565b61094d576040517f08c379a0000000000000000000000000000000000000000000000000000000008152600401610944906134e1565b60405180910390fd5b610958838383611b7b565b505050565b600d6020528060005260406000206000915090508060000154908060010154908060020160009054906101000a900460ff169080600301805461099f9061388a565b80601f01602080910402602001604051908101604052809291908181526020018280546109cb9061388a565b8015610a185780601f106109ed57610100808354040283529160200191610a18565b820191906000526020600020905b8154815290600101906020018083116109fb57829003601f168201915b505050505090806004018054610a2d9061388a565b80601f0160208091040260200160405190810160405280929190818152602001828054610a599061388a565b8015610aa65780601f10610a7b57610100808354040283529160200191610aa6565b820191906000526020600020905b815481529060010190602001808311610a8957829003601f168201915b505050505090806005018054610abb9061388a565b80601f0160208091040260200160405190810160405280929190818152602001828054610ae79061388a565b8015610b345780601f10610b0957610100808354040283529160200191610b34565b820191906000526020600020905b815481529060010190602001808311610b1757829003601f168201915b5050505050908060060160009054906101000a900473ffffffffffffffffffffffffffffffffffffffff16908060070160009054906101000a900473ffffffffffffffffffffffffffffffffffffffff16905088565b60008351118015610b9c575060008251115b610bdb576040517f08c379a0000000000000000000000000000000000000000000000000000000008152600401610bd2906132c1565b60405180910390fd5b600a6000815480929190610bee906138ed565b9190505550604051806101000160405280600a548152602001828152602001600115158152602001848152602001838152602001600960003373ffffffffffffffffffffffffffffffffffffffff1673ffffffffffffffffffffffffffffffffffffffff1681526020019081526020016000208054610c6c9061388a565b80601f0160208091040260200160405190810160405280929190818152602001828054610c989061388a565b8015610ce55780601f10610cba57610100808354040283529160200191610ce5565b820191906000526020600020905b815481529060010190602001808311610cc857829003601f168201915b505050505081526020013373ffffffffffffffffffffffffffffffffffffffff1681526020013373ffffffffffffffffffffffffffffffffffffffff16815250600d6000600a548152602001908152602001600020600082015181600001556020820151816001015560408201518160020160006101000a81548160ff0219169083151502179055506060820151816003019080519060200190610d8a92919061288d565b506080820151816004019080519060200190610da792919061288d565b5060a0820151816005019080519060200190610dc492919061288d565b5060c08201518160060160006101000a81548173ffffffffffffffffffffffffffffffffffffffff021916908373ffffffffffffffffffffffffffffffffffffffff16021790555060e08201518160070160006101000a81548173ffffffffffffffffffffffffffffffffffffffff021916908373ffffffffffffffffffffffffffffffffffffffff160217905550905050600860009054906101000a900473ffffffffffffffffffffffffffffffffffffffff1673ffffffffffffffffffffffffffffffffffffffff166340c10f1933670de0b6b3a76400006040518363ffffffff1660e01b8152600401610ebb92919061321b565b600060405180830381600087803b158015610ed557600080fd5b505af1158015610ee9573d6000803e3d6000fd5b505050507f46105344ed3331765044bf4b72ec3e7a557e442f12f5ca07855f406b15eb7944600a54600d6000600a548152602001908152602001600020600301600d6000600a54815260200190815260200160002060070160009054906101000a900473ffffffffffffffffffffffffffffffffffffffff16604051610f7193929190613545565b60405180910390a1505050565b610f99838383604051806020016040528060008152506116da565b505050565b80600081118015610fb15750600a548111155b610fba57600080fd5b600d600083815260200190815260200160002060010154341015611013576040517f08c379a000000000000000000000000000000000000000000000000000000000815260040161100a906134c1565b60405180910390fd5b600c60009054906101000a900473ffffffffffffffffffffffffffffffffffffffff1673ffffffffffffffffffffffffffffffffffffffff166108fc349081150290604051600060405180830381858888f1935050505015801561107b573d6000803e3d6000fd5b5034600b5461108a91906136f5565b600b8190555061109a3383611dd7565b61114282600d600085815260200190815260200160002060040180546110bf9061388a565b80601f01602080910402602001604051908101604052809291908181526020018280546110eb9061388a565b80156111385780601f1061110d57610100808354040283529160200191611138565b820191906000526020600020905b81548152906001019060200180831161111b57829003601f168201915b5050505050611df5565b33600d600084815260200190815260200160002060070160006101000a81548173ffffffffffffffffffffffffffffffffffffffff021916908373ffffffffffffffffffffffffffffffffffffffff1602179055506000600d600084815260200190815260200160002060020160006101000a81548160ff0219169083151502179055507f70f76b66a3d3b6796ada4c4cdb638e4fbe98b25d239c2c6f6c9c463da2d37cef82600d600085815260200190815260200160002060070160009054906101000a900473ffffffffffffffffffffffffffffffffffffffff1660405161122d92919061351c565b60405180910390a15050565b600a5481565b6000806002600084815260200190815260200160002060009054906101000a900473ffffffffffffffffffffffffffffffffffffffff169050600073ffffffffffffffffffffffffffffffffffffffff168173ffffffffffffffffffffffffffffffffffffffff1614156112e8576040517f08c379a00000000000000000000000000000000000000000000000000000000081526004016112df906133a1565b60405180910390fd5b80915050919050565b60008073ffffffffffffffffffffffffffffffffffffffff168273ffffffffffffffffffffffffffffffffffffffff161415611362576040517f08c379a000000000000000000000000000000000000000000000000000000000815260040161135990613381565b60405180910390fd5b600360008373ffffffffffffffffffffffffffffffffffffffff1673ffffffffffffffffffffffffffffffffffffffff168152602001908152602001600020549050919050565b6113b16119dc565b73ffffffffffffffffffffffffffffffffffffffff166113cf611431565b73ffffffffffffffffffffffffffffffffffffffff1614611425576040517f08c379a000000000000000000000000000000000000000000000000000000000815260040161141c90613441565b60405180910390fd5b61142f6000611e69565b565b6000600760009054906101000a900473ffffffffffffffffffffffffffffffffffffffff16905090565b80600960003373ffffffffffffffffffffffffffffffffffffffff1673ffffffffffffffffffffffffffffffffffffffff16815260200190815260200160002090805190602001906114ae92919061288d565b5050565b6060600180546114c19061388a565b80601f01602080910402602001604051908101604052809291908181526020018280546114ed9061388a565b801561153a5780601f1061150f5761010080835404028352916020019161153a565b820191906000526020600020905b81548152906001019060200180831161151d57829003601f168201915b5050505050905090565b61154c6119dc565b73ffffffffffffffffffffffffffffffffffffffff1661156a611431565b73ffffffffffffffffffffffffffffffffffffffff16146115c0576040517f08c379a00000000000000000000000000000000000000000000000000000000081526004016115b790613441565b60405180910390fd5b80600860006101000a81548173ffffffffffffffffffffffffffffffffffffffff021916908373ffffffffffffffffffffffffffffffffffffffff16021790555050565b61161661160f6119dc565b8383611f2f565b5050565b6116226119dc565b73ffffffffffffffffffffffffffffffffffffffff16611640611431565b73ffffffffffffffffffffffffffffffffffffffff1614611696576040517f08c379a000000000000000000000000000000000000000000000000000000000815260040161168d90613441565b60405180910390fd5b80600c60006101000a81548173ffffffffffffffffffffffffffffffffffffffff021916908373ffffffffffffffffffffffffffffffffffffffff16021790555050565b6116eb6116e56119dc565b83611a9d565b61172a576040517f08c379a0000000000000000000000000000000000000000000000000000000008152600401611721906134e1565b60405180910390fd5b6117368484848461209c565b50505050565b600c60009054906101000a900473ffffffffffffffffffffffffffffffffffffffff1681565b606061176d826120f8565b9050919050565b600b5481565b6000600560008473ffffffffffffffffffffffffffffffffffffffff1673ffffffffffffffffffffffffffffffffffffffff16815260200190815260200160002060008373ffffffffffffffffffffffffffffffffffffffff1673ffffffffffffffffffffffffffffffffffffffff16815260200190815260200160002060009054906101000a900460ff16905092915050565b6118166119dc565b73ffffffffffffffffffffffffffffffffffffffff16611834611431565b73ffffffffffffffffffffffffffffffffffffffff161461188a576040517f08c379a000000000000000000000000000000000000000000000000000000000815260040161188190613441565b60405180910390fd5b600073ffffffffffffffffffffffffffffffffffffffff168173ffffffffffffffffffffffffffffffffffffffff1614156118fa576040517f08c379a00000000000000000000000000000000000000000000000000000000081526004016118f1906132a1565b60405180910390fd5b61190381611e69565b50565b60007f01ffc9a7000000000000000000000000000000000000000000000000000000007bffffffffffffffffffffffffffffffffffffffffffffffffffffffff1916827bffffffffffffffffffffffffffffffffffffffffffffffffffffffff1916149050919050565b60008073ffffffffffffffffffffffffffffffffffffffff166002600084815260200190815260200160002060009054906101000a900473ffffffffffffffffffffffffffffffffffffffff1673ffffffffffffffffffffffffffffffffffffffff1614159050919050565b600033905090565b816004600083815260200190815260200160002060006101000a81548173ffffffffffffffffffffffffffffffffffffffff021916908373ffffffffffffffffffffffffffffffffffffffff160217905550808273ffffffffffffffffffffffffffffffffffffffff16611a578361123f565b73ffffffffffffffffffffffffffffffffffffffff167f8c5be1e5ebec7d5bd14f71427d1e84f3dd0314c0f7b2291e5b200ac8c7c3b92560405160405180910390a45050565b6000611aa882611970565b611ae7576040517f08c379a0000000000000000000000000000000000000000000000000000000008152600401611ade90613341565b60405180910390fd5b6000611af28361123f565b90508073ffffffffffffffffffffffffffffffffffffffff168473ffffffffffffffffffffffffffffffffffffffff161480611b6157508373ffffffffffffffffffffffffffffffffffffffff16611b4984610760565b73ffffffffffffffffffffffffffffffffffffffff16145b80611b725750611b71818561177a565b5b91505092915050565b8273ffffffffffffffffffffffffffffffffffffffff16611b9b8261123f565b73ffffffffffffffffffffffffffffffffffffffff1614611bf1576040517f08c379a0000000000000000000000000000000000000000000000000000000008152600401611be890613461565b60405180910390fd5b600073ffffffffffffffffffffffffffffffffffffffff168273ffffffffffffffffffffffffffffffffffffffff161415611c61576040517f08c379a0000000000000000000000000000000000000000000000000000000008152600401611c5890613301565b60405180910390fd5b611c6c83838361224a565b611c776000826119e4565b6001600360008573ffffffffffffffffffffffffffffffffffffffff1673ffffffffffffffffffffffffffffffffffffffff1681526020019081526020016000206000828254611cc7919061377c565b925050819055506001600360008473ffffffffffffffffffffffffffffffffffffffff1673ffffffffffffffffffffffffffffffffffffffff1681526020019081526020016000206000828254611d1e91906136f5565b92505081905550816002600083815260200190815260200160002060006101000a81548173ffffffffffffffffffffffffffffffffffffffff021916908373ffffffffffffffffffffffffffffffffffffffff160217905550808273ffffffffffffffffffffffffffffffffffffffff168473ffffffffffffffffffffffffffffffffffffffff167fddf252ad1be2c89b69c2b068fc378daa952ba7f163c4a11628f55a4df523b3ef60405160405180910390a4505050565b611df182826040518060200160405280600081525061224f565b5050565b611dfe82611970565b611e3d576040517f08c379a0000000000000000000000000000000000000000000000000000000008152600401611e34906133c1565b60405180910390fd5b80600660008481526020019081526020016000209080519060200190611e6492919061288d565b505050565b6000600760009054906101000a900473ffffffffffffffffffffffffffffffffffffffff16905081600760006101000a81548173ffffffffffffffffffffffffffffffffffffffff021916908373ffffffffffffffffffffffffffffffffffffffff1602179055508173ffffffffffffffffffffffffffffffffffffffff168173ffffffffffffffffffffffffffffffffffffffff167f8be0079c531659141344cd1fd0a4f28419497f9722a3daafe3b4186f6b6457e060405160405180910390a35050565b8173ffffffffffffffffffffffffffffffffffffffff168373ffffffffffffffffffffffffffffffffffffffff161415611f9e576040517f08c379a0000000000000000000000000000000000000000000000000000000008152600401611f9590613321565b60405180910390fd5b80600560008573ffffffffffffffffffffffffffffffffffffffff1673ffffffffffffffffffffffffffffffffffffffff16815260200190815260200160002060008473ffffffffffffffffffffffffffffffffffffffff1673ffffffffffffffffffffffffffffffffffffffff16815260200190815260200160002060006101000a81548160ff0219169083151502179055508173ffffffffffffffffffffffffffffffffffffffff168373ffffffffffffffffffffffffffffffffffffffff167f17307eab39ab6107e8899845ad3d59bd9653f200f220920489ca2b5937696c318360405161208f9190613244565b60405180910390a3505050565b6120a7848484611b7b565b6120b3848484846122aa565b6120f2576040517f08c379a00000000000000000000000000000000000000000000000000000000081526004016120e990613281565b60405180910390fd5b50505050565b606061210382611970565b612142576040517f08c379a000000000000000000000000000000000000000000000000000000000815260040161213990613401565b60405180910390fd5b60006006600084815260200190815260200160002080546121629061388a565b80601f016020809104026020016040519081016040528092919081815260200182805461218e9061388a565b80156121db5780601f106121b0576101008083540402835291602001916121db565b820191906000526020600020905b8154815290600101906020018083116121be57829003601f168201915b5050505050905060006121ec612441565b9050600081511415612202578192505050612245565b60008251111561223757808260405160200161221f929190613175565b60405160208183030381529060405292505050612245565b61224084612458565b925050505b919050565b505050565b61225983836124ff565b61226660008484846122aa565b6122a5576040517f08c379a000000000000000000000000000000000000000000000000000000000815260040161229c90613281565b60405180910390fd5b505050565b60006122cb8473ffffffffffffffffffffffffffffffffffffffff166126cd565b15612434578373ffffffffffffffffffffffffffffffffffffffff1663150b7a026122f46119dc565b8786866040518563ffffffff1660e01b815260040161231694939291906131cf565b602060405180830381600087803b15801561233057600080fd5b505af192505050801561236157506040513d601f19601f8201168201806040525081019061235e9190612c39565b60015b6123e4573d8060008114612391576040519150601f19603f3d011682016040523d82523d6000602084013e612396565b606091505b506000815114156123dc576040517f08c379a00000000000000000000000000000000000000000000000000000000081526004016123d390613281565b60405180910390fd5b805181602001fd5b63150b7a0260e01b7bffffffffffffffffffffffffffffffffffffffffffffffffffffffff1916817bffffffffffffffffffffffffffffffffffffffffffffffffffffffff191614915050612439565b600190505b949350505050565b606060405180602001604052806000815250905090565b606061246382611970565b6124a2576040517f08c379a000000000000000000000000000000000000000000000000000000000815260040161249990613481565b60405180910390fd5b60006124ac612441565b905060008151116124cc57604051806020016040528060008152506124f7565b806124d6846126e0565b6040516020016124e7929190613175565b6040516020818303038152906040525b915050919050565b600073ffffffffffffffffffffffffffffffffffffffff168273ffffffffffffffffffffffffffffffffffffffff16141561256f576040517f08c379a0000000000000000000000000000000000000000000000000000000008152600401612566906133e1565b60405180910390fd5b61257881611970565b156125b8576040517f08c379a00000000000000000000000000000000000000000000000000000000081526004016125af906132e1565b60405180910390fd5b6125c46000838361224a565b6001600360008473ffffffffffffffffffffffffffffffffffffffff1673ffffffffffffffffffffffffffffffffffffffff168152602001908152602001600020600082825461261491906136f5565b92505081905550816002600083815260200190815260200160002060006101000a81548173ffffffffffffffffffffffffffffffffffffffff021916908373ffffffffffffffffffffffffffffffffffffffff160217905550808273ffffffffffffffffffffffffffffffffffffffff16600073ffffffffffffffffffffffffffffffffffffffff167fddf252ad1be2c89b69c2b068fc378daa952ba7f163c4a11628f55a4df523b3ef60405160405180910390a45050565b600080823b905060008111915050919050565b60606000821415612728576040518060400160405280600181526020017f30000000000000000000000000000000000000000000000000000000000000008152509050612888565b600082905060005b6000821461275a578080612743906138ed565b915050600a82612753919061374b565b9150612730565b60008167ffffffffffffffff81111561279c577f4e487b7100000000000000000000000000000000000000000000000000000000600052604160045260246000fd5b6040519080825280601f01601f1916602001820160405280156127ce5781602001600182028036833780820191505090505b5090505b60008514612881576001826127e7919061377c565b9150600a856127f69190613936565b603061280291906136f5565b60f81b81838151811061283e577f4e487b7100000000000000000000000000000000000000000000000000000000600052603260045260246000fd5b60200101907effffffffffffffffffffffffffffffffffffffffffffffffffffffffffffff1916908160001a905350600a8561287a919061374b565b94506127d2565b8093505050505b919050565b8280546128999061388a565b90600052602060002090601f0160209004810192826128bb5760008555612902565b82601f106128d457805160ff1916838001178555612902565b82800160010185558215612902579182015b828111156129015782518255916020019190600101906128e6565b5b50905061290f9190612913565b5090565b5b8082111561292c576000816000905550600101612914565b5090565b600061294361293e8461363b565b613616565b90508281526020810184848401111561295b57600080fd5b612966848285613848565b509392505050565b600061298161297c8461366c565b613616565b90508281526020810184848401111561299957600080fd5b6129a4848285613848565b509392505050565b6000813590506129bb81613f7c565b92915050565b6000813590506129d081613f93565b92915050565b6000813590506129e581613faa565b92915050565b6000815190506129fa81613faa565b92915050565b600082601f830112612a1157600080fd5b8135612a21848260208601612930565b91505092915050565b600082601f830112612a3b57600080fd5b8135612a4b84826020860161296e565b91505092915050565b600081359050612a6381613fc1565b92915050565b600060208284031215612a7b57600080fd5b6000612a89848285016129ac565b91505092915050565b60008060408385031215612aa557600080fd5b6000612ab3858286016129ac565b9250506020612ac4858286016129ac565b9150509250929050565b600080600060608486031215612ae357600080fd5b6000612af1868287016129ac565b9350506020612b02868287016129ac565b9250506040612b1386828701612a54565b9150509250925092565b60008060008060808587031215612b3357600080fd5b6000612b41878288016129ac565b9450506020612b52878288016129ac565b9350506040612b6387828801612a54565b925050606085013567ffffffffffffffff811115612b8057600080fd5b612b8c87828801612a00565b91505092959194509250565b60008060408385031215612bab57600080fd5b6000612bb9858286016129ac565b9250506020612bca858286016129c1565b9150509250929050565b60008060408385031215612be757600080fd5b6000612bf5858286016129ac565b9250506020612c0685828601612a54565b9150509250929050565b600060208284031215612c2257600080fd5b6000612c30848285016129d6565b91505092915050565b600060208284031215612c4b57600080fd5b6000612c59848285016129eb565b91505092915050565b600060208284031215612c7457600080fd5b600082013567ffffffffffffffff811115612c8e57600080fd5b612c9a84828501612a2a565b91505092915050565b600080600060608486031215612cb857600080fd5b600084013567ffffffffffffffff811115612cd257600080fd5b612cde86828701612a2a565b935050602084013567ffffffffffffffff811115612cfb57600080fd5b612d0786828701612a2a565b9250506040612d1886828701612a54565b9150509250925092565b600060208284031215612d3457600080fd5b6000612d4284828501612a54565b91505092915050565b612d54816137c2565b82525050565b612d63816137b0565b82525050565b612d72816137d4565b82525050565b6000612d83826136b2565b612d8d81856136c8565b9350612d9d818560208601613857565b612da681613a23565b840191505092915050565b612dba81613836565b82525050565b6000612dcb826136bd565b612dd581856136d9565b9350612de5818560208601613857565b612dee81613a23565b840191505092915050565b6000612e04826136bd565b612e0e81856136ea565b9350612e1e818560208601613857565b80840191505092915050565b60008154612e378161388a565b612e4181866136d9565b94506001821660008114612e5c5760018114612e6e57612ea1565b60ff1983168652602086019350612ea1565b612e778561369d565b60005b83811015612e9957815481890152600182019150602081019050612e7a565b808801955050505b50505092915050565b6000612eb76032836136d9565b9150612ec282613a34565b604082019050919050565b6000612eda6026836136d9565b9150612ee582613a83565b604082019050919050565b6000612efd6016836136d9565b9150612f0882613ad2565b602082019050919050565b6000612f20601c836136d9565b9150612f2b82613afb565b602082019050919050565b6000612f436024836136d9565b9150612f4e82613b24565b604082019050919050565b6000612f666019836136d9565b9150612f7182613b73565b602082019050919050565b6000612f89602c836136d9565b9150612f9482613b9c565b604082019050919050565b6000612fac6038836136d9565b9150612fb782613beb565b604082019050919050565b6000612fcf602a836136d9565b9150612fda82613c3a565b604082019050919050565b6000612ff26029836136d9565b9150612ffd82613c89565b604082019050919050565b6000613015602e836136d9565b915061302082613cd8565b604082019050919050565b60006130386020836136d9565b915061304382613d27565b602082019050919050565b600061305b6031836136d9565b915061306682613d50565b604082019050919050565b600061307e602c836136d9565b915061308982613d9f565b604082019050919050565b60006130a16020836136d9565b91506130ac82613dee565b602082019050919050565b60006130c46029836136d9565b91506130cf82613e17565b604082019050919050565b60006130e7602f836136d9565b91506130f282613e66565b604082019050919050565b600061310a6021836136d9565b915061311582613eb5565b604082019050919050565b600061312d6013836136d9565b915061313882613f04565b602082019050919050565b60006131506031836136d9565b915061315b82613f2d565b604082019050919050565b61316f8161382c565b82525050565b60006131818285612df9565b915061318d8284612df9565b91508190509392505050565b60006020820190506131ae6000830184612d5a565b92915050565b60006020820190506131c96000830184612d4b565b92915050565b60006080820190506131e46000830187612d5a565b6131f16020830186612d5a565b6131fe6040830185613166565b81810360608301526132108184612d78565b905095945050505050565b60006040820190506132306000830185612d5a565b61323d6020830184612db1565b9392505050565b60006020820190506132596000830184612d69565b92915050565b600060208201905081810360008301526132798184612dc0565b905092915050565b6000602082019050818103600083015261329a81612eaa565b9050919050565b600060208201905081810360008301526132ba81612ecd565b9050919050565b600060208201905081810360008301526132da81612ef0565b9050919050565b600060208201905081810360008301526132fa81612f13565b9050919050565b6000602082019050818103600083015261331a81612f36565b9050919050565b6000602082019050818103600083015261333a81612f59565b9050919050565b6000602082019050818103600083015261335a81612f7c565b9050919050565b6000602082019050818103600083015261337a81612f9f565b9050919050565b6000602082019050818103600083015261339a81612fc2565b9050919050565b600060208201905081810360008301526133ba81612fe5565b9050919050565b600060208201905081810360008301526133da81613008565b9050919050565b600060208201905081810360008301526133fa8161302b565b9050919050565b6000602082019050818103600083015261341a8161304e565b9050919050565b6000602082019050818103600083015261343a81613071565b9050919050565b6000602082019050818103600083015261345a81613094565b9050919050565b6000602082019050818103600083015261347a816130b7565b9050919050565b6000602082019050818103600083015261349a816130da565b9050919050565b600060208201905081810360008301526134ba816130fd565b9050919050565b600060208201905081810360008301526134da81613120565b9050919050565b600060208201905081810360008301526134fa81613143565b9050919050565b60006020820190506135166000830184613166565b92915050565b60006040820190506135316000830185613166565b61353e6020830184612d5a565b9392505050565b600060608201905061355a6000830186613166565b818103602083015261356c8185612e2a565b905061357b6040830184612d5a565b949350505050565b600061010082019050613599600083018b613166565b6135a6602083018a613166565b6135b36040830189612d69565b81810360608301526135c58188612dc0565b905081810360808301526135d98187612dc0565b905081810360a08301526135ed8186612dc0565b90506135fc60c0830185612d5a565b61360960e0830184612d5a565b9998505050505050505050565b6000613620613631565b905061362c82826138bc565b919050565b6000604051905090565b600067ffffffffffffffff821115613656576136556139f4565b5b61365f82613a23565b9050602081019050919050565b600067ffffffffffffffff821115613687576136866139f4565b5b61369082613a23565b9050602081019050919050565b60008190508160005260206000209050919050565b600081519050919050565b600081519050919050565b600082825260208201905092915050565b600082825260208201905092915050565b600081905092915050565b60006137008261382c565b915061370b8361382c565b9250827fffffffffffffffffffffffffffffffffffffffffffffffffffffffffffffffff038211156137405761373f613967565b5b828201905092915050565b60006137568261382c565b91506137618361382c565b92508261377157613770613996565b5b828204905092915050565b60006137878261382c565b91506137928361382c565b9250828210156137a5576137a4613967565b5b828203905092915050565b60006137bb8261380c565b9050919050565b60006137cd8261380c565b9050919050565b60008115159050919050565b60007fffffffff0000000000000000000000000000000000000000000000000000000082169050919050565b600073ffffffffffffffffffffffffffffffffffffffff82169050919050565b6000819050919050565b60006138418261382c565b9050919050565b82818337600083830152505050565b60005b8381101561387557808201518184015260208101905061385a565b83811115613884576000848401525b50505050565b600060028204905060018216806138a257607f821691505b602082108114156138b6576138b56139c5565b5b50919050565b6138c582613a23565b810181811067ffffffffffffffff821117156138e4576138e36139f4565b5b80604052505050565b60006138f88261382c565b91507fffffffffffffffffffffffffffffffffffffffffffffffffffffffffffffffff82141561392b5761392a613967565b5b600182019050919050565b60006139418261382c565b915061394c8361382c565b92508261395c5761395b613996565b5b828206905092915050565b7f4e487b7100000000000000000000000000000000000000000000000000000000600052601160045260246000fd5b7f4e487b7100000000000000000000000000000000000000000000000000000000600052601260045260246000fd5b7f4e487b7100000000000000000000000000000000000000000000000000000000600052602260045260246000fd5b7f4e487b7100000000000000000000000000000000000000000000000000000000600052604160045260246000fd5b6000601f19601f8301169050919050565b7f4552433732313a207472616e7366657220746f206e6f6e20455243373231526560008201527f63656976657220696d706c656d656e7465720000000000000000000000000000602082015250565b7f4f776e61626c653a206e6577206f776e657220697320746865207a65726f206160008201527f6464726573730000000000000000000000000000000000000000000000000000602082015250565b7f4e616d6520616e642066696c6520726571756972656400000000000000000000600082015250565b7f4552433732313a20746f6b656e20616c7265616479206d696e74656400000000600082015250565b7f4552433732313a207472616e7366657220746f20746865207a65726f2061646460008201527f7265737300000000000000000000000000000000000000000000000000000000602082015250565b7f4552433732313a20617070726f766520746f2063616c6c657200000000000000600082015250565b7f4552433732313a206f70657261746f7220717565727920666f72206e6f6e657860008201527f697374656e7420746f6b656e0000000000000000000000000000000000000000602082015250565b7f4552433732313a20617070726f76652063616c6c6572206973206e6f74206f7760008201527f6e6572206e6f7220617070726f76656420666f7220616c6c0000000000000000602082015250565b7f4552433732313a2062616c616e636520717565727920666f7220746865207a6560008201527f726f206164647265737300000000000000000000000000000000000000000000602082015250565b7f4552433732313a206f776e657220717565727920666f72206e6f6e657869737460008201527f656e7420746f6b656e0000000000000000000000000000000000000000000000602082015250565b7f45524337323155524953746f726167653a2055524920736574206f66206e6f6e60008201527f6578697374656e7420746f6b656e000000000000000000000000000000000000602082015250565b7f4552433732313a206d696e7420746f20746865207a65726f2061646472657373600082015250565b7f45524337323155524953746f726167653a2055524920717565727920666f722060008201527f6e6f6e6578697374656e7420746f6b656e000000000000000000000000000000602082015250565b7f4552433732313a20617070726f76656420717565727920666f72206e6f6e657860008201527f697374656e7420746f6b656e0000000000000000000000000000000000000000602082015250565b7f4f776e61626c653a2063616c6c6572206973206e6f7420746865206f776e6572600082015250565b7f4552433732313a207472616e73666572206f6620746f6b656e2074686174206960008201527f73206e6f74206f776e0000000000000000000000000000000000000000000000602082015250565b7f4552433732314d657461646174613a2055524920717565727920666f72206e6f60008201527f6e6578697374656e7420746f6b656e0000000000000000000000000000000000602082015250565b7f4552433732313a20617070726f76616c20746f2063757272656e74206f776e6560008201527f7200000000000000000000000000000000000000000000000000000000000000602082015250565b7f496e73756666696369656e7420616d6f756e7400000000000000000000000000600082015250565b7f4552433732313a207472616e736665722063616c6c6572206973206e6f74206f60008201527f776e6572206e6f7220617070726f766564000000000000000000000000000000602082015250565b613f85816137b0565b8114613f9057600080fd5b50565b613f9c816137d4565b8114613fa757600080fd5b50565b613fb3816137e0565b8114613fbe57600080fd5b50565b613fca8161382c565b8114613fd557600080fd5b5056fea26469706673582212209e8989c9f3489a7125cdb7cd22e34d07f1ff67446921d4311de094312ad6bf0b64736f6c63430008020033",
  "immutableReferences": {},
  "source": "// SPDX-License-Identifier: MIT\r\npragma solidity ^0.8.0;\r\n\r\nimport \"@openzeppelin/contracts/access/Ownable.sol\";\r\nimport \"@openzeppelin/contracts/token/ERC721/ERC721.sol\";\r\nimport \"@openzeppelin/contracts/token/ERC721/extensions/ERC721URIStorage.sol\";\r\nimport \"./GCToken.sol\";\r\n\r\ncontract GoodwillChain is ERC721, ERC721URIStorage, Ownable {\r\n\r\n  address gctAddress;\r\n  mapping(address => string) artists;\r\n\r\n  uint public tCount;\r\n  uint public funds;\r\n  address payable public org_address;\r\n\r\n  mapping(uint => NFT) public nfts;\r\n\r\n  struct NFT {\r\n    uint id;\r\n    uint price;\r\n    bool isListed;\r\n    string name;\r\n    string filecid;\r\n    string aName;\r\n    address artist;\r\n    address owner;\r\n  }\r\n\r\n  constructor() ERC721(\"GoodwillChain NFT\", \"GWC\") { }\r\n\r\n  modifier idExists(uint id) {\r\n    require(id > 0 && id <= tCount);\r\n    _;\r\n  }\r\n\r\n  event createdNFT(\r\n    uint id,\r\n    string name,\r\n    address owner\r\n  );\r\n\r\n  event setNFTPrice(\r\n    uint id,\r\n    uint newPrice,\r\n    bool listed\r\n  );\r\n\r\n  event offerApproved(\r\n    uint id,\r\n    uint nftID,\r\n    uint amount,\r\n    bool approved\r\n  );\r\n\r\n  event boughtNFT(\r\n    uint id,\r\n    address buyer\r\n  );\r\n\r\n  function _burn(uint256 tokenId) internal override(ERC721, ERC721URIStorage) {\r\n      super._burn(tokenId);\r\n  }\r\n\r\n  function tokenURI(uint256 tokenId)\r\n      public\r\n      view\r\n      override(ERC721, ERC721URIStorage)\r\n      returns (string memory)\r\n  {\r\n      return super.tokenURI(tokenId);\r\n  }\r\n\r\n  function setGCTAddress(address _gctAddress) external onlyOwner {\r\n    gctAddress = _gctAddress;\r\n  }\r\n\r\n  function setOrgAddress(address _org_address) external onlyOwner {\r\n    org_address = payable(_org_address);\r\n  }\r\n\r\n  function registerArtist(string memory _name) external {\r\n    artists[msg.sender] = _name;\r\n  }\r\n\r\n  function createNFT(string memory _name, string memory _filecid, uint256 _price) external {\r\n    require(bytes(_name).length > 0 && bytes(_filecid).length > 0, \"Name and file required\");\r\n    tCount++;\r\n    nfts[tCount] = NFT(tCount, _price, true, _name, _filecid, artists[msg.sender], msg.sender, msg.sender);\r\n    GCToken(gctAddress).mint(msg.sender, 1 ether);\r\n    emit createdNFT(tCount, nfts[tCount].name, nfts[tCount].owner);\r\n  }\r\n\r\n  function buyNFT(uint _id) external payable idExists(_id) {\r\n    require(msg.value >= nfts[_id].price, \"Insufficient amount\");\r\n    org_address.transfer(msg.value);\r\n    funds = funds + msg.value;\r\n    _safeMint(msg.sender, _id);\r\n    _setTokenURI(_id, nfts[_id].filecid);\r\n    nfts[_id].owner = msg.sender;\r\n    nfts[_id].isListed = false;\r\n    emit boughtNFT(_id, nfts[_id].owner);\r\n  }\r\n}\r\n",
  "sourcePath": "D:/Hackathons/Devfolio online/HFT/GoodWill-Chain/contracts/GoodwillChain.sol",
  "compiler": {
    "name": "solc",
    "version": "0.8.2+commit.661d1103.Emscripten.clang"
  },
  "schemaVersion": "3.4.1",
  "updatedAt": "2021-11-27T15:54:46.626Z",
  "devdoc": {
    "kind": "dev",
    "methods": {
      "approve(address,uint256)": {
        "details": "See {IERC721-approve}."
      },
      "balanceOf(address)": {
        "details": "See {IERC721-balanceOf}."
      },
      "getApproved(uint256)": {
        "details": "See {IERC721-getApproved}."
      },
      "isApprovedForAll(address,address)": {
        "details": "See {IERC721-isApprovedForAll}."
      },
      "name()": {
        "details": "See {IERC721Metadata-name}."
      },
      "owner()": {
        "details": "Returns the address of the current owner."
      },
      "ownerOf(uint256)": {
        "details": "See {IERC721-ownerOf}."
      },
      "renounceOwnership()": {
        "details": "Leaves the contract without owner. It will not be possible to call `onlyOwner` functions anymore. Can only be called by the current owner. NOTE: Renouncing ownership will leave the contract without an owner, thereby removing any functionality that is only available to the owner."
      },
      "safeTransferFrom(address,address,uint256)": {
        "details": "See {IERC721-safeTransferFrom}."
      },
      "safeTransferFrom(address,address,uint256,bytes)": {
        "details": "See {IERC721-safeTransferFrom}."
      },
      "setApprovalForAll(address,bool)": {
        "details": "See {IERC721-setApprovalForAll}."
      },
      "supportsInterface(bytes4)": {
        "details": "See {IERC165-supportsInterface}."
      },
      "symbol()": {
        "details": "See {IERC721Metadata-symbol}."
      },
      "transferFrom(address,address,uint256)": {
        "details": "See {IERC721-transferFrom}."
      },
      "transferOwnership(address)": {
        "details": "Transfers ownership of the contract to a new account (`newOwner`). Can only be called by the current owner."
      }
    },
    "version": 1
  },
  "userdoc": {
    "kind": "user",
    "methods": {},
    "version": 1
  }
}