{
  "contractName": "GoodwillChainMain",
  "abi": [
    {
      "inputs": [],
      "stateMutability": "nonpayable",
      "type": "constructor"
    },
    {
      "anonymous": false,
      "inputs": [
        {
          "indexed": true,
          "internalType": "address",
          "name": "owner",
          "type": "address"
        },
        {
          "indexed": true,
          "internalType": "address",
          "name": "approved",
          "type": "address"
        },
        {
          "indexed": true,
          "internalType": "uint256",
          "name": "tokenId",
          "type": "uint256"
        }
      ],
      "name": "Approval",
      "type": "event"
    },
    {
      "anonymous": false,
      "inputs": [
        {
          "indexed": true,
          "internalType": "address",
          "name": "owner",
          "type": "address"
        },
        {
          "indexed": true,
          "internalType": "address",
          "name": "operator",
          "type": "address"
        },
        {
          "indexed": false,
          "internalType": "bool",
          "name": "approved",
          "type": "bool"
        }
      ],
      "name": "ApprovalForAll",
      "type": "event"
    },
    {
      "anonymous": false,
      "inputs": [
        {
          "indexed": true,
          "internalType": "address",
          "name": "previousOwner",
          "type": "address"
        },
        {
          "indexed": true,
          "internalType": "address",
          "name": "newOwner",
          "type": "address"
        }
      ],
      "name": "OwnershipTransferred",
      "type": "event"
    },
    {
      "anonymous": false,
      "inputs": [
        {
          "indexed": true,
          "internalType": "address",
          "name": "from",
          "type": "address"
        },
        {
          "indexed": true,
          "internalType": "address",
          "name": "to",
          "type": "address"
        },
        {
          "indexed": true,
          "internalType": "uint256",
          "name": "tokenId",
          "type": "uint256"
        }
      ],
      "name": "Transfer",
      "type": "event"
    },
    {
      "anonymous": false,
      "inputs": [
        {
          "indexed": false,
          "internalType": "uint256",
          "name": "id",
          "type": "uint256"
        },
        {
          "indexed": false,
          "internalType": "address",
          "name": "buyer",
          "type": "address"
        }
      ],
      "name": "boughtNFT",
      "type": "event"
    },
    {
      "anonymous": false,
      "inputs": [
        {
          "indexed": false,
          "internalType": "uint256",
          "name": "id",
          "type": "uint256"
        },
        {
          "indexed": false,
          "internalType": "string",
          "name": "name",
          "type": "string"
        },
        {
          "indexed": false,
          "internalType": "address",
          "name": "owner",
          "type": "address"
        }
      ],
      "name": "createdNFT",
      "type": "event"
    },
    {
      "anonymous": false,
      "inputs": [
        {
          "indexed": false,
          "internalType": "uint256",
          "name": "id",
          "type": "uint256"
        },
        {
          "indexed": false,
          "internalType": "uint256",
          "name": "nftID",
          "type": "uint256"
        },
        {
          "indexed": false,
          "internalType": "uint256",
          "name": "amount",
          "type": "uint256"
        },
        {
          "indexed": false,
          "internalType": "bool",
          "name": "approved",
          "type": "bool"
        }
      ],
      "name": "offerApproved",
      "type": "event"
    },
    {
      "anonymous": false,
      "inputs": [
        {
          "indexed": false,
          "internalType": "uint256",
          "name": "id",
          "type": "uint256"
        },
        {
          "indexed": false,
          "internalType": "uint256",
          "name": "newPrice",
          "type": "uint256"
        },
        {
          "indexed": false,
          "internalType": "bool",
          "name": "listed",
          "type": "bool"
        }
      ],
      "name": "setNFTPrice",
      "type": "event"
    },
    {
      "inputs": [
        {
          "internalType": "address",
          "name": "to",
          "type": "address"
        },
        {
          "internalType": "uint256",
          "name": "tokenId",
          "type": "uint256"
        }
      ],
      "name": "approve",
      "outputs": [],
      "stateMutability": "nonpayable",
      "type": "function"
    },
    {
      "inputs": [
        {
          "internalType": "address",
          "name": "owner",
          "type": "address"
        }
      ],
      "name": "balanceOf",
      "outputs": [
        {
          "internalType": "uint256",
          "name": "",
          "type": "uint256"
        }
      ],
      "stateMutability": "view",
      "type": "function"
    },
    {
      "inputs": [],
      "name": "funds",
      "outputs": [
        {
          "internalType": "uint256",
          "name": "",
          "type": "uint256"
        }
      ],
      "stateMutability": "view",
      "type": "function"
    },
    {
      "inputs": [
        {
          "internalType": "uint256",
          "name": "tokenId",
          "type": "uint256"
        }
      ],
      "name": "getApproved",
      "outputs": [
        {
          "internalType": "address",
          "name": "",
          "type": "address"
        }
      ],
      "stateMutability": "view",
      "type": "function"
    },
    {
      "inputs": [
        {
          "internalType": "address",
          "name": "owner",
          "type": "address"
        },
        {
          "internalType": "address",
          "name": "operator",
          "type": "address"
        }
      ],
      "name": "isApprovedForAll",
      "outputs": [
        {
          "internalType": "bool",
          "name": "",
          "type": "bool"
        }
      ],
      "stateMutability": "view",
      "type": "function"
    },
    {
      "inputs": [],
      "name": "name",
      "outputs": [
        {
          "internalType": "string",
          "name": "",
          "type": "string"
        }
      ],
      "stateMutability": "view",
      "type": "function"
    },
    {
      "inputs": [
        {
          "internalType": "uint256",
          "name": "",
          "type": "uint256"
        }
      ],
      "name": "nfts",
      "outputs": [
        {
          "internalType": "uint256",
          "name": "id",
          "type": "uint256"
        },
        {
          "internalType": "uint256",
          "name": "price",
          "type": "uint256"
        },
        {
          "internalType": "bool",
          "name": "isListed",
          "type": "bool"
        },
        {
          "internalType": "string",
          "name": "name",
          "type": "string"
        },
        {
          "internalType": "string",
          "name": "filecid",
          "type": "string"
        },
        {
          "internalType": "string",
          "name": "aName",
          "type": "string"
        },
        {
          "internalType": "address",
          "name": "artist",
          "type": "address"
        },
        {
          "internalType": "address",
          "name": "owner",
          "type": "address"
        }
      ],
      "stateMutability": "view",
      "type": "function"
    },
    {
      "inputs": [],
      "name": "org_address",
      "outputs": [
        {
          "internalType": "address payable",
          "name": "",
          "type": "address"
        }
      ],
      "stateMutability": "view",
      "type": "function"
    },
    {
      "inputs": [],
      "name": "owner",
      "outputs": [
        {
          "internalType": "address",
          "name": "",
          "type": "address"
        }
      ],
      "stateMutability": "view",
      "type": "function"
    },
    {
      "inputs": [
        {
          "internalType": "uint256",
          "name": "tokenId",
          "type": "uint256"
        }
      ],
      "name": "ownerOf",
      "outputs": [
        {
          "internalType": "address",
          "name": "",
          "type": "address"
        }
      ],
      "stateMutability": "view",
      "type": "function"
    },
    {
      "inputs": [],
      "name": "renounceOwnership",
      "outputs": [],
      "stateMutability": "nonpayable",
      "type": "function"
    },
    {
      "inputs": [
        {
          "internalType": "address",
          "name": "from",
          "type": "address"
        },
        {
          "internalType": "address",
          "name": "to",
          "type": "address"
        },
        {
          "internalType": "uint256",
          "name": "tokenId",
          "type": "uint256"
        }
      ],
      "name": "safeTransferFrom",
      "outputs": [],
      "stateMutability": "nonpayable",
      "type": "function"
    },
    {
      "inputs": [
        {
          "internalType": "address",
          "name": "from",
          "type": "address"
        },
        {
          "internalType": "address",
          "name": "to",
          "type": "address"
        },
        {
          "internalType": "uint256",
          "name": "tokenId",
          "type": "uint256"
        },
        {
          "internalType": "bytes",
          "name": "_data",
          "type": "bytes"
        }
      ],
      "name": "safeTransferFrom",
      "outputs": [],
      "stateMutability": "nonpayable",
      "type": "function"
    },
    {
      "inputs": [
        {
          "internalType": "address",
          "name": "operator",
          "type": "address"
        },
        {
          "internalType": "bool",
          "name": "approved",
          "type": "bool"
        }
      ],
      "name": "setApprovalForAll",
      "outputs": [],
      "stateMutability": "nonpayable",
      "type": "function"
    },
    {
      "inputs": [
        {
          "internalType": "bytes4",
          "name": "interfaceId",
          "type": "bytes4"
        }
      ],
      "name": "supportsInterface",
      "outputs": [
        {
          "internalType": "bool",
          "name": "",
          "type": "bool"
        }
      ],
      "stateMutability": "view",
      "type": "function"
    },
    {
      "inputs": [],
      "name": "symbol",
      "outputs": [
        {
          "internalType": "string",
          "name": "",
          "type": "string"
        }
      ],
      "stateMutability": "view",
      "type": "function"
    },
    {
      "inputs": [],
      "name": "tCount",
      "outputs": [
        {
          "internalType": "uint256",
          "name": "",
          "type": "uint256"
        }
      ],
      "stateMutability": "view",
      "type": "function"
    },
    {
      "inputs": [
        {
          "internalType": "address",
          "name": "from",
          "type": "address"
        },
        {
          "internalType": "address",
          "name": "to",
          "type": "address"
        },
        {
          "internalType": "uint256",
          "name": "tokenId",
          "type": "uint256"
        }
      ],
      "name": "transferFrom",
      "outputs": [],
      "stateMutability": "nonpayable",
      "type": "function"
    },
    {
      "inputs": [
        {
          "internalType": "address",
          "name": "newOwner",
          "type": "address"
        }
      ],
      "name": "transferOwnership",
      "outputs": [],
      "stateMutability": "nonpayable",
      "type": "function"
    },
    {
      "inputs": [
        {
          "internalType": "uint256",
          "name": "tokenId",
          "type": "uint256"
        }
      ],
      "name": "tokenURI",
      "outputs": [
        {
          "internalType": "string",
          "name": "",
          "type": "string"
        }
      ],
      "stateMutability": "view",
      "type": "function"
    },
    {
      "inputs": [
        {
          "internalType": "address",
          "name": "_gctAddress",
          "type": "address"
        }
      ],
      "name": "setGCTAddress",
      "outputs": [],
      "stateMutability": "nonpayable",
      "type": "function"
    },
    {
      "inputs": [
        {
          "internalType": "address",
          "name": "_org_address",
          "type": "address"
        }
      ],
      "name": "setOrgAddress",
      "outputs": [],
      "stateMutability": "nonpayable",
      "type": "function"
    },
    {
      "inputs": [
        {
          "internalType": "string",
          "name": "_name",
          "type": "string"
        }
      ],
      "name": "registerArtist",
      "outputs": [],
      "stateMutability": "nonpayable",
      "type": "function"
    },
    {
      "inputs": [
        {
          "internalType": "string",
          "name": "_name",
          "type": "string"
        },
        {
          "internalType": "string",
          "name": "_filecid",
          "type": "string"
        },
        {
          "internalType": "uint256",
          "name": "_price",
          "type": "uint256"
        }
      ],
      "name": "createNFT",
      "outputs": [],
      "stateMutability": "nonpayable",
      "type": "function"
    },
    {
      "inputs": [
        {
          "internalType": "uint256",
          "name": "_id",
          "type": "uint256"
        }
      ],
      "name": "buyNFT",
      "outputs": [],
      "stateMutability": "payable",
      "type": "function"
    }
  ],
  "bytecode": "0x60806040523480156200001157600080fd5b506040518060400160405280601181526020017f476f6f6477696c6c436861696e204e46540000000000000000000000000000008152506040518060400160405280600381526020017f4757430000000000000000000000000000000000000000000000000000000000815250816000908051906020019062000096929190620001a6565b508060019080519060200190620000af929190620001a6565b505050620000d2620000c6620000d860201b60201c565b620000e060201b60201c565b620002bb565b600033905090565b6000600760009054906101000a900473ffffffffffffffffffffffffffffffffffffffff16905081600760006101000a81548173ffffffffffffffffffffffffffffffffffffffff021916908373ffffffffffffffffffffffffffffffffffffffff1602179055508173ffffffffffffffffffffffffffffffffffffffff168173ffffffffffffffffffffffffffffffffffffffff167f8be0079c531659141344cd1fd0a4f28419497f9722a3daafe3b4186f6b6457e060405160405180910390a35050565b828054620001b49062000256565b90600052602060002090601f016020900481019282620001d8576000855562000224565b82601f10620001f357805160ff191683800117855562000224565b8280016001018555821562000224579182015b828111156200022357825182559160200191906001019062000206565b5b50905062000233919062000237565b5090565b5b808211156200025257600081600090555060010162000238565b5090565b600060028204905060018216806200026f57607f821691505b602082108114156200028657620002856200028c565b5b50919050565b7f4e487b7100000000000000000000000000000000000000000000000000000000600052602260045260246000fd5b61400c80620002cb6000396000f3fe6080604052600436106101665760003560e01c8063715018a6116100d1578063b21d01901161008a578063c87b56dd11610064578063c87b56dd1461051e578063c89f2ce41461055b578063e985e9c514610586578063f2fde38b146105c357610166565b8063b21d0190146104a1578063b88d4fde146104ca578063b98a2c69146104f357610166565b8063715018a6146103b95780638da5cb5b146103d05780639355d419146103fb57806395d89b41146104245780639add4b791461044f578063a22cb4651461047857610166565b80633241d34a116101235780633241d34a146102a657806342842e0e146102cf57806351ed8288146102f857806353f9a873146103145780636352211e1461033f57806370a082311461037c57610166565b806301ffc9a71461016b57806306fdde03146101a8578063081812fc146101d3578063095ea7b31461021057806323b872dd14610239578063265aa62114610262575b600080fd5b34801561017757600080fd5b50610192600480360381019061018d9190612c0e565b6105ec565b60405161019f9190613242565b60405180910390f35b3480156101b457600080fd5b506101bd6106ce565b6040516101ca919061325d565b60405180910390f35b3480156101df57600080fd5b506101fa60048036038101906101f59190612d20565b610760565b6040516102079190613197565b60405180910390f35b34801561021c57600080fd5b5061023760048036038101906102329190612bd2565b6107e5565b005b34801561024557600080fd5b50610260600480360381019061025b9190612acc565b6108fd565b005b34801561026e57600080fd5b5061028960048036038101906102849190612d20565b61095d565b60405161029d989796959493929190613581565b60405180910390f35b3480156102b257600080fd5b506102cd60048036038101906102c89190612ca1565b610b8a565b005b3480156102db57600080fd5b506102f660048036038101906102f19190612acc565b610f7e565b005b610312600480360381019061030d9190612d20565b610f9e565b005b34801561032057600080fd5b50610329611239565b60405161033691906134ff565b60405180910390f35b34801561034b57600080fd5b5061036660048036038101906103619190612d20565b61123f565b6040516103739190613197565b60405180910390f35b34801561038857600080fd5b506103a3600480360381019061039e9190612a67565b6112f1565b6040516103b091906134ff565b60405180910390f35b3480156103c557600080fd5b506103ce6113a9565b005b3480156103dc57600080fd5b506103e5611431565b6040516103f29190613197565b60405180910390f35b34801561040757600080fd5b50610422600480360381019061041d9190612c60565b61145b565b005b34801561043057600080fd5b506104396114b2565b604051610446919061325d565b60405180910390f35b34801561045b57600080fd5b5061047660048036038101906104719190612a67565b611544565b005b34801561048457600080fd5b5061049f600480360381019061049a9190612b96565b611604565b005b3480156104ad57600080fd5b506104c860048036038101906104c39190612a67565b611785565b005b3480156104d657600080fd5b506104f160048036038101906104ec9190612b1b565b611845565b005b3480156104ff57600080fd5b506105086118a7565b60405161051591906131b2565b60405180910390f35b34801561052a57600080fd5b5061054560048036038101906105409190612d20565b6118cd565b604051610552919061325d565b60405180910390f35b34801561056757600080fd5b506105706118df565b60405161057d91906134ff565b60405180910390f35b34801561059257600080fd5b506105ad60048036038101906105a89190612a90565b6118e5565b6040516105ba9190613242565b60405180910390f35b3480156105cf57600080fd5b506105ea60048036038101906105e59190612a67565b611979565b005b60007f80ac58cd000000000000000000000000000000000000000000000000000000007bffffffffffffffffffffffffffffffffffffffffffffffffffffffff1916827bffffffffffffffffffffffffffffffffffffffffffffffffffffffff191614806106b757507f5b5e139f000000000000000000000000000000000000000000000000000000007bffffffffffffffffffffffffffffffffffffffffffffffffffffffff1916827bffffffffffffffffffffffffffffffffffffffffffffffffffffffff1916145b806106c757506106c682611a71565b5b9050919050565b6060600080546106dd90613888565b80601f016020809104026020016040519081016040528092919081815260200182805461070990613888565b80156107565780601f1061072b57610100808354040283529160200191610756565b820191906000526020600020905b81548152906001019060200180831161073957829003601f168201915b5050505050905090565b600061076b82611adb565b6107aa576040517f08c379a00000000000000000000000000000000000000000000000000000000081526004016107a19061341f565b60405180910390fd5b6004600083815260200190815260200160002060009054906101000a900473ffffffffffffffffffffffffffffffffffffffff169050919050565b60006107f08261123f565b90508073ffffffffffffffffffffffffffffffffffffffff168373ffffffffffffffffffffffffffffffffffffffff161415610861576040517f08c379a00000000000000000000000000000000000000000000000000000000081526004016108589061349f565b60405180910390fd5b8073ffffffffffffffffffffffffffffffffffffffff16610880611b47565b73ffffffffffffffffffffffffffffffffffffffff1614806108af57506108ae816108a9611b47565b6118e5565b5b6108ee576040517f08c379a00000000000000000000000000000000000000000000000000000000081526004016108e59061335f565b60405180910390fd5b6108f88383611b4f565b505050565b61090e610908611b47565b82611c08565b61094d576040517f08c379a0000000000000000000000000000000000000000000000000000000008152600401610944906134df565b60405180910390fd5b610958838383611ce6565b505050565b600d6020528060005260406000206000915090508060000154908060010154908060020160009054906101000a900460ff169080600301805461099f90613888565b80601f01602080910402602001604051908101604052809291908181526020018280546109cb90613888565b8015610a185780601f106109ed57610100808354040283529160200191610a18565b820191906000526020600020905b8154815290600101906020018083116109fb57829003601f168201915b505050505090806004018054610a2d90613888565b80601f0160208091040260200160405190810160405280929190818152602001828054610a5990613888565b8015610aa65780601f10610a7b57610100808354040283529160200191610aa6565b820191906000526020600020905b815481529060010190602001808311610a8957829003601f168201915b505050505090806005018054610abb90613888565b80601f0160208091040260200160405190810160405280929190818152602001828054610ae790613888565b8015610b345780601f10610b0957610100808354040283529160200191610b34565b820191906000526020600020905b815481529060010190602001808311610b1757829003601f168201915b5050505050908060060160009054906101000a900473ffffffffffffffffffffffffffffffffffffffff16908060070160009054906101000a900473ffffffffffffffffffffffffffffffffffffffff16905088565b60008351118015610b9c575060008251115b610bdb576040517f08c379a0000000000000000000000000000000000000000000000000000000008152600401610bd2906132bf565b60405180910390fd5b600a6000815480929190610bee906138eb565b9190505550604051806101000160405280600a548152602001828152602001600115158152602001848152602001838152602001600960003373ffffffffffffffffffffffffffffffffffffffff1673ffffffffffffffffffffffffffffffffffffffff1681526020019081526020016000208054610c6c90613888565b80601f0160208091040260200160405190810160405280929190818152602001828054610c9890613888565b8015610ce55780601f10610cba57610100808354040283529160200191610ce5565b820191906000526020600020905b815481529060010190602001808311610cc857829003601f168201915b505050505081526020013373ffffffffffffffffffffffffffffffffffffffff1681526020013373ffffffffffffffffffffffffffffffffffffffff16815250600d6000600a548152602001908152602001600020600082015181600001556020820151816001015560408201518160020160006101000a81548160ff0219169083151502179055506060820151816003019080519060200190610d8a92919061288b565b506080820151816004019080519060200190610da792919061288b565b5060a0820151816005019080519060200190610dc492919061288b565b5060c08201518160060160006101000a81548173ffffffffffffffffffffffffffffffffffffffff021916908373ffffffffffffffffffffffffffffffffffffffff16021790555060e08201518160070160006101000a81548173ffffffffffffffffffffffffffffffffffffffff021916908373ffffffffffffffffffffffffffffffffffffffff160217905550905050600860009054906101000a900473ffffffffffffffffffffffffffffffffffffffff1673ffffffffffffffffffffffffffffffffffffffff166340c10f1933670de0b6b3a76400006040518363ffffffff1660e01b8152600401610ebb929190613219565b600060405180830381600087803b158015610ed557600080fd5b505af1158015610ee9573d6000803e3d6000fd5b505050507f46105344ed3331765044bf4b72ec3e7a557e442f12f5ca07855f406b15eb7944600a54600d6000600a548152602001908152602001600020600301600d6000600a54815260200190815260200160002060070160009054906101000a900473ffffffffffffffffffffffffffffffffffffffff16604051610f7193929190613543565b60405180910390a1505050565b610f9983838360405180602001604052806000815250611845565b505050565b80600081118015610fb15750600a548111155b610fba57600080fd5b600d600083815260200190815260200160002060010154341015611013576040517f08c379a000000000000000000000000000000000000000000000000000000000815260040161100a906134bf565b60405180910390fd5b600c60009054906101000a900473ffffffffffffffffffffffffffffffffffffffff1673ffffffffffffffffffffffffffffffffffffffff166108fc349081150290604051600060405180830381858888f1935050505015801561107b573d6000803e3d6000fd5b5034600b5461108a91906136f3565b600b8190555061109a3383611f42565b61114282600d600085815260200190815260200160002060040180546110bf90613888565b80601f01602080910402602001604051908101604052809291908181526020018280546110eb90613888565b80156111385780601f1061110d57610100808354040283529160200191611138565b820191906000526020600020905b81548152906001019060200180831161111b57829003601f168201915b5050505050611f60565b33600d600084815260200190815260200160002060070160006101000a81548173ffffffffffffffffffffffffffffffffffffffff021916908373ffffffffffffffffffffffffffffffffffffffff1602179055506000600d600084815260200190815260200160002060020160006101000a81548160ff0219169083151502179055507f70f76b66a3d3b6796ada4c4cdb638e4fbe98b25d239c2c6f6c9c463da2d37cef82600d600085815260200190815260200160002060070160009054906101000a900473ffffffffffffffffffffffffffffffffffffffff1660405161122d92919061351a565b60405180910390a15050565b600a5481565b6000806002600084815260200190815260200160002060009054906101000a900473ffffffffffffffffffffffffffffffffffffffff169050600073ffffffffffffffffffffffffffffffffffffffff168173ffffffffffffffffffffffffffffffffffffffff1614156112e8576040517f08c379a00000000000000000000000000000000000000000000000000000000081526004016112df9061339f565b60405180910390fd5b80915050919050565b60008073ffffffffffffffffffffffffffffffffffffffff168273ffffffffffffffffffffffffffffffffffffffff161415611362576040517f08c379a00000000000000000000000000000000000000000000000000000000081526004016113599061337f565b60405180910390fd5b600360008373ffffffffffffffffffffffffffffffffffffffff1673ffffffffffffffffffffffffffffffffffffffff168152602001908152602001600020549050919050565b6113b1611b47565b73ffffffffffffffffffffffffffffffffffffffff166113cf611431565b73ffffffffffffffffffffffffffffffffffffffff1614611425576040517f08c379a000000000000000000000000000000000000000000000000000000000815260040161141c9061343f565b60405180910390fd5b61142f6000611fd4565b565b6000600760009054906101000a900473ffffffffffffffffffffffffffffffffffffffff16905090565b80600960003373ffffffffffffffffffffffffffffffffffffffff1673ffffffffffffffffffffffffffffffffffffffff16815260200190815260200160002090805190602001906114ae92919061288b565b5050565b6060600180546114c190613888565b80601f01602080910402602001604051908101604052809291908181526020018280546114ed90613888565b801561153a5780601f1061150f5761010080835404028352916020019161153a565b820191906000526020600020905b81548152906001019060200180831161151d57829003601f168201915b5050505050905090565b61154c611b47565b73ffffffffffffffffffffffffffffffffffffffff1661156a611431565b73ffffffffffffffffffffffffffffffffffffffff16146115c0576040517f08c379a00000000000000000000000000000000000000000000000000000000081526004016115b79061343f565b60405180910390fd5b80600860006101000a81548173ffffffffffffffffffffffffffffffffffffffff021916908373ffffffffffffffffffffffffffffffffffffffff16021790555050565b61160c611b47565b73ffffffffffffffffffffffffffffffffffffffff168273ffffffffffffffffffffffffffffffffffffffff16141561167a576040517f08c379a00000000000000000000000000000000000000000000000000000000081526004016116719061331f565b60405180910390fd5b8060056000611687611b47565b73ffffffffffffffffffffffffffffffffffffffff1673ffffffffffffffffffffffffffffffffffffffff16815260200190815260200160002060008473ffffffffffffffffffffffffffffffffffffffff1673ffffffffffffffffffffffffffffffffffffffff16815260200190815260200160002060006101000a81548160ff0219169083151502179055508173ffffffffffffffffffffffffffffffffffffffff16611734611b47565b73ffffffffffffffffffffffffffffffffffffffff167f17307eab39ab6107e8899845ad3d59bd9653f200f220920489ca2b5937696c31836040516117799190613242565b60405180910390a35050565b61178d611b47565b73ffffffffffffffffffffffffffffffffffffffff166117ab611431565b73ffffffffffffffffffffffffffffffffffffffff1614611801576040517f08c379a00000000000000000000000000000000000000000000000000000000081526004016117f89061343f565b60405180910390fd5b80600c60006101000a81548173ffffffffffffffffffffffffffffffffffffffff021916908373ffffffffffffffffffffffffffffffffffffffff16021790555050565b611856611850611b47565b83611c08565b611895576040517f08c379a000000000000000000000000000000000000000000000000000000000815260040161188c906134df565b60405180910390fd5b6118a18484848461209a565b50505050565b600c60009054906101000a900473ffffffffffffffffffffffffffffffffffffffff1681565b60606118d8826120f6565b9050919050565b600b5481565b6000600560008473ffffffffffffffffffffffffffffffffffffffff1673ffffffffffffffffffffffffffffffffffffffff16815260200190815260200160002060008373ffffffffffffffffffffffffffffffffffffffff1673ffffffffffffffffffffffffffffffffffffffff16815260200190815260200160002060009054906101000a900460ff16905092915050565b611981611b47565b73ffffffffffffffffffffffffffffffffffffffff1661199f611431565b73ffffffffffffffffffffffffffffffffffffffff16146119f5576040517f08c379a00000000000000000000000000000000000000000000000000000000081526004016119ec9061343f565b60405180910390fd5b600073ffffffffffffffffffffffffffffffffffffffff168173ffffffffffffffffffffffffffffffffffffffff161415611a65576040517f08c379a0000000000000000000000000000000000000000000000000000000008152600401611a5c9061329f565b60405180910390fd5b611a6e81611fd4565b50565b60007f01ffc9a7000000000000000000000000000000000000000000000000000000007bffffffffffffffffffffffffffffffffffffffffffffffffffffffff1916827bffffffffffffffffffffffffffffffffffffffffffffffffffffffff1916149050919050565b60008073ffffffffffffffffffffffffffffffffffffffff166002600084815260200190815260200160002060009054906101000a900473ffffffffffffffffffffffffffffffffffffffff1673ffffffffffffffffffffffffffffffffffffffff1614159050919050565b600033905090565b816004600083815260200190815260200160002060006101000a81548173ffffffffffffffffffffffffffffffffffffffff021916908373ffffffffffffffffffffffffffffffffffffffff160217905550808273ffffffffffffffffffffffffffffffffffffffff16611bc28361123f565b73ffffffffffffffffffffffffffffffffffffffff167f8c5be1e5ebec7d5bd14f71427d1e84f3dd0314c0f7b2291e5b200ac8c7c3b92560405160405180910390a45050565b6000611c1382611adb565b611c52576040517f08c379a0000000000000000000000000000000000000000000000000000000008152600401611c499061333f565b60405180910390fd5b6000611c5d8361123f565b90508073ffffffffffffffffffffffffffffffffffffffff168473ffffffffffffffffffffffffffffffffffffffff161480611ccc57508373ffffffffffffffffffffffffffffffffffffffff16611cb484610760565b73ffffffffffffffffffffffffffffffffffffffff16145b80611cdd5750611cdc81856118e5565b5b91505092915050565b8273ffffffffffffffffffffffffffffffffffffffff16611d068261123f565b73ffffffffffffffffffffffffffffffffffffffff1614611d5c576040517f08c379a0000000000000000000000000000000000000000000000000000000008152600401611d539061345f565b60405180910390fd5b600073ffffffffffffffffffffffffffffffffffffffff168273ffffffffffffffffffffffffffffffffffffffff161415611dcc576040517f08c379a0000000000000000000000000000000000000000000000000000000008152600401611dc3906132ff565b60405180910390fd5b611dd7838383612248565b611de2600082611b4f565b6001600360008573ffffffffffffffffffffffffffffffffffffffff1673ffffffffffffffffffffffffffffffffffffffff1681526020019081526020016000206000828254611e32919061377a565b925050819055506001600360008473ffffffffffffffffffffffffffffffffffffffff1673ffffffffffffffffffffffffffffffffffffffff1681526020019081526020016000206000828254611e8991906136f3565b92505081905550816002600083815260200190815260200160002060006101000a81548173ffffffffffffffffffffffffffffffffffffffff021916908373ffffffffffffffffffffffffffffffffffffffff160217905550808273ffffffffffffffffffffffffffffffffffffffff168473ffffffffffffffffffffffffffffffffffffffff167fddf252ad1be2c89b69c2b068fc378daa952ba7f163c4a11628f55a4df523b3ef60405160405180910390a4505050565b611f5c82826040518060200160405280600081525061224d565b5050565b611f6982611adb565b611fa8576040517f08c379a0000000000000000000000000000000000000000000000000000000008152600401611f9f906133bf565b60405180910390fd5b80600660008481526020019081526020016000209080519060200190611fcf92919061288b565b505050565b6000600760009054906101000a900473ffffffffffffffffffffffffffffffffffffffff16905081600760006101000a81548173ffffffffffffffffffffffffffffffffffffffff021916908373ffffffffffffffffffffffffffffffffffffffff1602179055508173ffffffffffffffffffffffffffffffffffffffff168173ffffffffffffffffffffffffffffffffffffffff167f8be0079c531659141344cd1fd0a4f28419497f9722a3daafe3b4186f6b6457e060405160405180910390a35050565b6120a5848484611ce6565b6120b1848484846122a8565b6120f0576040517f08c379a00000000000000000000000000000000000000000000000000000000081526004016120e79061327f565b60405180910390fd5b50505050565b606061210182611adb565b612140576040517f08c379a0000000000000000000000000000000000000000000000000000000008152600401612137906133ff565b60405180910390fd5b600060066000848152602001908152602001600020805461216090613888565b80601f016020809104026020016040519081016040528092919081815260200182805461218c90613888565b80156121d95780601f106121ae576101008083540402835291602001916121d9565b820191906000526020600020905b8154815290600101906020018083116121bc57829003601f168201915b5050505050905060006121ea61243f565b9050600081511415612200578192505050612243565b60008251111561223557808260405160200161221d929190613173565b60405160208183030381529060405292505050612243565b61223e84612456565b925050505b919050565b505050565b61225783836124fd565b61226460008484846122a8565b6122a3576040517f08c379a000000000000000000000000000000000000000000000000000000000815260040161229a9061327f565b60405180910390fd5b505050565b60006122c98473ffffffffffffffffffffffffffffffffffffffff166126cb565b15612432578373ffffffffffffffffffffffffffffffffffffffff1663150b7a026122f2611b47565b8786866040518563ffffffff1660e01b815260040161231494939291906131cd565b602060405180830381600087803b15801561232e57600080fd5b505af192505050801561235f57506040513d601f19601f8201168201806040525081019061235c9190612c37565b60015b6123e2573d806000811461238f576040519150601f19603f3d011682016040523d82523d6000602084013e612394565b606091505b506000815114156123da576040517f08c379a00000000000000000000000000000000000000000000000000000000081526004016123d19061327f565b60405180910390fd5b805181602001fd5b63150b7a0260e01b7bffffffffffffffffffffffffffffffffffffffffffffffffffffffff1916817bffffffffffffffffffffffffffffffffffffffffffffffffffffffff191614915050612437565b600190505b949350505050565b606060405180602001604052806000815250905090565b606061246182611adb565b6124a0576040517f08c379a00000000000000000000000000000000000000000000000000000000081526004016124979061347f565b60405180910390fd5b60006124aa61243f565b905060008151116124ca57604051806020016040528060008152506124f5565b806124d4846126de565b6040516020016124e5929190613173565b6040516020818303038152906040525b915050919050565b600073ffffffffffffffffffffffffffffffffffffffff168273ffffffffffffffffffffffffffffffffffffffff16141561256d576040517f08c379a0000000000000000000000000000000000000000000000000000000008152600401612564906133df565b60405180910390fd5b61257681611adb565b156125b6576040517f08c379a00000000000000000000000000000000000000000000000000000000081526004016125ad906132df565b60405180910390fd5b6125c260008383612248565b6001600360008473ffffffffffffffffffffffffffffffffffffffff1673ffffffffffffffffffffffffffffffffffffffff168152602001908152602001600020600082825461261291906136f3565b92505081905550816002600083815260200190815260200160002060006101000a81548173ffffffffffffffffffffffffffffffffffffffff021916908373ffffffffffffffffffffffffffffffffffffffff160217905550808273ffffffffffffffffffffffffffffffffffffffff16600073ffffffffffffffffffffffffffffffffffffffff167fddf252ad1be2c89b69c2b068fc378daa952ba7f163c4a11628f55a4df523b3ef60405160405180910390a45050565b600080823b905060008111915050919050565b60606000821415612726576040518060400160405280600181526020017f30000000000000000000000000000000000000000000000000000000000000008152509050612886565b600082905060005b60008214612758578080612741906138eb565b915050600a826127519190613749565b915061272e565b60008167ffffffffffffffff81111561279a577f4e487b7100000000000000000000000000000000000000000000000000000000600052604160045260246000fd5b6040519080825280601f01601f1916602001820160405280156127cc5781602001600182028036833780820191505090505b5090505b6000851461287f576001826127e5919061377a565b9150600a856127f49190613934565b603061280091906136f3565b60f81b81838151811061283c577f4e487b7100000000000000000000000000000000000000000000000000000000600052603260045260246000fd5b60200101907effffffffffffffffffffffffffffffffffffffffffffffffffffffffffffff1916908160001a905350600a856128789190613749565b94506127d0565b8093505050505b919050565b82805461289790613888565b90600052602060002090601f0160209004810192826128b95760008555612900565b82601f106128d257805160ff1916838001178555612900565b82800160010185558215612900579182015b828111156128ff5782518255916020019190600101906128e4565b5b50905061290d9190612911565b5090565b5b8082111561292a576000816000905550600101612912565b5090565b600061294161293c84613639565b613614565b90508281526020810184848401111561295957600080fd5b612964848285613846565b509392505050565b600061297f61297a8461366a565b613614565b90508281526020810184848401111561299757600080fd5b6129a2848285613846565b509392505050565b6000813590506129b981613f7a565b92915050565b6000813590506129ce81613f91565b92915050565b6000813590506129e381613fa8565b92915050565b6000815190506129f881613fa8565b92915050565b600082601f830112612a0f57600080fd5b8135612a1f84826020860161292e565b91505092915050565b600082601f830112612a3957600080fd5b8135612a4984826020860161296c565b91505092915050565b600081359050612a6181613fbf565b92915050565b600060208284031215612a7957600080fd5b6000612a87848285016129aa565b91505092915050565b60008060408385031215612aa357600080fd5b6000612ab1858286016129aa565b9250506020612ac2858286016129aa565b9150509250929050565b600080600060608486031215612ae157600080fd5b6000612aef868287016129aa565b9350506020612b00868287016129aa565b9250506040612b1186828701612a52565b9150509250925092565b60008060008060808587031215612b3157600080fd5b6000612b3f878288016129aa565b9450506020612b50878288016129aa565b9350506040612b6187828801612a52565b925050606085013567ffffffffffffffff811115612b7e57600080fd5b612b8a878288016129fe565b91505092959194509250565b60008060408385031215612ba957600080fd5b6000612bb7858286016129aa565b9250506020612bc8858286016129bf565b9150509250929050565b60008060408385031215612be557600080fd5b6000612bf3858286016129aa565b9250506020612c0485828601612a52565b9150509250929050565b600060208284031215612c2057600080fd5b6000612c2e848285016129d4565b91505092915050565b600060208284031215612c4957600080fd5b6000612c57848285016129e9565b91505092915050565b600060208284031215612c7257600080fd5b600082013567ffffffffffffffff811115612c8c57600080fd5b612c9884828501612a28565b91505092915050565b600080600060608486031215612cb657600080fd5b600084013567ffffffffffffffff811115612cd057600080fd5b612cdc86828701612a28565b935050602084013567ffffffffffffffff811115612cf957600080fd5b612d0586828701612a28565b9250506040612d1686828701612a52565b9150509250925092565b600060208284031215612d3257600080fd5b6000612d4084828501612a52565b91505092915050565b612d52816137c0565b82525050565b612d61816137ae565b82525050565b612d70816137d2565b82525050565b6000612d81826136b0565b612d8b81856136c6565b9350612d9b818560208601613855565b612da481613a21565b840191505092915050565b612db881613834565b82525050565b6000612dc9826136bb565b612dd381856136d7565b9350612de3818560208601613855565b612dec81613a21565b840191505092915050565b6000612e02826136bb565b612e0c81856136e8565b9350612e1c818560208601613855565b80840191505092915050565b60008154612e3581613888565b612e3f81866136d7565b94506001821660008114612e5a5760018114612e6c57612e9f565b60ff1983168652602086019350612e9f565b612e758561369b565b60005b83811015612e9757815481890152600182019150602081019050612e78565b808801955050505b50505092915050565b6000612eb56032836136d7565b9150612ec082613a32565b604082019050919050565b6000612ed86026836136d7565b9150612ee382613a81565b604082019050919050565b6000612efb6016836136d7565b9150612f0682613ad0565b602082019050919050565b6000612f1e601c836136d7565b9150612f2982613af9565b602082019050919050565b6000612f416024836136d7565b9150612f4c82613b22565b604082019050919050565b6000612f646019836136d7565b9150612f6f82613b71565b602082019050919050565b6000612f87602c836136d7565b9150612f9282613b9a565b604082019050919050565b6000612faa6038836136d7565b9150612fb582613be9565b604082019050919050565b6000612fcd602a836136d7565b9150612fd882613c38565b604082019050919050565b6000612ff06029836136d7565b9150612ffb82613c87565b604082019050919050565b6000613013602e836136d7565b915061301e82613cd6565b604082019050919050565b60006130366020836136d7565b915061304182613d25565b602082019050919050565b60006130596031836136d7565b915061306482613d4e565b604082019050919050565b600061307c602c836136d7565b915061308782613d9d565b604082019050919050565b600061309f6020836136d7565b91506130aa82613dec565b602082019050919050565b60006130c26029836136d7565b91506130cd82613e15565b604082019050919050565b60006130e5602f836136d7565b91506130f082613e64565b604082019050919050565b60006131086021836136d7565b915061311382613eb3565b604082019050919050565b600061312b6013836136d7565b915061313682613f02565b602082019050919050565b600061314e6031836136d7565b915061315982613f2b565b604082019050919050565b61316d8161382a565b82525050565b600061317f8285612df7565b915061318b8284612df7565b91508190509392505050565b60006020820190506131ac6000830184612d58565b92915050565b60006020820190506131c76000830184612d49565b92915050565b60006080820190506131e26000830187612d58565b6131ef6020830186612d58565b6131fc6040830185613164565b818103606083015261320e8184612d76565b905095945050505050565b600060408201905061322e6000830185612d58565b61323b6020830184612daf565b9392505050565b60006020820190506132576000830184612d67565b92915050565b600060208201905081810360008301526132778184612dbe565b905092915050565b6000602082019050818103600083015261329881612ea8565b9050919050565b600060208201905081810360008301526132b881612ecb565b9050919050565b600060208201905081810360008301526132d881612eee565b9050919050565b600060208201905081810360008301526132f881612f11565b9050919050565b6000602082019050818103600083015261331881612f34565b9050919050565b6000602082019050818103600083015261333881612f57565b9050919050565b6000602082019050818103600083015261335881612f7a565b9050919050565b6000602082019050818103600083015261337881612f9d565b9050919050565b6000602082019050818103600083015261339881612fc0565b9050919050565b600060208201905081810360008301526133b881612fe3565b9050919050565b600060208201905081810360008301526133d881613006565b9050919050565b600060208201905081810360008301526133f881613029565b9050919050565b600060208201905081810360008301526134188161304c565b9050919050565b600060208201905081810360008301526134388161306f565b9050919050565b6000602082019050818103600083015261345881613092565b9050919050565b60006020820190508181036000830152613478816130b5565b9050919050565b60006020820190508181036000830152613498816130d8565b9050919050565b600060208201905081810360008301526134b8816130fb565b9050919050565b600060208201905081810360008301526134d88161311e565b9050919050565b600060208201905081810360008301526134f881613141565b9050919050565b60006020820190506135146000830184613164565b92915050565b600060408201905061352f6000830185613164565b61353c6020830184612d58565b9392505050565b60006060820190506135586000830186613164565b818103602083015261356a8185612e28565b90506135796040830184612d58565b949350505050565b600061010082019050613597600083018b613164565b6135a4602083018a613164565b6135b16040830189612d67565b81810360608301526135c38188612dbe565b905081810360808301526135d78187612dbe565b905081810360a08301526135eb8186612dbe565b90506135fa60c0830185612d58565b61360760e0830184612d58565b9998505050505050505050565b600061361e61362f565b905061362a82826138ba565b919050565b6000604051905090565b600067ffffffffffffffff821115613654576136536139f2565b5b61365d82613a21565b9050602081019050919050565b600067ffffffffffffffff821115613685576136846139f2565b5b61368e82613a21565b9050602081019050919050565b60008190508160005260206000209050919050565b600081519050919050565b600081519050919050565b600082825260208201905092915050565b600082825260208201905092915050565b600081905092915050565b60006136fe8261382a565b91506137098361382a565b9250827fffffffffffffffffffffffffffffffffffffffffffffffffffffffffffffffff0382111561373e5761373d613965565b5b828201905092915050565b60006137548261382a565b915061375f8361382a565b92508261376f5761376e613994565b5b828204905092915050565b60006137858261382a565b91506137908361382a565b9250828210156137a3576137a2613965565b5b828203905092915050565b60006137b98261380a565b9050919050565b60006137cb8261380a565b9050919050565b60008115159050919050565b60007fffffffff0000000000000000000000000000000000000000000000000000000082169050919050565b600073ffffffffffffffffffffffffffffffffffffffff82169050919050565b6000819050919050565b600061383f8261382a565b9050919050565b82818337600083830152505050565b60005b83811015613873578082015181840152602081019050613858565b83811115613882576000848401525b50505050565b600060028204905060018216806138a057607f821691505b602082108114156138b4576138b36139c3565b5b50919050565b6138c382613a21565b810181811067ffffffffffffffff821117156138e2576138e16139f2565b5b80604052505050565b60006138f68261382a565b91507fffffffffffffffffffffffffffffffffffffffffffffffffffffffffffffffff82141561392957613928613965565b5b600182019050919050565b600061393f8261382a565b915061394a8361382a565b92508261395a57613959613994565b5b828206905092915050565b7f4e487b7100000000000000000000000000000000000000000000000000000000600052601160045260246000fd5b7f4e487b7100000000000000000000000000000000000000000000000000000000600052601260045260246000fd5b7f4e487b7100000000000000000000000000000000000000000000000000000000600052602260045260246000fd5b7f4e487b7100000000000000000000000000000000000000000000000000000000600052604160045260246000fd5b6000601f19601f8301169050919050565b7f4552433732313a207472616e7366657220746f206e6f6e20455243373231526560008201527f63656976657220696d706c656d656e7465720000000000000000000000000000602082015250565b7f4f776e61626c653a206e6577206f776e657220697320746865207a65726f206160008201527f6464726573730000000000000000000000000000000000000000000000000000602082015250565b7f4e616d6520616e642066696c6520726571756972656400000000000000000000600082015250565b7f4552433732313a20746f6b656e20616c7265616479206d696e74656400000000600082015250565b7f4552433732313a207472616e7366657220746f20746865207a65726f2061646460008201527f7265737300000000000000000000000000000000000000000000000000000000602082015250565b7f4552433732313a20617070726f766520746f2063616c6c657200000000000000600082015250565b7f4552433732313a206f70657261746f7220717565727920666f72206e6f6e657860008201527f697374656e7420746f6b656e0000000000000000000000000000000000000000602082015250565b7f4552433732313a20617070726f76652063616c6c6572206973206e6f74206f7760008201527f6e6572206e6f7220617070726f76656420666f7220616c6c0000000000000000602082015250565b7f4552433732313a2062616c616e636520717565727920666f7220746865207a6560008201527f726f206164647265737300000000000000000000000000000000000000000000602082015250565b7f4552433732313a206f776e657220717565727920666f72206e6f6e657869737460008201527f656e7420746f6b656e0000000000000000000000000000000000000000000000602082015250565b7f45524337323155524953746f726167653a2055524920736574206f66206e6f6e60008201527f6578697374656e7420746f6b656e000000000000000000000000000000000000602082015250565b7f4552433732313a206d696e7420746f20746865207a65726f2061646472657373600082015250565b7f45524337323155524953746f726167653a2055524920717565727920666f722060008201527f6e6f6e6578697374656e7420746f6b656e000000000000000000000000000000602082015250565b7f4552433732313a20617070726f76656420717565727920666f72206e6f6e657860008201527f697374656e7420746f6b656e0000000000000000000000000000000000000000602082015250565b7f4f776e61626c653a2063616c6c6572206973206e6f7420746865206f776e6572600082015250565b7f4552433732313a207472616e73666572206f6620746f6b656e2074686174206960008201527f73206e6f74206f776e0000000000000000000000000000000000000000000000602082015250565b7f4552433732314d657461646174613a2055524920717565727920666f72206e6f60008201527f6e6578697374656e7420746f6b656e0000000000000000000000000000000000602082015250565b7f4552433732313a20617070726f76616c20746f2063757272656e74206f776e6560008201527f7200000000000000000000000000000000000000000000000000000000000000602082015250565b7f496e73756666696369656e7420616d6f756e7400000000000000000000000000600082015250565b7f4552433732313a207472616e736665722063616c6c6572206973206e6f74206f60008201527f776e6572206e6f7220617070726f766564000000000000000000000000000000602082015250565b613f83816137ae565b8114613f8e57600080fd5b50565b613f9a816137d2565b8114613fa557600080fd5b50565b613fb1816137de565b8114613fbc57600080fd5b50565b613fc88161382a565b8114613fd357600080fd5b5056fea26469706673582212200521e5906448f7a026007f0cbed8604f22228101c23d533ffa56aa2a486a22a464736f6c63430008020033",
  "immutableReferences": {},
  "source": "// SPDX-License-Identifier: MIT\r\npragma solidity ^0.8.0;\r\n\r\nimport \"@openzeppelin/contracts/access/Ownable.sol\";\r\nimport \"@openzeppelin/contracts/token/ERC721/ERC721.sol\";\r\nimport \"@openzeppelin/contracts/token/ERC721/extensions/ERC721URIStorage.sol\";\r\n\r\ninterface IGCToken {\r\n  function mint(address to, uint256 amount) external;\r\n}\r\n\r\ncontract GoodwillChainMain is ERC721, ERC721URIStorage, Ownable {\r\n\r\n  address gctAddress;\r\n  mapping(address => string) artists;\r\n\r\n  uint public tCount;\r\n  uint public funds;\r\n  address payable public org_address;\r\n\r\n  mapping(uint => NFT) public nfts;\r\n\r\n  struct NFT {\r\n    uint id;\r\n    uint price;\r\n    bool isListed;\r\n    string name;\r\n    string filecid;\r\n    string aName;\r\n    address artist;\r\n    address owner;\r\n  }\r\n\r\n  constructor() ERC721(\"GoodwillChain NFT\", \"GWC\") { }\r\n\r\n  modifier idExists(uint id) {\r\n    require(id > 0 && id <= tCount);\r\n    _;\r\n  }\r\n\r\n  event createdNFT(\r\n    uint id,\r\n    string name,\r\n    address owner\r\n  );\r\n\r\n  event setNFTPrice(\r\n    uint id,\r\n    uint newPrice,\r\n    bool listed\r\n  );\r\n\r\n  event offerApproved(\r\n    uint id,\r\n    uint nftID,\r\n    uint amount,\r\n    bool approved\r\n  );\r\n\r\n  event boughtNFT(\r\n    uint id,\r\n    address buyer\r\n  );\r\n\r\n  function _burn(uint256 tokenId) internal override(ERC721, ERC721URIStorage) {\r\n      super._burn(tokenId);\r\n  }\r\n\r\n  function tokenURI(uint256 tokenId)\r\n      public\r\n      view\r\n      override(ERC721, ERC721URIStorage)\r\n      returns (string memory)\r\n  {\r\n      return super.tokenURI(tokenId);\r\n  }\r\n\r\n  function setGCTAddress(address _gctAddress) external onlyOwner {\r\n    gctAddress = _gctAddress;\r\n  }\r\n\r\n  function setOrgAddress(address _org_address) external onlyOwner {\r\n    org_address = payable(_org_address);\r\n  }\r\n\r\n  function registerArtist(string memory _name) external {\r\n    artists[msg.sender] = _name;\r\n  }\r\n\r\n  function createNFT(string memory _name, string memory _filecid, uint256 _price) external {\r\n    require(bytes(_name).length > 0 && bytes(_filecid).length > 0, \"Name and file required\");\r\n    tCount++;\r\n    nfts[tCount] = NFT(tCount, _price, true, _name, _filecid, artists[msg.sender], msg.sender, msg.sender);\r\n    IGCToken(gctAddress).mint(msg.sender, 1 ether);\r\n    emit createdNFT(tCount, nfts[tCount].name, nfts[tCount].owner);\r\n  }\r\n\r\n  function buyNFT(uint _id) external payable idExists(_id) {\r\n    require(msg.value >= nfts[_id].price, \"Insufficient amount\");\r\n    org_address.transfer(msg.value);\r\n    funds = funds + msg.value;\r\n    _safeMint(msg.sender, _id);\r\n    _setTokenURI(_id, nfts[_id].filecid);\r\n    nfts[_id].owner = msg.sender;\r\n    nfts[_id].isListed = false;\r\n    emit boughtNFT(_id, nfts[_id].owner);\r\n  }\r\n}\r\n",
  "sourcePath": "D:/Hackathons/Devfolio online/HFT/GoodWill-Chain/contracts/GoodwillChainMain.sol",
  "compiler": {
    "name": "solc",
    "version": "0.8.2+commit.661d1103.Emscripten.clang"
  },
  "schemaVersion": "3.4.1",
  "updatedAt": "2021-11-27T16:47:48.568Z",
  "devdoc": {
    "kind": "dev",
    "methods": {
      "approve(address,uint256)": {
        "details": "See {IERC721-approve}."
      },
      "balanceOf(address)": {
        "details": "See {IERC721-balanceOf}."
      },
      "getApproved(uint256)": {
        "details": "See {IERC721-getApproved}."
      },
      "isApprovedForAll(address,address)": {
        "details": "See {IERC721-isApprovedForAll}."
      },
      "name()": {
        "details": "See {IERC721Metadata-name}."
      },
      "owner()": {
        "details": "Returns the address of the current owner."
      },
      "ownerOf(uint256)": {
        "details": "See {IERC721-ownerOf}."
      },
      "renounceOwnership()": {
        "details": "Leaves the contract without owner. It will not be possible to call `onlyOwner` functions anymore. Can only be called by the current owner. NOTE: Renouncing ownership will leave the contract without an owner, thereby removing any functionality that is only available to the owner."
      },
      "safeTransferFrom(address,address,uint256)": {
        "details": "See {IERC721-safeTransferFrom}."
      },
      "safeTransferFrom(address,address,uint256,bytes)": {
        "details": "See {IERC721-safeTransferFrom}."
      },
      "setApprovalForAll(address,bool)": {
        "details": "See {IERC721-setApprovalForAll}."
      },
      "supportsInterface(bytes4)": {
        "details": "See {IERC165-supportsInterface}."
      },
      "symbol()": {
        "details": "See {IERC721Metadata-symbol}."
      },
      "transferFrom(address,address,uint256)": {
        "details": "See {IERC721-transferFrom}."
      },
      "transferOwnership(address)": {
        "details": "Transfers ownership of the contract to a new account (`newOwner`). Can only be called by the current owner."
      }
    },
    "version": 1
  },
  "userdoc": {
    "kind": "user",
    "methods": {},
    "version": 1
  }
}