{
  "contractName": "GoodwillChain",
  "abi": [
    {
      "inputs": [],
      "stateMutability": "nonpayable",
      "type": "constructor"
    },
    {
      "anonymous": false,
      "inputs": [
        {
          "indexed": true,
          "internalType": "address",
          "name": "owner",
          "type": "address"
        },
        {
          "indexed": true,
          "internalType": "address",
          "name": "approved",
          "type": "address"
        },
        {
          "indexed": true,
          "internalType": "uint256",
          "name": "tokenId",
          "type": "uint256"
        }
      ],
      "name": "Approval",
      "type": "event"
    },
    {
      "anonymous": false,
      "inputs": [
        {
          "indexed": true,
          "internalType": "address",
          "name": "owner",
          "type": "address"
        },
        {
          "indexed": true,
          "internalType": "address",
          "name": "operator",
          "type": "address"
        },
        {
          "indexed": false,
          "internalType": "bool",
          "name": "approved",
          "type": "bool"
        }
      ],
      "name": "ApprovalForAll",
      "type": "event"
    },
    {
      "anonymous": false,
      "inputs": [
        {
          "indexed": true,
          "internalType": "address",
          "name": "previousOwner",
          "type": "address"
        },
        {
          "indexed": true,
          "internalType": "address",
          "name": "newOwner",
          "type": "address"
        }
      ],
      "name": "OwnershipTransferred",
      "type": "event"
    },
    {
      "anonymous": false,
      "inputs": [
        {
          "indexed": true,
          "internalType": "address",
          "name": "from",
          "type": "address"
        },
        {
          "indexed": true,
          "internalType": "address",
          "name": "to",
          "type": "address"
        },
        {
          "indexed": true,
          "internalType": "uint256",
          "name": "tokenId",
          "type": "uint256"
        }
      ],
      "name": "Transfer",
      "type": "event"
    },
    {
      "anonymous": false,
      "inputs": [
        {
          "indexed": false,
          "internalType": "uint256",
          "name": "id",
          "type": "uint256"
        },
        {
          "indexed": false,
          "internalType": "address",
          "name": "buyer",
          "type": "address"
        }
      ],
      "name": "boughtTrack",
      "type": "event"
    },
    {
      "anonymous": false,
      "inputs": [
        {
          "indexed": false,
          "internalType": "uint256",
          "name": "id",
          "type": "uint256"
        },
        {
          "indexed": false,
          "internalType": "string",
          "name": "name",
          "type": "string"
        },
        {
          "indexed": false,
          "internalType": "address",
          "name": "owner",
          "type": "address"
        }
      ],
      "name": "createdNFT",
      "type": "event"
    },
    {
      "anonymous": false,
      "inputs": [
        {
          "indexed": false,
          "internalType": "uint256",
          "name": "id",
          "type": "uint256"
        },
        {
          "indexed": false,
          "internalType": "uint256",
          "name": "nftID",
          "type": "uint256"
        },
        {
          "indexed": false,
          "internalType": "uint256",
          "name": "amount",
          "type": "uint256"
        },
        {
          "indexed": false,
          "internalType": "bool",
          "name": "approved",
          "type": "bool"
        }
      ],
      "name": "offerApproved",
      "type": "event"
    },
    {
      "anonymous": false,
      "inputs": [
        {
          "indexed": false,
          "internalType": "uint256",
          "name": "id",
          "type": "uint256"
        },
        {
          "indexed": false,
          "internalType": "uint256",
          "name": "newPrice",
          "type": "uint256"
        },
        {
          "indexed": false,
          "internalType": "bool",
          "name": "listed",
          "type": "bool"
        }
      ],
      "name": "setNFTPrice",
      "type": "event"
    },
    {
      "inputs": [
        {
          "internalType": "address",
          "name": "to",
          "type": "address"
        },
        {
          "internalType": "uint256",
          "name": "tokenId",
          "type": "uint256"
        }
      ],
      "name": "approve",
      "outputs": [],
      "stateMutability": "nonpayable",
      "type": "function"
    },
    {
      "inputs": [
        {
          "internalType": "address",
          "name": "owner",
          "type": "address"
        }
      ],
      "name": "balanceOf",
      "outputs": [
        {
          "internalType": "uint256",
          "name": "",
          "type": "uint256"
        }
      ],
      "stateMutability": "view",
      "type": "function"
    },
    {
      "inputs": [],
      "name": "baseURI",
      "outputs": [
        {
          "internalType": "string",
          "name": "",
          "type": "string"
        }
      ],
      "stateMutability": "view",
      "type": "function"
    },
    {
      "inputs": [],
      "name": "funds",
      "outputs": [
        {
          "internalType": "uint256",
          "name": "",
          "type": "uint256"
        }
      ],
      "stateMutability": "view",
      "type": "function"
    },
    {
      "inputs": [
        {
          "internalType": "uint256",
          "name": "tokenId",
          "type": "uint256"
        }
      ],
      "name": "getApproved",
      "outputs": [
        {
          "internalType": "address",
          "name": "",
          "type": "address"
        }
      ],
      "stateMutability": "view",
      "type": "function"
    },
    {
      "inputs": [
        {
          "internalType": "address",
          "name": "owner",
          "type": "address"
        },
        {
          "internalType": "address",
          "name": "operator",
          "type": "address"
        }
      ],
      "name": "isApprovedForAll",
      "outputs": [
        {
          "internalType": "bool",
          "name": "",
          "type": "bool"
        }
      ],
      "stateMutability": "view",
      "type": "function"
    },
    {
      "inputs": [],
      "name": "name",
      "outputs": [
        {
          "internalType": "string",
          "name": "",
          "type": "string"
        }
      ],
      "stateMutability": "view",
      "type": "function"
    },
    {
      "inputs": [
        {
          "internalType": "uint256",
          "name": "",
          "type": "uint256"
        }
      ],
      "name": "nfts",
      "outputs": [
        {
          "internalType": "uint256",
          "name": "id",
          "type": "uint256"
        },
        {
          "internalType": "uint256",
          "name": "price",
          "type": "uint256"
        },
        {
          "internalType": "bool",
          "name": "isListed",
          "type": "bool"
        },
        {
          "internalType": "string",
          "name": "name",
          "type": "string"
        },
        {
          "internalType": "string",
          "name": "filecid",
          "type": "string"
        },
        {
          "internalType": "string",
          "name": "aName",
          "type": "string"
        },
        {
          "internalType": "address",
          "name": "artist",
          "type": "address"
        },
        {
          "internalType": "address",
          "name": "owner",
          "type": "address"
        }
      ],
      "stateMutability": "view",
      "type": "function"
    },
    {
      "inputs": [],
      "name": "owner",
      "outputs": [
        {
          "internalType": "address",
          "name": "",
          "type": "address"
        }
      ],
      "stateMutability": "view",
      "type": "function"
    },
    {
      "inputs": [
        {
          "internalType": "uint256",
          "name": "tokenId",
          "type": "uint256"
        }
      ],
      "name": "ownerOf",
      "outputs": [
        {
          "internalType": "address",
          "name": "",
          "type": "address"
        }
      ],
      "stateMutability": "view",
      "type": "function"
    },
    {
      "inputs": [],
      "name": "renounceOwnership",
      "outputs": [],
      "stateMutability": "nonpayable",
      "type": "function"
    },
    {
      "inputs": [
        {
          "internalType": "address",
          "name": "from",
          "type": "address"
        },
        {
          "internalType": "address",
          "name": "to",
          "type": "address"
        },
        {
          "internalType": "uint256",
          "name": "tokenId",
          "type": "uint256"
        }
      ],
      "name": "safeTransferFrom",
      "outputs": [],
      "stateMutability": "nonpayable",
      "type": "function"
    },
    {
      "inputs": [
        {
          "internalType": "address",
          "name": "from",
          "type": "address"
        },
        {
          "internalType": "address",
          "name": "to",
          "type": "address"
        },
        {
          "internalType": "uint256",
          "name": "tokenId",
          "type": "uint256"
        },
        {
          "internalType": "bytes",
          "name": "_data",
          "type": "bytes"
        }
      ],
      "name": "safeTransferFrom",
      "outputs": [],
      "stateMutability": "nonpayable",
      "type": "function"
    },
    {
      "inputs": [
        {
          "internalType": "address",
          "name": "operator",
          "type": "address"
        },
        {
          "internalType": "bool",
          "name": "approved",
          "type": "bool"
        }
      ],
      "name": "setApprovalForAll",
      "outputs": [],
      "stateMutability": "nonpayable",
      "type": "function"
    },
    {
      "inputs": [
        {
          "internalType": "bytes4",
          "name": "interfaceId",
          "type": "bytes4"
        }
      ],
      "name": "supportsInterface",
      "outputs": [
        {
          "internalType": "bool",
          "name": "",
          "type": "bool"
        }
      ],
      "stateMutability": "view",
      "type": "function"
    },
    {
      "inputs": [],
      "name": "symbol",
      "outputs": [
        {
          "internalType": "string",
          "name": "",
          "type": "string"
        }
      ],
      "stateMutability": "view",
      "type": "function"
    },
    {
      "inputs": [],
      "name": "tCount",
      "outputs": [
        {
          "internalType": "uint256",
          "name": "",
          "type": "uint256"
        }
      ],
      "stateMutability": "view",
      "type": "function"
    },
    {
      "inputs": [
        {
          "internalType": "uint256",
          "name": "index",
          "type": "uint256"
        }
      ],
      "name": "tokenByIndex",
      "outputs": [
        {
          "internalType": "uint256",
          "name": "",
          "type": "uint256"
        }
      ],
      "stateMutability": "view",
      "type": "function"
    },
    {
      "inputs": [
        {
          "internalType": "address",
          "name": "owner",
          "type": "address"
        },
        {
          "internalType": "uint256",
          "name": "index",
          "type": "uint256"
        }
      ],
      "name": "tokenOfOwnerByIndex",
      "outputs": [
        {
          "internalType": "uint256",
          "name": "",
          "type": "uint256"
        }
      ],
      "stateMutability": "view",
      "type": "function"
    },
    {
      "inputs": [
        {
          "internalType": "uint256",
          "name": "tokenId",
          "type": "uint256"
        }
      ],
      "name": "tokenURI",
      "outputs": [
        {
          "internalType": "string",
          "name": "",
          "type": "string"
        }
      ],
      "stateMutability": "view",
      "type": "function"
    },
    {
      "inputs": [],
      "name": "totalSupply",
      "outputs": [
        {
          "internalType": "uint256",
          "name": "",
          "type": "uint256"
        }
      ],
      "stateMutability": "view",
      "type": "function"
    },
    {
      "inputs": [
        {
          "internalType": "address",
          "name": "from",
          "type": "address"
        },
        {
          "internalType": "address",
          "name": "to",
          "type": "address"
        },
        {
          "internalType": "uint256",
          "name": "tokenId",
          "type": "uint256"
        }
      ],
      "name": "transferFrom",
      "outputs": [],
      "stateMutability": "nonpayable",
      "type": "function"
    },
    {
      "inputs": [
        {
          "internalType": "address",
          "name": "newOwner",
          "type": "address"
        }
      ],
      "name": "transferOwnership",
      "outputs": [],
      "stateMutability": "nonpayable",
      "type": "function"
    },
    {
      "stateMutability": "payable",
      "type": "receive"
    },
    {
      "inputs": [
        {
          "internalType": "address",
          "name": "_org_address",
          "type": "address"
        }
      ],
      "name": "setOrgAddress",
      "outputs": [],
      "stateMutability": "nonpayable",
      "type": "function"
    },
    {
      "inputs": [
        {
          "internalType": "string",
          "name": "_name",
          "type": "string"
        }
      ],
      "name": "registerArtist",
      "outputs": [],
      "stateMutability": "nonpayable",
      "type": "function"
    },
    {
      "inputs": [
        {
          "internalType": "string",
          "name": "_name",
          "type": "string"
        },
        {
          "internalType": "string",
          "name": "_filecid",
          "type": "string"
        }
      ],
      "name": "createNFT",
      "outputs": [],
      "stateMutability": "nonpayable",
      "type": "function"
    },
    {
      "inputs": [
        {
          "internalType": "uint256",
          "name": "_id",
          "type": "uint256"
        },
        {
          "internalType": "uint256",
          "name": "_price",
          "type": "uint256"
        }
      ],
      "name": "setPrice",
      "outputs": [],
      "stateMutability": "nonpayable",
      "type": "function"
    },
    {
      "inputs": [
        {
          "internalType": "uint256",
          "name": "_id",
          "type": "uint256"
        }
      ],
      "name": "buyTrack",
      "outputs": [],
      "stateMutability": "payable",
      "type": "function"
    },
    {
      "inputs": [
        {
          "internalType": "address",
          "name": "",
          "type": "address"
        },
        {
          "internalType": "address",
          "name": "",
          "type": "address"
        },
        {
          "internalType": "uint256",
          "name": "",
          "type": "uint256"
        },
        {
          "internalType": "bytes",
          "name": "",
          "type": "bytes"
        }
      ],
      "name": "onERC721Received",
      "outputs": [
        {
          "internalType": "bytes4",
          "name": "",
          "type": "bytes4"
        }
      ],
      "stateMutability": "nonpayable",
      "type": "function"
    }
  ],
  "bytecode": "0x60806040523480156200001157600080fd5b506040518060400160405280601181526020017f476f6f6477696c6c436861696e204e46540000000000000000000000000000008152506040518060400160405280600381526020017f4757430000000000000000000000000000000000000000000000000000000000815250620000966301ffc9a760e01b620001c960201b60201c565b8160069080519060200190620000ae929190620002da565b508060079080519060200190620000c7929190620002da565b50620000e06380ac58cd60e01b620001c960201b60201c565b620000f8635b5e139f60e01b620001c960201b60201c565b6200011063780e9d6360e01b620001c960201b60201c565b5050600062000124620002d260201b60201c565b905080600a60006101000a81548173ffffffffffffffffffffffffffffffffffffffff021916908373ffffffffffffffffffffffffffffffffffffffff1602179055508073ffffffffffffffffffffffffffffffffffffffff16600073ffffffffffffffffffffffffffffffffffffffff167f8be0079c531659141344cd1fd0a4f28419497f9722a3daafe3b4186f6b6457e060405160405180910390a35062000380565b63ffffffff60e01b817bffffffffffffffffffffffffffffffffffffffffffffffffffffffff1916141562000266576040517f08c379a000000000000000000000000000000000000000000000000000000000815260040180806020018281038252601c8152602001807f4552433136353a20696e76616c696420696e746572666163652069640000000081525060200191505060405180910390fd5b6001600080837bffffffffffffffffffffffffffffffffffffffffffffffffffffffff19167bffffffffffffffffffffffffffffffffffffffffffffffffffffffff1916815260200190815260200160002060006101000a81548160ff02191690831515021790555050565b600033905090565b828054600181600116156101000203166002900490600052602060002090601f016020900481019282601f106200031d57805160ff19168380011785556200034e565b828001600101855582156200034e579182015b828111156200034d57825182559160200191906001019062000330565b5b5090506200035d919062000361565b5090565b5b808211156200037c57600081600090555060010162000362565b5090565b61430380620003906000396000f3fe6080604052600436106101c65760003560e01c80636c0360eb116100f7578063a22cb46511610095578063c89f2ce411610064578063c89f2ce414610f87578063e985e9c514610fb2578063f2fde38b14611039578063f7d975771461108a576101cd565b8063a22cb46514610d13578063b21d019014610d70578063b88d4fde14610dc1578063c87b56dd14610ed3576101cd565b80638da5cb5b116100d15780638da5cb5b14610b4c5780639355d41914610b8d57806395d89b4114610c555780639a973fe514610ce5576101cd565b80636c0360eb14610a4057806370a0823114610ad0578063715018a614610b35576101cd565b8063265aa621116101645780634f6ccce71161013e5780634f6ccce71461080257806353f9a873146108515780636352211e1461087c57806368613d17146108e1576101cd565b8063265aa6211461053b5780632f745c591461071857806342842e0e14610787576101cd565b8063095ea7b3116101a0578063095ea7b314610337578063150b7a021461039257806318160ddd1461049557806323b872dd146104c0576101cd565b806301ffc9a7146101d257806306fdde0314610242578063081812fc146102d2576101cd565b366101cd57005b600080fd5b3480156101de57600080fd5b5061022a600480360360208110156101f557600080fd5b8101908080357bffffffffffffffffffffffffffffffffffffffffffffffffffffffff191690602001909291905050506110cf565b60405180821515815260200191505060405180910390f35b34801561024e57600080fd5b50610257611136565b6040518080602001828103825283818151815260200191508051906020019080838360005b8381101561029757808201518184015260208101905061027c565b50505050905090810190601f1680156102c45780820380516001836020036101000a031916815260200191505b509250505060405180910390f35b3480156102de57600080fd5b5061030b600480360360208110156102f557600080fd5b81019080803590602001909291905050506111d8565b604051808273ffffffffffffffffffffffffffffffffffffffff16815260200191505060405180910390f35b34801561034357600080fd5b506103906004803603604081101561035a57600080fd5b81019080803573ffffffffffffffffffffffffffffffffffffffff16906020019092919080359060200190929190505050611273565b005b34801561039e57600080fd5b50610460600480360360808110156103b557600080fd5b81019080803573ffffffffffffffffffffffffffffffffffffffff169060200190929190803573ffffffffffffffffffffffffffffffffffffffff169060200190929190803590602001909291908035906020019064010000000081111561041c57600080fd5b82018360208201111561042e57600080fd5b8035906020019184600183028401116401000000008311171561045057600080fd5b90919293919293905050506113b7565b60405180827bffffffffffffffffffffffffffffffffffffffffffffffffffffffff1916815260200191505060405180910390f35b3480156104a157600080fd5b506104aa6113e5565b6040518082815260200191505060405180910390f35b3480156104cc57600080fd5b50610539600480360360608110156104e357600080fd5b81019080803573ffffffffffffffffffffffffffffffffffffffff169060200190929190803573ffffffffffffffffffffffffffffffffffffffff169060200190929190803590602001909291905050506113f6565b005b34801561054757600080fd5b506105746004803603602081101561055e57600080fd5b810190808035906020019092919050505061146c565b6040518089815260200188815260200187151581526020018060200180602001806020018673ffffffffffffffffffffffffffffffffffffffff1681526020018573ffffffffffffffffffffffffffffffffffffffff168152602001848103845289818151815260200191508051906020019080838360005b838110156106085780820151818401526020810190506105ed565b50505050905090810190601f1680156106355780820380516001836020036101000a031916815260200191505b50848103835288818151815260200191508051906020019080838360005b8381101561066e578082015181840152602081019050610653565b50505050905090810190601f16801561069b5780820380516001836020036101000a031916815260200191505b50848103825287818151815260200191508051906020019080838360005b838110156106d45780820151818401526020810190506106b9565b50505050905090810190601f1680156107015780820380516001836020036101000a031916815260200191505b509b50505050505050505050505060405180910390f35b34801561072457600080fd5b506107716004803603604081101561073b57600080fd5b81019080803573ffffffffffffffffffffffffffffffffffffffff169060200190929190803590602001909291905050506116c9565b6040518082815260200191505060405180910390f35b34801561079357600080fd5b50610800600480360360608110156107aa57600080fd5b81019080803573ffffffffffffffffffffffffffffffffffffffff169060200190929190803573ffffffffffffffffffffffffffffffffffffffff16906020019092919080359060200190929190505050611724565b005b34801561080e57600080fd5b5061083b6004803603602081101561082557600080fd5b8101908080359060200190929190505050611744565b6040518082815260200191505060405180910390f35b34801561085d57600080fd5b50610866611767565b6040518082815260200191505060405180910390f35b34801561088857600080fd5b506108b56004803603602081101561089f57600080fd5b810190808035906020019092919050505061176d565b604051808273ffffffffffffffffffffffffffffffffffffffff16815260200191505060405180910390f35b3480156108ed57600080fd5b50610a3e6004803603604081101561090457600080fd5b810190808035906020019064010000000081111561092157600080fd5b82018360208201111561093357600080fd5b8035906020019184600183028401116401000000008311171561095557600080fd5b91908080601f016020809104026020016040519081016040528093929190818152602001838380828437600081840152601f19601f820116905080830192505050505050509192919290803590602001906401000000008111156109b857600080fd5b8201836020820111156109ca57600080fd5b803590602001918460018302840111640100000000831117156109ec57600080fd5b91908080601f016020809104026020016040519081016040528093929190818152602001838380828437600081840152601f19601f8201169050808301925050505050505091929192905050506117a4565b005b348015610a4c57600080fd5b50610a55611bfa565b6040518080602001828103825283818151815260200191508051906020019080838360005b83811015610a95578082015181840152602081019050610a7a565b50505050905090810190601f168015610ac25780820380516001836020036101000a031916815260200191505b509250505060405180910390f35b348015610adc57600080fd5b50610b1f60048036036020811015610af357600080fd5b81019080803573ffffffffffffffffffffffffffffffffffffffff169060200190929190505050611c9c565b6040518082815260200191505060405180910390f35b348015610b4157600080fd5b50610b4a611d71565b005b348015610b5857600080fd5b50610b61611ee1565b604051808273ffffffffffffffffffffffffffffffffffffffff16815260200191505060405180910390f35b348015610b9957600080fd5b50610c5360048036036020811015610bb057600080fd5b8101908080359060200190640100000000811115610bcd57600080fd5b820183602082011115610bdf57600080fd5b80359060200191846001830284011164010000000083111715610c0157600080fd5b91908080601f016020809104026020016040519081016040528093929190818152602001838380828437600081840152601f19601f820116905080830192505050505050509192919290505050611f0b565b005b348015610c6157600080fd5b50610c6a611f62565b6040518080602001828103825283818151815260200191508051906020019080838360005b83811015610caa578082015181840152602081019050610c8f565b50505050905090810190601f168015610cd75780820380516001836020036101000a031916815260200191505b509250505060405180910390f35b610d1160048036036020811015610cfb57600080fd5b8101908080359060200190929190505050612004565b005b348015610d1f57600080fd5b50610d6e60048036036040811015610d3657600080fd5b81019080803573ffffffffffffffffffffffffffffffffffffffff1690602001909291908035151590602001909291905050506121b2565b005b348015610d7c57600080fd5b50610dbf60048036036020811015610d9357600080fd5b81019080803573ffffffffffffffffffffffffffffffffffffffff169060200190929190505050612368565b005b348015610dcd57600080fd5b50610ed160048036036080811015610de457600080fd5b81019080803573ffffffffffffffffffffffffffffffffffffffff169060200190929190803573ffffffffffffffffffffffffffffffffffffffff1690602001909291908035906020019092919080359060200190640100000000811115610e4b57600080fd5b820183602082011115610e5d57600080fd5b80359060200191846001830284011164010000000083111715610e7f57600080fd5b91908080601f016020809104026020016040519081016040528093929190818152602001838380828437600081840152601f19601f82011690508083019250505050505050919291929050505061245b565b005b348015610edf57600080fd5b50610f0c60048036036020811015610ef657600080fd5b81019080803590602001909291905050506124d3565b6040518080602001828103825283818151815260200191508051906020019080838360005b83811015610f4c578082015181840152602081019050610f31565b50505050905090810190601f168015610f795780820380516001836020036101000a031916815260200191505b509250505060405180910390f35b348015610f9357600080fd5b50610f9c6127a4565b6040518082815260200191505060405180910390f35b348015610fbe57600080fd5b5061102160048036036040811015610fd557600080fd5b81019080803573ffffffffffffffffffffffffffffffffffffffff169060200190929190803573ffffffffffffffffffffffffffffffffffffffff1690602001909291905050506127aa565b60405180821515815260200191505060405180910390f35b34801561104557600080fd5b506110886004803603602081101561105c57600080fd5b81019080803573ffffffffffffffffffffffffffffffffffffffff16906020019092919050505061283e565b005b34801561109657600080fd5b506110cd600480360360408110156110ad57600080fd5b810190808035906020019092919080359060200190929190505050612a33565b005b6000806000837bffffffffffffffffffffffffffffffffffffffffffffffffffffffff19167bffffffffffffffffffffffffffffffffffffffffffffffffffffffff1916815260200190815260200160002060009054906101000a900460ff169050919050565b606060068054600181600116156101000203166002900480601f0160208091040260200160405190810160405280929190818152602001828054600181600116156101000203166002900480156111ce5780601f106111a3576101008083540402835291602001916111ce565b820191906000526020600020905b8154815290600101906020018083116111b157829003601f168201915b5050505050905090565b60006111e382612c38565b611238576040517f08c379a000000000000000000000000000000000000000000000000000000000815260040180806020018281038252602c8152602001806141cc602c913960400191505060405180910390fd5b6004600083815260200190815260200160002060009054906101000a900473ffffffffffffffffffffffffffffffffffffffff169050919050565b600061127e8261176d565b90508073ffffffffffffffffffffffffffffffffffffffff168373ffffffffffffffffffffffffffffffffffffffff161415611305576040517f08c379a000000000000000000000000000000000000000000000000000000000815260040180806020018281038252602181526020018061427c6021913960400191505060405180910390fd5b8073ffffffffffffffffffffffffffffffffffffffff16611324612c55565b73ffffffffffffffffffffffffffffffffffffffff16148061135357506113528161134d612c55565b6127aa565b5b6113a8576040517f08c379a000000000000000000000000000000000000000000000000000000000815260040180806020018281038252603881526020018061411f6038913960400191505060405180910390fd5b6113b28383612c5d565b505050565b60007f150b7a023d4804d13e8c85fb27262cb750cf6ba9f9dd3bb30d90f482ceeb4b1f905095945050505050565b60006113f16002612d16565b905090565b611407611401612c55565b82612d2b565b61145c576040517f08c379a000000000000000000000000000000000000000000000000000000000815260040180806020018281038252603181526020018061429d6031913960400191505060405180910390fd5b611467838383612e1f565b505050565b600d6020528060005260406000206000915090508060000154908060010154908060020160009054906101000a900460ff1690806003018054600181600116156101000203166002900480601f0160208091040260200160405190810160405280929190818152602001828054600181600116156101000203166002900480156115375780601f1061150c57610100808354040283529160200191611537565b820191906000526020600020905b81548152906001019060200180831161151a57829003601f168201915b505050505090806004018054600181600116156101000203166002900480601f0160208091040260200160405190810160405280929190818152602001828054600181600116156101000203166002900480156115d55780601f106115aa576101008083540402835291602001916115d5565b820191906000526020600020905b8154815290600101906020018083116115b857829003601f168201915b505050505090806005018054600181600116156101000203166002900480601f0160208091040260200160405190810160405280929190818152602001828054600181600116156101000203166002900480156116735780601f1061164857610100808354040283529160200191611673565b820191906000526020600020905b81548152906001019060200180831161165657829003601f168201915b5050505050908060060160009054906101000a900473ffffffffffffffffffffffffffffffffffffffff16908060070160009054906101000a900473ffffffffffffffffffffffffffffffffffffffff16905088565b600061171c82600160008673ffffffffffffffffffffffffffffffffffffffff1673ffffffffffffffffffffffffffffffffffffffff16815260200190815260200160002061306290919063ffffffff16565b905092915050565b61173f8383836040518060200160405280600081525061245b565b505050565b60008061175b83600261307c90919063ffffffff16565b50905080915050919050565b600b5481565b600061179d826040518060600160405280602981526020016141816029913960026130a89092919063ffffffff16565b9050919050565b600082511180156117b6575060008151115b611828576040517f08c379a00000000000000000000000000000000000000000000000000000000081526004018080602001828103825260168152602001807f4e616d6520616e642066696c652072657175697265640000000000000000000081525060200191505060405180910390fd5b600b6000815480929190600101919050555061184633600b546130c7565b611852600b54826130e5565b604051806101000160405280600b54815260200160008152602001600015158152602001838152602001828152602001600c60003373ffffffffffffffffffffffffffffffffffffffff1673ffffffffffffffffffffffffffffffffffffffff1681526020019081526020016000208054600181600116156101000203166002900480601f0160208091040260200160405190810160405280929190818152602001828054600181600116156101000203166002900480156119555780601f1061192a57610100808354040283529160200191611955565b820191906000526020600020905b81548152906001019060200180831161193857829003601f168201915b505050505081526020013373ffffffffffffffffffffffffffffffffffffffff1681526020013373ffffffffffffffffffffffffffffffffffffffff16815250600d6000600b548152602001908152602001600020600082015181600001556020820151816001015560408201518160020160006101000a81548160ff02191690831515021790555060608201518160030190805190602001906119fa929190613f91565b506080820151816004019080519060200190611a17929190613f91565b5060a0820151816005019080519060200190611a34929190613f91565b5060c08201518160060160006101000a81548173ffffffffffffffffffffffffffffffffffffffff021916908373ffffffffffffffffffffffffffffffffffffffff16021790555060e08201518160070160006101000a81548173ffffffffffffffffffffffffffffffffffffffff021916908373ffffffffffffffffffffffffffffffffffffffff1602179055509050507f46105344ed3331765044bf4b72ec3e7a557e442f12f5ca07855f406b15eb7944600b54600d6000600b548152602001908152602001600020600301600d6000600b54815260200190815260200160002060070160009054906101000a900473ffffffffffffffffffffffffffffffffffffffff1660405180848152602001806020018373ffffffffffffffffffffffffffffffffffffffff168152602001828103825284818154600181600116156101000203166002900481526020019150805460018160011615610100020316600290048015611be65780601f10611bbb57610100808354040283529160200191611be6565b820191906000526020600020905b815481529060010190602001808311611bc957829003601f168201915b505094505050505060405180910390a15050565b606060098054600181600116156101000203166002900480601f016020809104026020016040519081016040528092919081815260200182805460018160011615610100020316600290048015611c925780601f10611c6757610100808354040283529160200191611c92565b820191906000526020600020905b815481529060010190602001808311611c7557829003601f168201915b5050505050905090565b60008073ffffffffffffffffffffffffffffffffffffffff168273ffffffffffffffffffffffffffffffffffffffff161415611d23576040517f08c379a000000000000000000000000000000000000000000000000000000000815260040180806020018281038252602a815260200180614157602a913960400191505060405180910390fd5b611d6a600160008473ffffffffffffffffffffffffffffffffffffffff1673ffffffffffffffffffffffffffffffffffffffff16815260200190815260200160002061316f565b9050919050565b611d79612c55565b73ffffffffffffffffffffffffffffffffffffffff16611d97611ee1565b73ffffffffffffffffffffffffffffffffffffffff1614611e20576040517f08c379a00000000000000000000000000000000000000000000000000000000081526004018080602001828103825260208152602001807f4f776e61626c653a2063616c6c6572206973206e6f7420746865206f776e657281525060200191505060405180910390fd5b600073ffffffffffffffffffffffffffffffffffffffff16600a60009054906101000a900473ffffffffffffffffffffffffffffffffffffffff1673ffffffffffffffffffffffffffffffffffffffff167f8be0079c531659141344cd1fd0a4f28419497f9722a3daafe3b4186f6b6457e060405160405180910390a36000600a60006101000a81548173ffffffffffffffffffffffffffffffffffffffff021916908373ffffffffffffffffffffffffffffffffffffffff160217905550565b6000600a60009054906101000a900473ffffffffffffffffffffffffffffffffffffffff16905090565b80600c60003373ffffffffffffffffffffffffffffffffffffffff1673ffffffffffffffffffffffffffffffffffffffff1681526020019081526020016000209080519060200190611f5e929190613f91565b5050565b606060078054600181600116156101000203166002900480601f016020809104026020016040519081016040528092919081815260200182805460018160011615610100020316600290048015611ffa5780601f10611fcf57610100808354040283529160200191611ffa565b820191906000526020600020905b815481529060010190602001808311611fdd57829003601f168201915b5050505050905090565b806000811180156120175750600b548111155b61202057600080fd5b600f60009054906101000a900473ffffffffffffffffffffffffffffffffffffffff1673ffffffffffffffffffffffffffffffffffffffff166108fc349081150290604051600060405180830381858888f19350505050158015612088573d6000803e3d6000fd5b5034600e5401600e8190555061209f303384611724565b33600d600084815260200190815260200160002060070160006101000a81548173ffffffffffffffffffffffffffffffffffffffff021916908373ffffffffffffffffffffffffffffffffffffffff1602179055506000600d600084815260200190815260200160002060020160006101000a81548160ff0219169083151502179055507f7ea941d0f3c76988413ca30e91d3306ccbc25d42204bce6d66e006cbe3a5898f82600d600085815260200190815260200160002060070160009054906101000a900473ffffffffffffffffffffffffffffffffffffffff16604051808381526020018273ffffffffffffffffffffffffffffffffffffffff1681526020019250505060405180910390a15050565b6121ba612c55565b73ffffffffffffffffffffffffffffffffffffffff168273ffffffffffffffffffffffffffffffffffffffff16141561225b576040517f08c379a00000000000000000000000000000000000000000000000000000000081526004018080602001828103825260198152602001807f4552433732313a20617070726f766520746f2063616c6c65720000000000000081525060200191505060405180910390fd5b8060056000612268612c55565b73ffffffffffffffffffffffffffffffffffffffff1673ffffffffffffffffffffffffffffffffffffffff16815260200190815260200160002060008473ffffffffffffffffffffffffffffffffffffffff1673ffffffffffffffffffffffffffffffffffffffff16815260200190815260200160002060006101000a81548160ff0219169083151502179055508173ffffffffffffffffffffffffffffffffffffffff16612315612c55565b73ffffffffffffffffffffffffffffffffffffffff167f17307eab39ab6107e8899845ad3d59bd9653f200f220920489ca2b5937696c318360405180821515815260200191505060405180910390a35050565b612370612c55565b73ffffffffffffffffffffffffffffffffffffffff1661238e611ee1565b73ffffffffffffffffffffffffffffffffffffffff1614612417576040517f08c379a00000000000000000000000000000000000000000000000000000000081526004018080602001828103825260208152602001807f4f776e61626c653a2063616c6c6572206973206e6f7420746865206f776e657281525060200191505060405180910390fd5b80600f60006101000a81548173ffffffffffffffffffffffffffffffffffffffff021916908373ffffffffffffffffffffffffffffffffffffffff16021790555050565b61246c612466612c55565b83612d2b565b6124c1576040517f08c379a000000000000000000000000000000000000000000000000000000000815260040180806020018281038252603181526020018061429d6031913960400191505060405180910390fd5b6124cd84848484613184565b50505050565b60606124de82612c38565b612533576040517f08c379a000000000000000000000000000000000000000000000000000000000815260040180806020018281038252602f81526020018061424d602f913960400191505060405180910390fd5b6060600860008481526020019081526020016000208054600181600116156101000203166002900480601f0160208091040260200160405190810160405280929190818152602001828054600181600116156101000203166002900480156125dc5780601f106125b1576101008083540402835291602001916125dc565b820191906000526020600020905b8154815290600101906020018083116125bf57829003601f168201915b5050505050905060606125ed611bfa565b905060008151141561260357819250505061279f565b6000825111156126d45780826040516020018083805190602001908083835b602083106126455780518252602082019150602081019050602083039250612622565b6001836020036101000a03801982511681845116808217855250505050505090500182805190602001908083835b602083106126965780518252602082019150602081019050602083039250612673565b6001836020036101000a038019825116818451168082178552505050505050905001925050506040516020818303038152906040529250505061279f565b806126de856131f6565b6040516020018083805190602001908083835b6020831061271457805182526020820191506020810190506020830392506126f1565b6001836020036101000a03801982511681845116808217855250505050505090500182805190602001908083835b602083106127655780518252602082019150602081019050602083039250612742565b6001836020036101000a03801982511681845116808217855250505050505090500192505050604051602081830303815290604052925050505b919050565b600e5481565b6000600560008473ffffffffffffffffffffffffffffffffffffffff1673ffffffffffffffffffffffffffffffffffffffff16815260200190815260200160002060008373ffffffffffffffffffffffffffffffffffffffff1673ffffffffffffffffffffffffffffffffffffffff16815260200190815260200160002060009054906101000a900460ff16905092915050565b612846612c55565b73ffffffffffffffffffffffffffffffffffffffff16612864611ee1565b73ffffffffffffffffffffffffffffffffffffffff16146128ed576040517f08c379a00000000000000000000000000000000000000000000000000000000081526004018080602001828103825260208152602001807f4f776e61626c653a2063616c6c6572206973206e6f7420746865206f776e657281525060200191505060405180910390fd5b600073ffffffffffffffffffffffffffffffffffffffff168173ffffffffffffffffffffffffffffffffffffffff161415612973576040517f08c379a00000000000000000000000000000000000000000000000000000000081526004018080602001828103825260268152602001806140836026913960400191505060405180910390fd5b8073ffffffffffffffffffffffffffffffffffffffff16600a60009054906101000a900473ffffffffffffffffffffffffffffffffffffffff1673ffffffffffffffffffffffffffffffffffffffff167f8be0079c531659141344cd1fd0a4f28419497f9722a3daafe3b4186f6b6457e060405160405180910390a380600a60006101000a81548173ffffffffffffffffffffffffffffffffffffffff021916908373ffffffffffffffffffffffffffffffffffffffff16021790555050565b81600081118015612a465750600b548111155b612a4f57600080fd5b600d600084815260200190815260200160002060070160009054906101000a900473ffffffffffffffffffffffffffffffffffffffff1673ffffffffffffffffffffffffffffffffffffffff163373ffffffffffffffffffffffffffffffffffffffff1614612b26576040517f08c379a00000000000000000000000000000000000000000000000000000000081526004018080602001828103825260098152602001807f4e6f74206f776e6572000000000000000000000000000000000000000000000081525060200191505060405180910390fd5b6001600d600085815260200190815260200160002060020160006101000a81548160ff02191690831515021790555081600d600085815260200190815260200160002060010181905550612bb1600d600085815260200190815260200160002060070160009054906101000a900473ffffffffffffffffffffffffffffffffffffffff163085611724565b7f096ceeac840dccf38e32aa131064765c29af2796d70c0788c8d227db3920fe9e83600d600086815260200190815260200160002060010154600d600087815260200190815260200160002060020160009054906101000a900460ff16604051808481526020018381526020018215158152602001935050505060405180910390a1505050565b6000612c4e82600261333d90919063ffffffff16565b9050919050565b600033905090565b816004600083815260200190815260200160002060006101000a81548173ffffffffffffffffffffffffffffffffffffffff021916908373ffffffffffffffffffffffffffffffffffffffff160217905550808273ffffffffffffffffffffffffffffffffffffffff16612cd08361176d565b73ffffffffffffffffffffffffffffffffffffffff167f8c5be1e5ebec7d5bd14f71427d1e84f3dd0314c0f7b2291e5b200ac8c7c3b92560405160405180910390a45050565b6000612d2482600001613357565b9050919050565b6000612d3682612c38565b612d8b576040517f08c379a000000000000000000000000000000000000000000000000000000000815260040180806020018281038252602c8152602001806140f3602c913960400191505060405180910390fd5b6000612d968361176d565b90508073ffffffffffffffffffffffffffffffffffffffff168473ffffffffffffffffffffffffffffffffffffffff161480612e0557508373ffffffffffffffffffffffffffffffffffffffff16612ded846111d8565b73ffffffffffffffffffffffffffffffffffffffff16145b80612e165750612e1581856127aa565b5b91505092915050565b8273ffffffffffffffffffffffffffffffffffffffff16612e3f8261176d565b73ffffffffffffffffffffffffffffffffffffffff1614612eab576040517f08c379a00000000000000000000000000000000000000000000000000000000081526004018080602001828103825260298152602001806142246029913960400191505060405180910390fd5b600073ffffffffffffffffffffffffffffffffffffffff168273ffffffffffffffffffffffffffffffffffffffff161415612f31576040517f08c379a00000000000000000000000000000000000000000000000000000000081526004018080602001828103825260248152602001806140a96024913960400191505060405180910390fd5b612f3c838383613368565b612f47600082612c5d565b612f9881600160008673ffffffffffffffffffffffffffffffffffffffff1673ffffffffffffffffffffffffffffffffffffffff16815260200190815260200160002061336d90919063ffffffff16565b50612fea81600160008573ffffffffffffffffffffffffffffffffffffffff1673ffffffffffffffffffffffffffffffffffffffff16815260200190815260200160002061338790919063ffffffff16565b50613001818360026133a19092919063ffffffff16565b50808273ffffffffffffffffffffffffffffffffffffffff168473ffffffffffffffffffffffffffffffffffffffff167fddf252ad1be2c89b69c2b068fc378daa952ba7f163c4a11628f55a4df523b3ef60405160405180910390a4505050565b600061307183600001836133d6565b60001c905092915050565b60008060008061308f8660000186613459565b915091508160001c8160001c9350935050509250929050565b60006130bb846000018460001b846134f2565b60001c90509392505050565b6130e18282604051806020016040528060008152506135e8565b5050565b6130ee82612c38565b613143576040517f08c379a000000000000000000000000000000000000000000000000000000000815260040180806020018281038252602c8152602001806141f8602c913960400191505060405180910390fd5b8060086000848152602001908152602001600020908051906020019061316a929190613f91565b505050565b600061317d82600001613659565b9050919050565b61318f848484612e1f565b61319b8484848461366a565b6131f0576040517f08c379a00000000000000000000000000000000000000000000000000000000081526004018080602001828103825260328152602001806140516032913960400191505060405180910390fd5b50505050565b6060600082141561323e576040518060400160405280600181526020017f30000000000000000000000000000000000000000000000000000000000000008152509050613338565b600082905060005b60008214613268578080600101915050600a828161326057fe5b049150613246565b60608167ffffffffffffffff8111801561328157600080fd5b506040519080825280601f01601f1916602001820160405280156132b45781602001600182028036833780820191505090505b50905060006001830390508593505b6000841461333057600a84816132d557fe5b0660300160f81b828280600190039350815181106132ef57fe5b60200101907effffffffffffffffffffffffffffffffffffffffffffffffffffffffffffff1916908160001a905350600a848161332857fe5b0493506132c3565b819450505050505b919050565b600061334f836000018360001b613883565b905092915050565b600081600001805490509050919050565b505050565b600061337f836000018360001b6138a6565b905092915050565b6000613399836000018360001b61398e565b905092915050565b60006133cd846000018460001b8473ffffffffffffffffffffffffffffffffffffffff1660001b6139fe565b90509392505050565b600081836000018054905011613437576040517f08c379a000000000000000000000000000000000000000000000000000000000815260040180806020018281038252602281526020018061402f6022913960400191505060405180910390fd5b82600001828154811061344657fe5b9060005260206000200154905092915050565b600080828460000180549050116134bb576040517f08c379a00000000000000000000000000000000000000000000000000000000081526004018080602001828103825260228152602001806141aa6022913960400191505060405180910390fd5b60008460000184815481106134cc57fe5b906000526020600020906002020190508060000154816001015492509250509250929050565b600080846001016000858152602001908152602001600020549050600081141583906135b9576040517f08c379a00000000000000000000000000000000000000000000000000000000081526004018080602001828103825283818151815260200191508051906020019080838360005b8381101561357e578082015181840152602081019050613563565b50505050905090810190601f1680156135ab5780820380516001836020036101000a031916815260200191505b509250505060405180910390fd5b508460000160018203815481106135cc57fe5b9060005260206000209060020201600101549150509392505050565b6135f28383613ada565b6135ff600084848461366a565b613654576040517f08c379a00000000000000000000000000000000000000000000000000000000081526004018080602001828103825260328152602001806140516032913960400191505060405180910390fd5b505050565b600081600001805490509050919050565b600061368b8473ffffffffffffffffffffffffffffffffffffffff16613cce565b613698576001905061387b565b606061380263150b7a0260e01b6136ad612c55565b888787604051602401808573ffffffffffffffffffffffffffffffffffffffff1681526020018473ffffffffffffffffffffffffffffffffffffffff16815260200183815260200180602001828103825283818151815260200191508051906020019080838360005b83811015613731578082015181840152602081019050613716565b50505050905090810190601f16801561375e5780820380516001836020036101000a031916815260200191505b5095505050505050604051602081830303815290604052907bffffffffffffffffffffffffffffffffffffffffffffffffffffffff19166020820180517bffffffffffffffffffffffffffffffffffffffffffffffffffffffff8381831617835250505050604051806060016040528060328152602001614051603291398773ffffffffffffffffffffffffffffffffffffffff16613ce19092919063ffffffff16565b9050600081806020019051602081101561381b57600080fd5b8101908080519060200190929190505050905063150b7a0260e01b7bffffffffffffffffffffffffffffffffffffffffffffffffffffffff1916817bffffffffffffffffffffffffffffffffffffffffffffffffffffffff191614925050505b949350505050565b600080836001016000848152602001908152602001600020541415905092915050565b6000808360010160008481526020019081526020016000205490506000811461398257600060018203905060006001866000018054905003905060008660000182815481106138f157fe5b906000526020600020015490508087600001848154811061390e57fe5b906000526020600020018190555060018301876001016000838152602001908152602001600020819055508660000180548061394657fe5b60019003818190600052602060002001600090559055866001016000878152602001908152602001600020600090556001945050505050613988565b60009150505b92915050565b600061399a8383613cf9565b6139f35782600001829080600181540180825580915050600190039060005260206000200160009091909190915055826000018054905083600101600084815260200190815260200160002081905550600190506139f8565b600090505b92915050565b6000808460010160008581526020019081526020016000205490506000811415613aa557846000016040518060400160405280868152602001858152509080600181540180825580915050600190039060005260206000209060020201600090919091909150600082015181600001556020820151816001015550508460000180549050856001016000868152602001908152602001600020819055506001915050613ad3565b82856000016001830381548110613ab857fe5b90600052602060002090600202016001018190555060009150505b9392505050565b600073ffffffffffffffffffffffffffffffffffffffff168273ffffffffffffffffffffffffffffffffffffffff161415613b7d576040517f08c379a00000000000000000000000000000000000000000000000000000000081526004018080602001828103825260208152602001807f4552433732313a206d696e7420746f20746865207a65726f206164647265737381525060200191505060405180910390fd5b613b8681612c38565b15613bf9576040517f08c379a000000000000000000000000000000000000000000000000000000000815260040180806020018281038252601c8152602001807f4552433732313a20746f6b656e20616c7265616479206d696e7465640000000081525060200191505060405180910390fd5b613c0560008383613368565b613c5681600160008573ffffffffffffffffffffffffffffffffffffffff1673ffffffffffffffffffffffffffffffffffffffff16815260200190815260200160002061338790919063ffffffff16565b50613c6d818360026133a19092919063ffffffff16565b50808273ffffffffffffffffffffffffffffffffffffffff16600073ffffffffffffffffffffffffffffffffffffffff167fddf252ad1be2c89b69c2b068fc378daa952ba7f163c4a11628f55a4df523b3ef60405160405180910390a45050565b600080823b905060008111915050919050565b6060613cf08484600085613d1c565b90509392505050565b600080836001016000848152602001908152602001600020541415905092915050565b606082471015613d77576040517f08c379a00000000000000000000000000000000000000000000000000000000081526004018080602001828103825260268152602001806140cd6026913960400191505060405180910390fd5b613d8085613cce565b613df2576040517f08c379a000000000000000000000000000000000000000000000000000000000815260040180806020018281038252601d8152602001807f416464726573733a2063616c6c20746f206e6f6e2d636f6e747261637400000081525060200191505060405180910390fd5b600060608673ffffffffffffffffffffffffffffffffffffffff1685876040518082805190602001908083835b60208310613e425780518252602082019150602081019050602083039250613e1f565b6001836020036101000a03801982511681845116808217855250505050505090500191505060006040518083038185875af1925050503d8060008114613ea4576040519150601f19603f3d011682016040523d82523d6000602084013e613ea9565b606091505b5091509150613eb9828286613ec5565b92505050949350505050565b60608315613ed557829050613f8a565b600083511115613ee85782518084602001fd5b816040517f08c379a00000000000000000000000000000000000000000000000000000000081526004018080602001828103825283818151815260200191508051906020019080838360005b83811015613f4f578082015181840152602081019050613f34565b50505050905090810190601f168015613f7c5780820380516001836020036101000a031916815260200191505b509250505060405180910390fd5b9392505050565b828054600181600116156101000203166002900490600052602060002090601f016020900481019282601f10613fd257805160ff1916838001178555614000565b82800160010185558215614000579182015b82811115613fff578251825591602001919060010190613fe4565b5b50905061400d9190614011565b5090565b5b8082111561402a576000816000905550600101614012565b509056fe456e756d657261626c655365743a20696e646578206f7574206f6620626f756e64734552433732313a207472616e7366657220746f206e6f6e20455243373231526563656976657220696d706c656d656e7465724f776e61626c653a206e6577206f776e657220697320746865207a65726f20616464726573734552433732313a207472616e7366657220746f20746865207a65726f2061646472657373416464726573733a20696e73756666696369656e742062616c616e636520666f722063616c6c4552433732313a206f70657261746f7220717565727920666f72206e6f6e6578697374656e7420746f6b656e4552433732313a20617070726f76652063616c6c6572206973206e6f74206f776e6572206e6f7220617070726f76656420666f7220616c6c4552433732313a2062616c616e636520717565727920666f7220746865207a65726f20616464726573734552433732313a206f776e657220717565727920666f72206e6f6e6578697374656e7420746f6b656e456e756d657261626c654d61703a20696e646578206f7574206f6620626f756e64734552433732313a20617070726f76656420717565727920666f72206e6f6e6578697374656e7420746f6b656e4552433732314d657461646174613a2055524920736574206f66206e6f6e6578697374656e7420746f6b656e4552433732313a207472616e73666572206f6620746f6b656e2074686174206973206e6f74206f776e4552433732314d657461646174613a2055524920717565727920666f72206e6f6e6578697374656e7420746f6b656e4552433732313a20617070726f76616c20746f2063757272656e74206f776e65724552433732313a207472616e736665722063616c6c6572206973206e6f74206f776e6572206e6f7220617070726f766564a2646970667358221220f846628867e138dffd1176a17553079cf50fe59eeaa26f844fb36419aae1e6ed64736f6c63430007010033",
  "immutableReferences": {},
  "source": "// SPDX-License-Identifier: MIT\r\npragma solidity >=0.4.22 <0.9.0;\r\n\r\nimport \"@openzeppelin/contracts/access/Ownable.sol\";\r\nimport \"@openzeppelin/contracts/token/ERC721/ERC721.sol\";\r\nimport \"@openzeppelin/contracts/token/ERC721/IERC721Receiver.sol\";\r\n\r\ncontract GoodwillChain is ERC721, IERC721Receiver, Ownable {\r\n\r\n  constructor() ERC721(\"GoodwillChain NFT\", \"GWC\") { }\r\n\r\n  uint public tCount;\r\n\r\n  mapping(address => string) artists;\r\n  mapping(uint => NFT) public nfts;\r\n  \r\n  uint public funds;\r\n  address payable org_address;\r\n\r\n  struct NFT {\r\n    uint id;\r\n    uint price;\r\n    bool isListed;\r\n    string name;\r\n    string filecid;\r\n    string aName;\r\n    address artist;\r\n    address owner;\r\n  }\r\n\r\n  modifier idExists(uint id) {\r\n    require(id > 0 && id <= tCount);\r\n    _;\r\n  }\r\n\r\n  event createdNFT(\r\n        uint id, \r\n        string name, \r\n        address owner\r\n    );\r\n\r\n    event setNFTPrice(\r\n        uint id, \r\n        uint newPrice, \r\n        bool listed\r\n    );\r\n\r\n    event offerApproved(\r\n        uint id,\r\n        uint nftID, \r\n        uint amount, \r\n        bool approved\r\n    );\r\n\r\n    event boughtTrack(\r\n        uint id, \r\n        address buyer\r\n    );\r\n\r\n  function setOrgAddress(address _org_address) external onlyOwner {\r\n    org_address = payable(_org_address);\r\n  }\r\n\r\n  function registerArtist(string memory _name) external {\r\n        artists[msg.sender] = _name;\r\n    }\r\n\r\n  function createNFT(string memory _name,string memory _filecid) external {\r\n        require(bytes(_name).length > 0 && bytes(_filecid).length > 0, \"Name and file required\");\r\n        tCount++;\r\n        _safeMint(msg.sender, tCount);\r\n        _setTokenURI(tCount, _filecid);\r\n        nfts[tCount] = NFT(tCount, 0, false, _name, _filecid, artists[msg.sender], msg.sender, msg.sender);\r\n        emit createdNFT(tCount, nfts[tCount].name, nfts[tCount].owner);\r\n    }   \r\n\r\n  function setPrice(uint _id, uint _price) external idExists(_id) {\r\n        require(msg.sender == nfts[_id].owner, \"Not owner\");\r\n        nfts[_id].isListed = true;\r\n        nfts[_id].price = _price;\r\n        safeTransferFrom(nfts[_id].owner, address(this), _id);\r\n        emit setNFTPrice(_id, nfts[_id].price, nfts[_id].isListed);\r\n    } \r\n\r\n  function buyTrack(uint _id) external payable idExists(_id) {\r\n        org_address.transfer(msg.value);\r\n        funds = funds + msg.value;\r\n        safeTransferFrom(address(this), msg.sender, _id);\r\n        nfts[_id].owner = msg.sender;\r\n        nfts[_id].isListed = false;\r\n        emit boughtTrack(_id, nfts[_id].owner);\r\n    }\r\n\r\n  function onERC721Received(\r\n      address,\r\n      address,\r\n      uint256,\r\n      bytes calldata\r\n  ) external override returns(bytes4) {\r\n      return bytes4(keccak256(\"onERC721Received(address,address,uint256,bytes)\"));\r\n  }\r\n\r\n  receive() external payable {}\r\n}\r\n",
  "sourcePath": "D:/Hackathons/Devfolio online/HFT/GoodWill-Chain/contracts/GoodwillChain.sol",
  "compiler": {
    "name": "solc",
    "version": "0.7.1+commit.f4a555be.Emscripten.clang"
  },
  "schemaVersion": "3.4.1",
  "updatedAt": "2021-11-22T16:25:25.826Z",
  "devdoc": {
    "kind": "dev",
    "methods": {
      "approve(address,uint256)": {
        "details": "See {IERC721-approve}."
      },
      "balanceOf(address)": {
        "details": "See {IERC721-balanceOf}."
      },
      "baseURI()": {
        "details": "Returns the base URI set via {_setBaseURI}. This will be automatically added as a prefix in {tokenURI} to each token's URI, or to the token ID if no specific URI is set for that token ID."
      },
      "getApproved(uint256)": {
        "details": "See {IERC721-getApproved}."
      },
      "isApprovedForAll(address,address)": {
        "details": "See {IERC721-isApprovedForAll}."
      },
      "name()": {
        "details": "See {IERC721Metadata-name}."
      },
      "owner()": {
        "details": "Returns the address of the current owner."
      },
      "ownerOf(uint256)": {
        "details": "See {IERC721-ownerOf}."
      },
      "renounceOwnership()": {
        "details": "Leaves the contract without owner. It will not be possible to call `onlyOwner` functions anymore. Can only be called by the current owner. NOTE: Renouncing ownership will leave the contract without an owner, thereby removing any functionality that is only available to the owner."
      },
      "safeTransferFrom(address,address,uint256)": {
        "details": "See {IERC721-safeTransferFrom}."
      },
      "safeTransferFrom(address,address,uint256,bytes)": {
        "details": "See {IERC721-safeTransferFrom}."
      },
      "setApprovalForAll(address,bool)": {
        "details": "See {IERC721-setApprovalForAll}."
      },
      "supportsInterface(bytes4)": {
        "details": "See {IERC165-supportsInterface}. Time complexity O(1), guaranteed to always use less than 30 000 gas."
      },
      "symbol()": {
        "details": "See {IERC721Metadata-symbol}."
      },
      "tokenByIndex(uint256)": {
        "details": "See {IERC721Enumerable-tokenByIndex}."
      },
      "tokenOfOwnerByIndex(address,uint256)": {
        "details": "See {IERC721Enumerable-tokenOfOwnerByIndex}."
      },
      "tokenURI(uint256)": {
        "details": "See {IERC721Metadata-tokenURI}."
      },
      "totalSupply()": {
        "details": "See {IERC721Enumerable-totalSupply}."
      },
      "transferFrom(address,address,uint256)": {
        "details": "See {IERC721-transferFrom}."
      },
      "transferOwnership(address)": {
        "details": "Transfers ownership of the contract to a new account (`newOwner`). Can only be called by the current owner."
      }
    },
    "version": 1
  },
  "userdoc": {
    "kind": "user",
    "methods": {},
    "version": 1
  }
}