{
  "contractName": "GoodwillChain",
  "abi": [
    {
      "inputs": [],
      "stateMutability": "nonpayable",
      "type": "constructor"
    },
    {
      "anonymous": false,
      "inputs": [
        {
          "indexed": true,
          "internalType": "address",
          "name": "owner",
          "type": "address"
        },
        {
          "indexed": true,
          "internalType": "address",
          "name": "approved",
          "type": "address"
        },
        {
          "indexed": true,
          "internalType": "uint256",
          "name": "tokenId",
          "type": "uint256"
        }
      ],
      "name": "Approval",
      "type": "event"
    },
    {
      "anonymous": false,
      "inputs": [
        {
          "indexed": true,
          "internalType": "address",
          "name": "owner",
          "type": "address"
        },
        {
          "indexed": true,
          "internalType": "address",
          "name": "operator",
          "type": "address"
        },
        {
          "indexed": false,
          "internalType": "bool",
          "name": "approved",
          "type": "bool"
        }
      ],
      "name": "ApprovalForAll",
      "type": "event"
    },
    {
      "anonymous": false,
      "inputs": [
        {
          "indexed": true,
          "internalType": "address",
          "name": "from",
          "type": "address"
        },
        {
          "indexed": true,
          "internalType": "address",
          "name": "to",
          "type": "address"
        },
        {
          "indexed": true,
          "internalType": "uint256",
          "name": "tokenId",
          "type": "uint256"
        }
      ],
      "name": "Transfer",
      "type": "event"
    },
    {
      "anonymous": false,
      "inputs": [
        {
          "indexed": false,
          "internalType": "uint256",
          "name": "id",
          "type": "uint256"
        },
        {
          "indexed": false,
          "internalType": "address",
          "name": "buyer",
          "type": "address"
        }
      ],
      "name": "boughtTrack",
      "type": "event"
    },
    {
      "anonymous": false,
      "inputs": [
        {
          "indexed": false,
          "internalType": "uint256",
          "name": "id",
          "type": "uint256"
        },
        {
          "indexed": false,
          "internalType": "string",
          "name": "name",
          "type": "string"
        },
        {
          "indexed": false,
          "internalType": "address",
          "name": "owner",
          "type": "address"
        }
      ],
      "name": "createdNFT",
      "type": "event"
    },
    {
      "anonymous": false,
      "inputs": [
        {
          "indexed": false,
          "internalType": "uint256",
          "name": "id",
          "type": "uint256"
        },
        {
          "indexed": false,
          "internalType": "uint256",
          "name": "nftID",
          "type": "uint256"
        },
        {
          "indexed": false,
          "internalType": "uint256",
          "name": "amount",
          "type": "uint256"
        },
        {
          "indexed": false,
          "internalType": "bool",
          "name": "approved",
          "type": "bool"
        }
      ],
      "name": "offerApproved",
      "type": "event"
    },
    {
      "anonymous": false,
      "inputs": [
        {
          "indexed": false,
          "internalType": "uint256",
          "name": "id",
          "type": "uint256"
        },
        {
          "indexed": false,
          "internalType": "uint256",
          "name": "newPrice",
          "type": "uint256"
        },
        {
          "indexed": false,
          "internalType": "bool",
          "name": "listed",
          "type": "bool"
        }
      ],
      "name": "setNFTPrice",
      "type": "event"
    },
    {
      "inputs": [
        {
          "internalType": "address",
          "name": "to",
          "type": "address"
        },
        {
          "internalType": "uint256",
          "name": "tokenId",
          "type": "uint256"
        }
      ],
      "name": "approve",
      "outputs": [],
      "stateMutability": "nonpayable",
      "type": "function"
    },
    {
      "inputs": [
        {
          "internalType": "address",
          "name": "owner",
          "type": "address"
        }
      ],
      "name": "balanceOf",
      "outputs": [
        {
          "internalType": "uint256",
          "name": "",
          "type": "uint256"
        }
      ],
      "stateMutability": "view",
      "type": "function"
    },
    {
      "inputs": [],
      "name": "baseURI",
      "outputs": [
        {
          "internalType": "string",
          "name": "",
          "type": "string"
        }
      ],
      "stateMutability": "view",
      "type": "function"
    },
    {
      "inputs": [
        {
          "internalType": "uint256",
          "name": "tokenId",
          "type": "uint256"
        }
      ],
      "name": "getApproved",
      "outputs": [
        {
          "internalType": "address",
          "name": "",
          "type": "address"
        }
      ],
      "stateMutability": "view",
      "type": "function"
    },
    {
      "inputs": [
        {
          "internalType": "address",
          "name": "owner",
          "type": "address"
        },
        {
          "internalType": "address",
          "name": "operator",
          "type": "address"
        }
      ],
      "name": "isApprovedForAll",
      "outputs": [
        {
          "internalType": "bool",
          "name": "",
          "type": "bool"
        }
      ],
      "stateMutability": "view",
      "type": "function"
    },
    {
      "inputs": [],
      "name": "name",
      "outputs": [
        {
          "internalType": "string",
          "name": "",
          "type": "string"
        }
      ],
      "stateMutability": "view",
      "type": "function"
    },
    {
      "inputs": [
        {
          "internalType": "uint256",
          "name": "",
          "type": "uint256"
        }
      ],
      "name": "nfts",
      "outputs": [
        {
          "internalType": "uint256",
          "name": "id",
          "type": "uint256"
        },
        {
          "internalType": "uint256",
          "name": "price",
          "type": "uint256"
        },
        {
          "internalType": "bool",
          "name": "isListed",
          "type": "bool"
        },
        {
          "internalType": "string",
          "name": "name",
          "type": "string"
        },
        {
          "internalType": "string",
          "name": "filecid",
          "type": "string"
        },
        {
          "internalType": "string",
          "name": "aName",
          "type": "string"
        },
        {
          "internalType": "address",
          "name": "artist",
          "type": "address"
        },
        {
          "internalType": "address",
          "name": "owner",
          "type": "address"
        }
      ],
      "stateMutability": "view",
      "type": "function"
    },
    {
      "inputs": [
        {
          "internalType": "uint256",
          "name": "",
          "type": "uint256"
        }
      ],
      "name": "offers",
      "outputs": [
        {
          "internalType": "uint256",
          "name": "id",
          "type": "uint256"
        },
        {
          "internalType": "uint256",
          "name": "nftID",
          "type": "uint256"
        },
        {
          "internalType": "uint256",
          "name": "offerAmount",
          "type": "uint256"
        },
        {
          "internalType": "address",
          "name": "bidder",
          "type": "address"
        },
        {
          "internalType": "address",
          "name": "institution",
          "type": "address"
        },
        {
          "internalType": "bool",
          "name": "isApproved",
          "type": "bool"
        }
      ],
      "stateMutability": "view",
      "type": "function"
    },
    {
      "inputs": [
        {
          "internalType": "uint256",
          "name": "tokenId",
          "type": "uint256"
        }
      ],
      "name": "ownerOf",
      "outputs": [
        {
          "internalType": "address",
          "name": "",
          "type": "address"
        }
      ],
      "stateMutability": "view",
      "type": "function"
    },
    {
      "inputs": [
        {
          "internalType": "address",
          "name": "from",
          "type": "address"
        },
        {
          "internalType": "address",
          "name": "to",
          "type": "address"
        },
        {
          "internalType": "uint256",
          "name": "tokenId",
          "type": "uint256"
        }
      ],
      "name": "safeTransferFrom",
      "outputs": [],
      "stateMutability": "nonpayable",
      "type": "function"
    },
    {
      "inputs": [
        {
          "internalType": "address",
          "name": "from",
          "type": "address"
        },
        {
          "internalType": "address",
          "name": "to",
          "type": "address"
        },
        {
          "internalType": "uint256",
          "name": "tokenId",
          "type": "uint256"
        },
        {
          "internalType": "bytes",
          "name": "_data",
          "type": "bytes"
        }
      ],
      "name": "safeTransferFrom",
      "outputs": [],
      "stateMutability": "nonpayable",
      "type": "function"
    },
    {
      "inputs": [
        {
          "internalType": "address",
          "name": "operator",
          "type": "address"
        },
        {
          "internalType": "bool",
          "name": "approved",
          "type": "bool"
        }
      ],
      "name": "setApprovalForAll",
      "outputs": [],
      "stateMutability": "nonpayable",
      "type": "function"
    },
    {
      "inputs": [
        {
          "internalType": "bytes4",
          "name": "interfaceId",
          "type": "bytes4"
        }
      ],
      "name": "supportsInterface",
      "outputs": [
        {
          "internalType": "bool",
          "name": "",
          "type": "bool"
        }
      ],
      "stateMutability": "view",
      "type": "function"
    },
    {
      "inputs": [],
      "name": "symbol",
      "outputs": [
        {
          "internalType": "string",
          "name": "",
          "type": "string"
        }
      ],
      "stateMutability": "view",
      "type": "function"
    },
    {
      "inputs": [
        {
          "internalType": "uint256",
          "name": "index",
          "type": "uint256"
        }
      ],
      "name": "tokenByIndex",
      "outputs": [
        {
          "internalType": "uint256",
          "name": "",
          "type": "uint256"
        }
      ],
      "stateMutability": "view",
      "type": "function"
    },
    {
      "inputs": [
        {
          "internalType": "address",
          "name": "owner",
          "type": "address"
        },
        {
          "internalType": "uint256",
          "name": "index",
          "type": "uint256"
        }
      ],
      "name": "tokenOfOwnerByIndex",
      "outputs": [
        {
          "internalType": "uint256",
          "name": "",
          "type": "uint256"
        }
      ],
      "stateMutability": "view",
      "type": "function"
    },
    {
      "inputs": [
        {
          "internalType": "uint256",
          "name": "tokenId",
          "type": "uint256"
        }
      ],
      "name": "tokenURI",
      "outputs": [
        {
          "internalType": "string",
          "name": "",
          "type": "string"
        }
      ],
      "stateMutability": "view",
      "type": "function"
    },
    {
      "inputs": [],
      "name": "totalSupply",
      "outputs": [
        {
          "internalType": "uint256",
          "name": "",
          "type": "uint256"
        }
      ],
      "stateMutability": "view",
      "type": "function"
    },
    {
      "inputs": [
        {
          "internalType": "address",
          "name": "from",
          "type": "address"
        },
        {
          "internalType": "address",
          "name": "to",
          "type": "address"
        },
        {
          "internalType": "uint256",
          "name": "tokenId",
          "type": "uint256"
        }
      ],
      "name": "transferFrom",
      "outputs": [],
      "stateMutability": "nonpayable",
      "type": "function"
    },
    {
      "inputs": [
        {
          "internalType": "string",
          "name": "_name",
          "type": "string"
        }
      ],
      "name": "registerArtist",
      "outputs": [],
      "stateMutability": "nonpayable",
      "type": "function"
    },
    {
      "inputs": [
        {
          "internalType": "string",
          "name": "_name",
          "type": "string"
        },
        {
          "internalType": "string",
          "name": "_filecid",
          "type": "string"
        }
      ],
      "name": "createNFT",
      "outputs": [],
      "stateMutability": "nonpayable",
      "type": "function"
    },
    {
      "inputs": [
        {
          "internalType": "uint256",
          "name": "_id",
          "type": "uint256"
        },
        {
          "internalType": "uint256",
          "name": "_price",
          "type": "uint256"
        }
      ],
      "name": "setPrice",
      "outputs": [],
      "stateMutability": "nonpayable",
      "type": "function"
    },
    {
      "inputs": [
        {
          "internalType": "uint256",
          "name": "_tid",
          "type": "uint256"
        },
        {
          "internalType": "uint256",
          "name": "_amount",
          "type": "uint256"
        }
      ],
      "name": "makeOffer",
      "outputs": [],
      "stateMutability": "payable",
      "type": "function"
    },
    {
      "inputs": [
        {
          "internalType": "uint256",
          "name": "_id",
          "type": "uint256"
        }
      ],
      "name": "approveOffer",
      "outputs": [],
      "stateMutability": "nonpayable",
      "type": "function"
    },
    {
      "inputs": [
        {
          "internalType": "uint256",
          "name": "_id",
          "type": "uint256"
        }
      ],
      "name": "buyTrack",
      "outputs": [],
      "stateMutability": "payable",
      "type": "function"
    }
  ],
  "bytecode": "0x60806040523480156200001157600080fd5b506040518060400160405280600d81526020017f476f6f6477696c6c436861696e000000000000000000000000000000000000008152506040518060400160405280600281526020017f4743000000000000000000000000000000000000000000000000000000000000815250620000966301ffc9a760e01b6200011860201b60201c565b8160069080519060200190620000ae92919062000221565b508060079080519060200190620000c792919062000221565b50620000e06380ac58cd60e01b6200011860201b60201c565b620000f8635b5e139f60e01b6200011860201b60201c565b6200011063780e9d6360e01b6200011860201b60201c565b5050620002c7565b63ffffffff60e01b817bffffffffffffffffffffffffffffffffffffffffffffffffffffffff19161415620001b5576040517f08c379a000000000000000000000000000000000000000000000000000000000815260040180806020018281038252601c8152602001807f4552433136353a20696e76616c696420696e746572666163652069640000000081525060200191505060405180910390fd5b6001600080837bffffffffffffffffffffffffffffffffffffffffffffffffffffffff19167bffffffffffffffffffffffffffffffffffffffffffffffffffffffff1916815260200190815260200160002060006101000a81548160ff02191690831515021790555050565b828054600181600116156101000203166002900490600052602060002090601f016020900481019282601f106200026457805160ff191683800117855562000295565b8280016001018555821562000295579182015b828111156200029457825182559160200191906001019062000277565b5b509050620002a49190620002a8565b5090565b5b80821115620002c3576000816000905550600101620002a9565b5090565b61401e80620002d76000396000f3fe6080604052600436106101665760003560e01c806368613d17116100d15780639a973fe51161008a578063b88d4fde11610064578063b88d4fde14610c96578063c87b56dd14610da8578063e985e9c514610e5c578063f7d9757714610ee357610166565b80639a973fe514610bd0578063a22cb46514610bfe578063a5d7c10a14610c5b57610166565b806368613d17146107845780636c0360eb146108e357806370a08231146109735780638a72ea6a146109d85780639355d41914610a7857806395d89b4114610b4057610166565b806323b872dd1161012357806323b872dd1461038e578063265aa621146104095780632f745c59146105e657806342842e0e146106555780634f6ccce7146106d05780636352211e1461071f57610166565b806301ffc9a71461016b57806305b7cdd3146101db57806306fdde0314610213578063081812fc146102a3578063095ea7b31461030857806318160ddd14610363575b600080fd5b34801561017757600080fd5b506101c36004803603602081101561018e57600080fd5b8101908080357bffffffffffffffffffffffffffffffffffffffffffffffffffffffff19169060200190929190505050610f28565b60405180821515815260200191505060405180910390f35b610211600480360360408110156101f157600080fd5b810190808035906020019092919080359060200190929190505050610f8f565b005b34801561021f57600080fd5b506102286111c5565b6040518080602001828103825283818151815260200191508051906020019080838360005b8381101561026857808201518184015260208101905061024d565b50505050905090810190601f1680156102955780820380516001836020036101000a031916815260200191505b509250505060405180910390f35b3480156102af57600080fd5b506102dc600480360360208110156102c657600080fd5b8101908080359060200190929190505050611267565b604051808273ffffffffffffffffffffffffffffffffffffffff16815260200191505060405180910390f35b34801561031457600080fd5b506103616004803603604081101561032b57600080fd5b81019080803573ffffffffffffffffffffffffffffffffffffffff16906020019092919080359060200190929190505050611302565b005b34801561036f57600080fd5b50610378611446565b6040518082815260200191505060405180910390f35b34801561039a57600080fd5b50610407600480360360608110156103b157600080fd5b81019080803573ffffffffffffffffffffffffffffffffffffffff169060200190929190803573ffffffffffffffffffffffffffffffffffffffff16906020019092919080359060200190929190505050611457565b005b34801561041557600080fd5b506104426004803603602081101561042c57600080fd5b81019080803590602001909291905050506114cd565b6040518089815260200188815260200187151581526020018060200180602001806020018673ffffffffffffffffffffffffffffffffffffffff1681526020018573ffffffffffffffffffffffffffffffffffffffff168152602001848103845289818151815260200191508051906020019080838360005b838110156104d65780820151818401526020810190506104bb565b50505050905090810190601f1680156105035780820380516001836020036101000a031916815260200191505b50848103835288818151815260200191508051906020019080838360005b8381101561053c578082015181840152602081019050610521565b50505050905090810190601f1680156105695780820380516001836020036101000a031916815260200191505b50848103825287818151815260200191508051906020019080838360005b838110156105a2578082015181840152602081019050610587565b50505050905090810190601f1680156105cf5780820380516001836020036101000a031916815260200191505b509b50505050505050505050505060405180910390f35b3480156105f257600080fd5b5061063f6004803603604081101561060957600080fd5b81019080803573ffffffffffffffffffffffffffffffffffffffff1690602001909291908035906020019092919050505061172a565b6040518082815260200191505060405180910390f35b34801561066157600080fd5b506106ce6004803603606081101561067857600080fd5b81019080803573ffffffffffffffffffffffffffffffffffffffff169060200190929190803573ffffffffffffffffffffffffffffffffffffffff16906020019092919080359060200190929190505050611785565b005b3480156106dc57600080fd5b50610709600480360360208110156106f357600080fd5b81019080803590602001909291905050506117a5565b6040518082815260200191505060405180910390f35b34801561072b57600080fd5b506107586004803603602081101561074257600080fd5b81019080803590602001909291905050506117c8565b604051808273ffffffffffffffffffffffffffffffffffffffff16815260200191505060405180910390f35b34801561079057600080fd5b506108e1600480360360408110156107a757600080fd5b81019080803590602001906401000000008111156107c457600080fd5b8201836020820111156107d657600080fd5b803590602001918460018302840111640100000000831117156107f857600080fd5b91908080601f016020809104026020016040519081016040528093929190818152602001838380828437600081840152601f19601f8201169050808301925050505050505091929192908035906020019064010000000081111561085b57600080fd5b82018360208201111561086d57600080fd5b8035906020019184600183028401116401000000008311171561088f57600080fd5b91908080601f016020809104026020016040519081016040528093929190818152602001838380828437600081840152601f19601f8201169050808301925050505050505091929192905050506117ff565b005b3480156108ef57600080fd5b506108f8611c55565b6040518080602001828103825283818151815260200191508051906020019080838360005b8381101561093857808201518184015260208101905061091d565b50505050905090810190601f1680156109655780820380516001836020036101000a031916815260200191505b509250505060405180910390f35b34801561097f57600080fd5b506109c26004803603602081101561099657600080fd5b81019080803573ffffffffffffffffffffffffffffffffffffffff169060200190929190505050611cf7565b6040518082815260200191505060405180910390f35b3480156109e457600080fd5b50610a11600480360360208110156109fb57600080fd5b8101908080359060200190929190505050611dcc565b604051808781526020018681526020018581526020018473ffffffffffffffffffffffffffffffffffffffff1681526020018373ffffffffffffffffffffffffffffffffffffffff1681526020018215158152602001965050505050505060405180910390f35b348015610a8457600080fd5b50610b3e60048036036020811015610a9b57600080fd5b8101908080359060200190640100000000811115610ab857600080fd5b820183602082011115610aca57600080fd5b80359060200191846001830284011164010000000083111715610aec57600080fd5b91908080601f016020809104026020016040519081016040528093929190818152602001838380828437600081840152601f19601f820116905080830192505050505050509192919290505050611e55565b005b348015610b4c57600080fd5b50610b55611eac565b6040518080602001828103825283818151815260200191508051906020019080838360005b83811015610b95578082015181840152602081019050610b7a565b50505050905090810190601f168015610bc25780820380516001836020036101000a031916815260200191505b509250505060405180910390f35b610bfc60048036036020811015610be657600080fd5b8101908080359060200190929190505050611f4e565b005b348015610c0a57600080fd5b50610c5960048036036040811015610c2157600080fd5b81019080803573ffffffffffffffffffffffffffffffffffffffff1690602001909291908035151590602001909291905050506121cf565b005b348015610c6757600080fd5b50610c9460048036036020811015610c7e57600080fd5b8101908080359060200190929190505050612385565b005b348015610ca257600080fd5b50610da660048036036080811015610cb957600080fd5b81019080803573ffffffffffffffffffffffffffffffffffffffff169060200190929190803573ffffffffffffffffffffffffffffffffffffffff1690602001909291908035906020019092919080359060200190640100000000811115610d2057600080fd5b820183602082011115610d3257600080fd5b80359060200191846001830284011164010000000083111715610d5457600080fd5b91908080601f016020809104026020016040519081016040528093929190818152602001838380828437600081840152601f19601f8201169050808301925050505050505091929192905050506124af565b005b348015610db457600080fd5b50610de160048036036020811015610dcb57600080fd5b8101908080359060200190929190505050612527565b6040518080602001828103825283818151815260200191508051906020019080838360005b83811015610e21578082015181840152602081019050610e06565b50505050905090810190601f168015610e4e5780820380516001836020036101000a031916815260200191505b509250505060405180910390f35b348015610e6857600080fd5b50610ecb60048036036040811015610e7f57600080fd5b81019080803573ffffffffffffffffffffffffffffffffffffffff169060200190929190803573ffffffffffffffffffffffffffffffffffffffff1690602001909291905050506127f8565b60405180821515815260200191505060405180910390f35b348015610eef57600080fd5b50610f2660048036036040811015610f0657600080fd5b81019080803590602001909291908035906020019092919050505061288c565b005b6000806000837bffffffffffffffffffffffffffffffffffffffffffffffffffffffff19167bffffffffffffffffffffffffffffffffffffffffffffffffffffffff1916815260200190815260200160002060009054906101000a900460ff169050919050565b81600081118015610fa25750600a548111155b610fab57600080fd5b600d6000848152602001908152602001600020600101548211611036576040517f08c379a000000000000000000000000000000000000000000000000000000000815260040180806020018281038252600d8152602001807f496e76616c6964206f666665720000000000000000000000000000000000000081525060200191505060405180910390fd5b600b600081548092919060010191905055506040518060c00160405280600b5481526020018481526020018381526020013373ffffffffffffffffffffffffffffffffffffffff168152602001600d600086815260200190815260200160002060070160009054906101000a900473ffffffffffffffffffffffffffffffffffffffff1673ffffffffffffffffffffffffffffffffffffffff16815260200160001515815250600e6000600b54815260200190815260200160002060008201518160000155602082015181600101556040820151816002015560608201518160030160006101000a81548173ffffffffffffffffffffffffffffffffffffffff021916908373ffffffffffffffffffffffffffffffffffffffff16021790555060808201518160040160006101000a81548173ffffffffffffffffffffffffffffffffffffffff021916908373ffffffffffffffffffffffffffffffffffffffff16021790555060a08201518160040160146101000a81548160ff021916908315150217905550905050505050565b606060068054600181600116156101000203166002900480601f01602080910402602001604051908101604052809291908181526020018280546001816001161561010002031660029004801561125d5780601f106112325761010080835404028352916020019161125d565b820191906000526020600020905b81548152906001019060200180831161124057829003601f168201915b5050505050905090565b600061127282612979565b6112c7576040517f08c379a000000000000000000000000000000000000000000000000000000000815260040180806020018281038252602c815260200180613ee7602c913960400191505060405180910390fd5b6004600083815260200190815260200160002060009054906101000a900473ffffffffffffffffffffffffffffffffffffffff169050919050565b600061130d826117c8565b90508073ffffffffffffffffffffffffffffffffffffffff168373ffffffffffffffffffffffffffffffffffffffff161415611394576040517f08c379a0000000000000000000000000000000000000000000000000000000008152600401808060200182810382526021815260200180613f976021913960400191505060405180910390fd5b8073ffffffffffffffffffffffffffffffffffffffff166113b3612996565b73ffffffffffffffffffffffffffffffffffffffff1614806113e257506113e1816113dc612996565b6127f8565b5b611437576040517f08c379a0000000000000000000000000000000000000000000000000000000008152600401808060200182810382526038815260200180613e3a6038913960400191505060405180910390fd5b611441838361299e565b505050565b60006114526002612a57565b905090565b611468611462612996565b82612a6c565b6114bd576040517f08c379a0000000000000000000000000000000000000000000000000000000008152600401808060200182810382526031815260200180613fb86031913960400191505060405180910390fd5b6114c8838383612b60565b505050565b600d6020528060005260406000206000915090508060000154908060010154908060020160009054906101000a900460ff1690806003018054600181600116156101000203166002900480601f0160208091040260200160405190810160405280929190818152602001828054600181600116156101000203166002900480156115985780601f1061156d57610100808354040283529160200191611598565b820191906000526020600020905b81548152906001019060200180831161157b57829003601f168201915b505050505090806004018054600181600116156101000203166002900480601f0160208091040260200160405190810160405280929190818152602001828054600181600116156101000203166002900480156116365780601f1061160b57610100808354040283529160200191611636565b820191906000526020600020905b81548152906001019060200180831161161957829003601f168201915b505050505090806005018054600181600116156101000203166002900480601f0160208091040260200160405190810160405280929190818152602001828054600181600116156101000203166002900480156116d45780601f106116a9576101008083540402835291602001916116d4565b820191906000526020600020905b8154815290600101906020018083116116b757829003601f168201915b5050505050908060060160009054906101000a900473ffffffffffffffffffffffffffffffffffffffff16908060070160009054906101000a900473ffffffffffffffffffffffffffffffffffffffff16905088565b600061177d82600160008673ffffffffffffffffffffffffffffffffffffffff1673ffffffffffffffffffffffffffffffffffffffff168152602001908152602001600020612da390919063ffffffff16565b905092915050565b6117a0838383604051806020016040528060008152506124af565b505050565b6000806117bc836002612dbd90919063ffffffff16565b50905080915050919050565b60006117f882604051806060016040528060298152602001613e9c602991396002612de99092919063ffffffff16565b9050919050565b60008251118015611811575060008151115b611883576040517f08c379a00000000000000000000000000000000000000000000000000000000081526004018080602001828103825260168152602001807f4e616d6520616e642066696c652072657175697265640000000000000000000081525060200191505060405180910390fd5b600a600081548092919060010191905055506118a133600a54612e08565b6118ad600a5482612e26565b604051806101000160405280600a54815260200160008152602001600015158152602001838152602001828152602001600c60003373ffffffffffffffffffffffffffffffffffffffff1673ffffffffffffffffffffffffffffffffffffffff1681526020019081526020016000208054600181600116156101000203166002900480601f0160208091040260200160405190810160405280929190818152602001828054600181600116156101000203166002900480156119b05780601f10611985576101008083540402835291602001916119b0565b820191906000526020600020905b81548152906001019060200180831161199357829003601f168201915b505050505081526020013373ffffffffffffffffffffffffffffffffffffffff1681526020013373ffffffffffffffffffffffffffffffffffffffff16815250600d6000600a548152602001908152602001600020600082015181600001556020820151816001015560408201518160020160006101000a81548160ff0219169083151502179055506060820151816003019080519060200190611a55929190613cd2565b506080820151816004019080519060200190611a72929190613cd2565b5060a0820151816005019080519060200190611a8f929190613cd2565b5060c08201518160060160006101000a81548173ffffffffffffffffffffffffffffffffffffffff021916908373ffffffffffffffffffffffffffffffffffffffff16021790555060e08201518160070160006101000a81548173ffffffffffffffffffffffffffffffffffffffff021916908373ffffffffffffffffffffffffffffffffffffffff1602179055509050507f46105344ed3331765044bf4b72ec3e7a557e442f12f5ca07855f406b15eb7944600a54600d6000600a548152602001908152602001600020600301600d6000600a54815260200190815260200160002060070160009054906101000a900473ffffffffffffffffffffffffffffffffffffffff1660405180848152602001806020018373ffffffffffffffffffffffffffffffffffffffff168152602001828103825284818154600181600116156101000203166002900481526020019150805460018160011615610100020316600290048015611c415780601f10611c1657610100808354040283529160200191611c41565b820191906000526020600020905b815481529060010190602001808311611c2457829003601f168201915b505094505050505060405180910390a15050565b606060098054600181600116156101000203166002900480601f016020809104026020016040519081016040528092919081815260200182805460018160011615610100020316600290048015611ced5780601f10611cc257610100808354040283529160200191611ced565b820191906000526020600020905b815481529060010190602001808311611cd057829003601f168201915b5050505050905090565b60008073ffffffffffffffffffffffffffffffffffffffff168273ffffffffffffffffffffffffffffffffffffffff161415611d7e576040517f08c379a000000000000000000000000000000000000000000000000000000000815260040180806020018281038252602a815260200180613e72602a913960400191505060405180910390fd5b611dc5600160008473ffffffffffffffffffffffffffffffffffffffff1673ffffffffffffffffffffffffffffffffffffffff168152602001908152602001600020612eb0565b9050919050565b600e6020528060005260406000206000915090508060000154908060010154908060020154908060030160009054906101000a900473ffffffffffffffffffffffffffffffffffffffff16908060040160009054906101000a900473ffffffffffffffffffffffffffffffffffffffff16908060040160149054906101000a900460ff16905086565b80600c60003373ffffffffffffffffffffffffffffffffffffffff1673ffffffffffffffffffffffffffffffffffffffff1681526020019081526020016000209080519060200190611ea8929190613cd2565b5050565b606060078054600181600116156101000203166002900480601f016020809104026020016040519081016040528092919081815260200182805460018160011615610100020316600290048015611f445780601f10611f1957610100808354040283529160200191611f44565b820191906000526020600020905b815481529060010190602001808311611f2757829003601f168201915b5050505050905090565b80600081118015611f615750600a548111155b611f6a57600080fd5b6000601060009054906101000a900473ffffffffffffffffffffffffffffffffffffffff1673ffffffffffffffffffffffffffffffffffffffff163460405180600001905060006040518083038185875af1925050503d8060008114611fec576040519150601f19603f3d011682016040523d82523d6000602084013e611ff1565b606091505b50509050600115158115151461206f576040517f08c379a00000000000000000000000000000000000000000000000000000000081526004018080602001828103825260088152602001807f4e6f742073656e7400000000000000000000000000000000000000000000000081525060200191505060405180910390fd5b34600f5401600f819055506120bb600d600085815260200190815260200160002060070160009054906101000a900473ffffffffffffffffffffffffffffffffffffffff163385611785565b33600d600085815260200190815260200160002060070160006101000a81548173ffffffffffffffffffffffffffffffffffffffff021916908373ffffffffffffffffffffffffffffffffffffffff1602179055506000600d600085815260200190815260200160002060020160006101000a81548160ff0219169083151502179055507f7ea941d0f3c76988413ca30e91d3306ccbc25d42204bce6d66e006cbe3a5898f83600d600086815260200190815260200160002060070160009054906101000a900473ffffffffffffffffffffffffffffffffffffffff16604051808381526020018273ffffffffffffffffffffffffffffffffffffffff1681526020019250505060405180910390a1505050565b6121d7612996565b73ffffffffffffffffffffffffffffffffffffffff168273ffffffffffffffffffffffffffffffffffffffff161415612278576040517f08c379a00000000000000000000000000000000000000000000000000000000081526004018080602001828103825260198152602001807f4552433732313a20617070726f766520746f2063616c6c65720000000000000081525060200191505060405180910390fd5b8060056000612285612996565b73ffffffffffffffffffffffffffffffffffffffff1673ffffffffffffffffffffffffffffffffffffffff16815260200190815260200160002060008473ffffffffffffffffffffffffffffffffffffffff1673ffffffffffffffffffffffffffffffffffffffff16815260200190815260200160002060006101000a81548160ff0219169083151502179055508173ffffffffffffffffffffffffffffffffffffffff16612332612996565b73ffffffffffffffffffffffffffffffffffffffff167f17307eab39ab6107e8899845ad3d59bd9653f200f220920489ca2b5937696c318360405180821515815260200191505060405180910390a35050565b6123db600e600083815260200190815260200160002060030160009054906101000a900473ffffffffffffffffffffffffffffffffffffffff16600e600084815260200190815260200160002060010154611302565b6001600e600083815260200190815260200160002060040160146101000a81548160ff0219169083151502179055507f5c4f70ff596ce241d7ad104127f1259923c5986caf00b8e01cbd0759b5f01789600b54600e600084815260200190815260200160002060010154600e600085815260200190815260200160002060020154600e600086815260200190815260200160002060040160149054906101000a900460ff1660405180858152602001848152602001838152602001821515815260200194505050505060405180910390a150565b6124c06124ba612996565b83612a6c565b612515576040517f08c379a0000000000000000000000000000000000000000000000000000000008152600401808060200182810382526031815260200180613fb86031913960400191505060405180910390fd5b61252184848484612ec5565b50505050565b606061253282612979565b612587576040517f08c379a000000000000000000000000000000000000000000000000000000000815260040180806020018281038252602f815260200180613f68602f913960400191505060405180910390fd5b6060600860008481526020019081526020016000208054600181600116156101000203166002900480601f0160208091040260200160405190810160405280929190818152602001828054600181600116156101000203166002900480156126305780601f1061260557610100808354040283529160200191612630565b820191906000526020600020905b81548152906001019060200180831161261357829003601f168201915b505050505090506060612641611c55565b90506000815114156126575781925050506127f3565b6000825111156127285780826040516020018083805190602001908083835b602083106126995780518252602082019150602081019050602083039250612676565b6001836020036101000a03801982511681845116808217855250505050505090500182805190602001908083835b602083106126ea57805182526020820191506020810190506020830392506126c7565b6001836020036101000a03801982511681845116808217855250505050505090500192505050604051602081830303815290604052925050506127f3565b8061273285612f37565b6040516020018083805190602001908083835b602083106127685780518252602082019150602081019050602083039250612745565b6001836020036101000a03801982511681845116808217855250505050505090500182805190602001908083835b602083106127b95780518252602082019150602081019050602083039250612796565b6001836020036101000a03801982511681845116808217855250505050505090500192505050604051602081830303815290604052925050505b919050565b6000600560008473ffffffffffffffffffffffffffffffffffffffff1673ffffffffffffffffffffffffffffffffffffffff16815260200190815260200160002060008373ffffffffffffffffffffffffffffffffffffffff1673ffffffffffffffffffffffffffffffffffffffff16815260200190815260200160002060009054906101000a900460ff16905092915050565b8160008111801561289f5750600a548111155b6128a857600080fd5b6001600d600085815260200190815260200160002060020160006101000a81548160ff02191690831515021790555081600d6000858152602001908152602001600020600101819055507f096ceeac840dccf38e32aa131064765c29af2796d70c0788c8d227db3920fe9e83600d600086815260200190815260200160002060010154600d600087815260200190815260200160002060020160009054906101000a900460ff16604051808481526020018381526020018215158152602001935050505060405180910390a1505050565b600061298f82600261307e90919063ffffffff16565b9050919050565b600033905090565b816004600083815260200190815260200160002060006101000a81548173ffffffffffffffffffffffffffffffffffffffff021916908373ffffffffffffffffffffffffffffffffffffffff160217905550808273ffffffffffffffffffffffffffffffffffffffff16612a11836117c8565b73ffffffffffffffffffffffffffffffffffffffff167f8c5be1e5ebec7d5bd14f71427d1e84f3dd0314c0f7b2291e5b200ac8c7c3b92560405160405180910390a45050565b6000612a6582600001613098565b9050919050565b6000612a7782612979565b612acc576040517f08c379a000000000000000000000000000000000000000000000000000000000815260040180806020018281038252602c815260200180613e0e602c913960400191505060405180910390fd5b6000612ad7836117c8565b90508073ffffffffffffffffffffffffffffffffffffffff168473ffffffffffffffffffffffffffffffffffffffff161480612b4657508373ffffffffffffffffffffffffffffffffffffffff16612b2e84611267565b73ffffffffffffffffffffffffffffffffffffffff16145b80612b575750612b5681856127f8565b5b91505092915050565b8273ffffffffffffffffffffffffffffffffffffffff16612b80826117c8565b73ffffffffffffffffffffffffffffffffffffffff1614612bec576040517f08c379a0000000000000000000000000000000000000000000000000000000008152600401808060200182810382526029815260200180613f3f6029913960400191505060405180910390fd5b600073ffffffffffffffffffffffffffffffffffffffff168273ffffffffffffffffffffffffffffffffffffffff161415612c72576040517f08c379a0000000000000000000000000000000000000000000000000000000008152600401808060200182810382526024815260200180613dc46024913960400191505060405180910390fd5b612c7d8383836130a9565b612c8860008261299e565b612cd981600160008673ffffffffffffffffffffffffffffffffffffffff1673ffffffffffffffffffffffffffffffffffffffff1681526020019081526020016000206130ae90919063ffffffff16565b50612d2b81600160008573ffffffffffffffffffffffffffffffffffffffff1673ffffffffffffffffffffffffffffffffffffffff1681526020019081526020016000206130c890919063ffffffff16565b50612d42818360026130e29092919063ffffffff16565b50808273ffffffffffffffffffffffffffffffffffffffff168473ffffffffffffffffffffffffffffffffffffffff167fddf252ad1be2c89b69c2b068fc378daa952ba7f163c4a11628f55a4df523b3ef60405160405180910390a4505050565b6000612db28360000183613117565b60001c905092915050565b600080600080612dd0866000018661319a565b915091508160001c8160001c9350935050509250929050565b6000612dfc846000018460001b84613233565b60001c90509392505050565b612e22828260405180602001604052806000815250613329565b5050565b612e2f82612979565b612e84576040517f08c379a000000000000000000000000000000000000000000000000000000000815260040180806020018281038252602c815260200180613f13602c913960400191505060405180910390fd5b80600860008481526020019081526020016000209080519060200190612eab929190613cd2565b505050565b6000612ebe8260000161339a565b9050919050565b612ed0848484612b60565b612edc848484846133ab565b612f31576040517f08c379a0000000000000000000000000000000000000000000000000000000008152600401808060200182810382526032815260200180613d926032913960400191505060405180910390fd5b50505050565b60606000821415612f7f576040518060400160405280600181526020017f30000000000000000000000000000000000000000000000000000000000000008152509050613079565b600082905060005b60008214612fa9578080600101915050600a8281612fa157fe5b049150612f87565b60608167ffffffffffffffff81118015612fc257600080fd5b506040519080825280601f01601f191660200182016040528015612ff55781602001600182028036833780820191505090505b50905060006001830390508593505b6000841461307157600a848161301657fe5b0660300160f81b8282806001900393508151811061303057fe5b60200101907effffffffffffffffffffffffffffffffffffffffffffffffffffffffffffff1916908160001a905350600a848161306957fe5b049350613004565b819450505050505b919050565b6000613090836000018360001b6135c4565b905092915050565b600081600001805490509050919050565b505050565b60006130c0836000018360001b6135e7565b905092915050565b60006130da836000018360001b6136cf565b905092915050565b600061310e846000018460001b8473ffffffffffffffffffffffffffffffffffffffff1660001b61373f565b90509392505050565b600081836000018054905011613178576040517f08c379a0000000000000000000000000000000000000000000000000000000008152600401808060200182810382526022815260200180613d706022913960400191505060405180910390fd5b82600001828154811061318757fe5b9060005260206000200154905092915050565b600080828460000180549050116131fc576040517f08c379a0000000000000000000000000000000000000000000000000000000008152600401808060200182810382526022815260200180613ec56022913960400191505060405180910390fd5b600084600001848154811061320d57fe5b906000526020600020906002020190508060000154816001015492509250509250929050565b600080846001016000858152602001908152602001600020549050600081141583906132fa576040517f08c379a00000000000000000000000000000000000000000000000000000000081526004018080602001828103825283818151815260200191508051906020019080838360005b838110156132bf5780820151818401526020810190506132a4565b50505050905090810190601f1680156132ec5780820380516001836020036101000a031916815260200191505b509250505060405180910390fd5b5084600001600182038154811061330d57fe5b9060005260206000209060020201600101549150509392505050565b613333838361381b565b61334060008484846133ab565b613395576040517f08c379a0000000000000000000000000000000000000000000000000000000008152600401808060200182810382526032815260200180613d926032913960400191505060405180910390fd5b505050565b600081600001805490509050919050565b60006133cc8473ffffffffffffffffffffffffffffffffffffffff16613a0f565b6133d957600190506135bc565b606061354363150b7a0260e01b6133ee612996565b888787604051602401808573ffffffffffffffffffffffffffffffffffffffff1681526020018473ffffffffffffffffffffffffffffffffffffffff16815260200183815260200180602001828103825283818151815260200191508051906020019080838360005b83811015613472578082015181840152602081019050613457565b50505050905090810190601f16801561349f5780820380516001836020036101000a031916815260200191505b5095505050505050604051602081830303815290604052907bffffffffffffffffffffffffffffffffffffffffffffffffffffffff19166020820180517bffffffffffffffffffffffffffffffffffffffffffffffffffffffff8381831617835250505050604051806060016040528060328152602001613d92603291398773ffffffffffffffffffffffffffffffffffffffff16613a229092919063ffffffff16565b9050600081806020019051602081101561355c57600080fd5b8101908080519060200190929190505050905063150b7a0260e01b7bffffffffffffffffffffffffffffffffffffffffffffffffffffffff1916817bffffffffffffffffffffffffffffffffffffffffffffffffffffffff191614925050505b949350505050565b600080836001016000848152602001908152602001600020541415905092915050565b600080836001016000848152602001908152602001600020549050600081146136c3576000600182039050600060018660000180549050039050600086600001828154811061363257fe5b906000526020600020015490508087600001848154811061364f57fe5b906000526020600020018190555060018301876001016000838152602001908152602001600020819055508660000180548061368757fe5b600190038181906000526020600020016000905590558660010160008781526020019081526020016000206000905560019450505050506136c9565b60009150505b92915050565b60006136db8383613a3a565b613734578260000182908060018154018082558091505060019003906000526020600020016000909190919091505582600001805490508360010160008481526020019081526020016000208190555060019050613739565b600090505b92915050565b60008084600101600085815260200190815260200160002054905060008114156137e657846000016040518060400160405280868152602001858152509080600181540180825580915050600190039060005260206000209060020201600090919091909150600082015181600001556020820151816001015550508460000180549050856001016000868152602001908152602001600020819055506001915050613814565b828560000160018303815481106137f957fe5b90600052602060002090600202016001018190555060009150505b9392505050565b600073ffffffffffffffffffffffffffffffffffffffff168273ffffffffffffffffffffffffffffffffffffffff1614156138be576040517f08c379a00000000000000000000000000000000000000000000000000000000081526004018080602001828103825260208152602001807f4552433732313a206d696e7420746f20746865207a65726f206164647265737381525060200191505060405180910390fd5b6138c781612979565b1561393a576040517f08c379a000000000000000000000000000000000000000000000000000000000815260040180806020018281038252601c8152602001807f4552433732313a20746f6b656e20616c7265616479206d696e7465640000000081525060200191505060405180910390fd5b613946600083836130a9565b61399781600160008573ffffffffffffffffffffffffffffffffffffffff1673ffffffffffffffffffffffffffffffffffffffff1681526020019081526020016000206130c890919063ffffffff16565b506139ae818360026130e29092919063ffffffff16565b50808273ffffffffffffffffffffffffffffffffffffffff16600073ffffffffffffffffffffffffffffffffffffffff167fddf252ad1be2c89b69c2b068fc378daa952ba7f163c4a11628f55a4df523b3ef60405160405180910390a45050565b600080823b905060008111915050919050565b6060613a318484600085613a5d565b90509392505050565b600080836001016000848152602001908152602001600020541415905092915050565b606082471015613ab8576040517f08c379a0000000000000000000000000000000000000000000000000000000008152600401808060200182810382526026815260200180613de86026913960400191505060405180910390fd5b613ac185613a0f565b613b33576040517f08c379a000000000000000000000000000000000000000000000000000000000815260040180806020018281038252601d8152602001807f416464726573733a2063616c6c20746f206e6f6e2d636f6e747261637400000081525060200191505060405180910390fd5b600060608673ffffffffffffffffffffffffffffffffffffffff1685876040518082805190602001908083835b60208310613b835780518252602082019150602081019050602083039250613b60565b6001836020036101000a03801982511681845116808217855250505050505090500191505060006040518083038185875af1925050503d8060008114613be5576040519150601f19603f3d011682016040523d82523d6000602084013e613bea565b606091505b5091509150613bfa828286613c06565b92505050949350505050565b60608315613c1657829050613ccb565b600083511115613c295782518084602001fd5b816040517f08c379a00000000000000000000000000000000000000000000000000000000081526004018080602001828103825283818151815260200191508051906020019080838360005b83811015613c90578082015181840152602081019050613c75565b50505050905090810190601f168015613cbd5780820380516001836020036101000a031916815260200191505b509250505060405180910390fd5b9392505050565b828054600181600116156101000203166002900490600052602060002090601f016020900481019282601f10613d1357805160ff1916838001178555613d41565b82800160010185558215613d41579182015b82811115613d40578251825591602001919060010190613d25565b5b509050613d4e9190613d52565b5090565b5b80821115613d6b576000816000905550600101613d53565b509056fe456e756d657261626c655365743a20696e646578206f7574206f6620626f756e64734552433732313a207472616e7366657220746f206e6f6e20455243373231526563656976657220696d706c656d656e7465724552433732313a207472616e7366657220746f20746865207a65726f2061646472657373416464726573733a20696e73756666696369656e742062616c616e636520666f722063616c6c4552433732313a206f70657261746f7220717565727920666f72206e6f6e6578697374656e7420746f6b656e4552433732313a20617070726f76652063616c6c6572206973206e6f74206f776e6572206e6f7220617070726f76656420666f7220616c6c4552433732313a2062616c616e636520717565727920666f7220746865207a65726f20616464726573734552433732313a206f776e657220717565727920666f72206e6f6e6578697374656e7420746f6b656e456e756d657261626c654d61703a20696e646578206f7574206f6620626f756e64734552433732313a20617070726f76656420717565727920666f72206e6f6e6578697374656e7420746f6b656e4552433732314d657461646174613a2055524920736574206f66206e6f6e6578697374656e7420746f6b656e4552433732313a207472616e73666572206f6620746f6b656e2074686174206973206e6f74206f776e4552433732314d657461646174613a2055524920717565727920666f72206e6f6e6578697374656e7420746f6b656e4552433732313a20617070726f76616c20746f2063757272656e74206f776e65724552433732313a207472616e736665722063616c6c6572206973206e6f74206f776e6572206e6f7220617070726f766564a264697066735822122058904ce2b313c8489120ccdbdfaeafa45c11590fe5d157f9a7f1b9811189157864736f6c63430007010033",
  "immutableReferences": {},
  "source": "// SPDX-License-Identifier: MIT\npragma solidity >=0.4.22 <0.9.0;\nimport \"@openzeppelin/contracts/token/ERC721/ERC721.sol\";\n\ncontract GoodwillChain is ERC721{\n\n  constructor() ERC721(\"GoodwillChain\", \"GC\") {\n  }\n\n  uint tCount;\n  uint oCount;\n\n  mapping(address => string) artists;\n  mapping(uint => NFT) public nfts;\n  mapping(uint => Offer) public offers;\n\n  \n  uint funds;\n  address payable org_address;\n\n  struct NFT {\n        uint id;\n        uint price;\n        bool isListed;\n        string name;\n        string filecid;\n        string aName;\n        address artist;\n        address owner;\n    }\n  \n  struct Offer {\n        uint id;\n        uint nftID;\n        uint offerAmount;\n        address bidder;\n        address institution;\n        bool isApproved;\n    }\n\n  modifier idExists(uint id) {\n    require(id > 0 && id <= tCount);\n    _;\n  }\n\n  event createdNFT(\n        uint id, \n        string name, \n        address owner\n    );\n\n    event setNFTPrice(\n        uint id, \n        uint newPrice, \n        bool listed\n    );\n\n    event offerApproved(\n        uint id,\n        uint nftID, \n        uint amount, \n        bool approved\n    );\n\n    event boughtTrack(\n        uint id, \n        address buyer\n    );\n\n  function registerArtist(string memory _name) external {\n        artists[msg.sender] = _name;\n    }\n\n  function createNFT(string memory _name,string memory _filecid)   external {\n        require(bytes(_name).length > 0 && bytes(_filecid).length > 0, \"Name and file required\");\n        tCount++;\n        _safeMint(msg.sender, tCount);\n        _setTokenURI(tCount, _filecid);\n        nfts[tCount] = NFT(tCount, 0, false, _name, _filecid, artists[msg.sender], msg.sender, msg.sender);\n        emit createdNFT(tCount, nfts[tCount].name, nfts[tCount].owner);\n    }   \n\n  function setPrice(uint _id, uint _price) external idExists(_id) {\n        nfts[_id].isListed = true;\n        nfts[_id].price = _price;\n        emit setNFTPrice(_id, nfts[_id].price, nfts[_id].isListed);\n    } \n\n  function makeOffer(uint _tid, uint _amount ) external payable idExists(_tid) {\n        require(_amount > nfts[_tid].price, \"Invalid offer\");\n        oCount++;    \n        offers[oCount] = Offer(oCount, _tid, _amount, msg.sender, nfts[_tid].owner, false);\n    }\n\n  function approveOffer(uint _id) external {\n        approve(offers[_id].bidder, offers[_id].nftID);\n        offers[_id].isApproved = true;\n        emit offerApproved(oCount, offers[_id].nftID, offers[_id].offerAmount, offers[_id].isApproved);\n    }\n\n  function buyTrack(uint _id) external payable idExists(_id) {\n        (bool paid,) = org_address.call{ value: msg.value }(\"\");\n        require(paid == true, \"Not sent\");\n        //org_address.transfer(msg.value);\n        funds = funds + msg.value;\n        safeTransferFrom(nfts[_id].owner, msg.sender, _id);\n        nfts[_id].owner = msg.sender;\n        nfts[_id].isListed = false;\n        emit boughtTrack(_id, nfts[_id].owner);\n    }\n}\n",
  "sourcePath": "C:/Users/Abel Simon Zachariah/Projects/Goodwill-Chain/contracts/GoodwillChain.sol",
  "compiler": {
    "name": "solc",
    "version": "0.7.1+commit.f4a555be.Emscripten.clang"
  },
  "schemaVersion": "3.3.4",
  "updatedAt": "2021-11-22T10:10:59.160Z",
  "devdoc": {
    "kind": "dev",
    "methods": {
      "approve(address,uint256)": {
        "details": "See {IERC721-approve}."
      },
      "balanceOf(address)": {
        "details": "See {IERC721-balanceOf}."
      },
      "baseURI()": {
        "details": "Returns the base URI set via {_setBaseURI}. This will be automatically added as a prefix in {tokenURI} to each token's URI, or to the token ID if no specific URI is set for that token ID."
      },
      "getApproved(uint256)": {
        "details": "See {IERC721-getApproved}."
      },
      "isApprovedForAll(address,address)": {
        "details": "See {IERC721-isApprovedForAll}."
      },
      "name()": {
        "details": "See {IERC721Metadata-name}."
      },
      "ownerOf(uint256)": {
        "details": "See {IERC721-ownerOf}."
      },
      "safeTransferFrom(address,address,uint256)": {
        "details": "See {IERC721-safeTransferFrom}."
      },
      "safeTransferFrom(address,address,uint256,bytes)": {
        "details": "See {IERC721-safeTransferFrom}."
      },
      "setApprovalForAll(address,bool)": {
        "details": "See {IERC721-setApprovalForAll}."
      },
      "supportsInterface(bytes4)": {
        "details": "See {IERC165-supportsInterface}. Time complexity O(1), guaranteed to always use less than 30 000 gas."
      },
      "symbol()": {
        "details": "See {IERC721Metadata-symbol}."
      },
      "tokenByIndex(uint256)": {
        "details": "See {IERC721Enumerable-tokenByIndex}."
      },
      "tokenOfOwnerByIndex(address,uint256)": {
        "details": "See {IERC721Enumerable-tokenOfOwnerByIndex}."
      },
      "tokenURI(uint256)": {
        "details": "See {IERC721Metadata-tokenURI}."
      },
      "totalSupply()": {
        "details": "See {IERC721Enumerable-totalSupply}."
      },
      "transferFrom(address,address,uint256)": {
        "details": "See {IERC721-transferFrom}."
      }
    },
    "version": 1
  },
  "userdoc": {
    "kind": "user",
    "methods": {},
    "version": 1
  }
}